:020000040800F2
:10000000E00800242503000879210008911E00085B
:1000100071210008E1001008F9300008000000001C
:10002000000000000000000000000000C9230008DC
:100030006904000800000000F121000829240008DC
:100040003F0300083F0300083F0300083F03000888
:100050003F0300083F0300083F0300083F03000878
:100060003F0300083F0300083F0300083F03000868
:100070003F0300083F0300083F0300083F03000858
:100080003F0300083F0300083F0300083F03000848
:100090003F0300083F0300083F0300083F03000838
:1000A0003F030008312400083F0300083F03000815
:1000B0003F0300083F0300083F0300083F03000818
:1000C0003F0300083F0300083F0300083F03000808
:1000D0003F0300083F0300083F0300083F030008F8
:1000E0003F0300083F0300083F0300083F030008E8
:1000F0003F0300083F0300083F0300083F030008D8
:100100003F0300083F0300083F0300083F030008C7
:100110003F0300083F0300083F0300083F030008B7
:100120003F0300083F0300083F0300083F030008A7
:100130003F03000800000000000000003F0300082B
:100140003F0300083F0300083F0300083F03000887
:100150003F0300083F0300083F0300083F03000877
:100160003F0300083F0300083F0300083F03000867
:100170003F0300083F0300083F03000800000000A1
:100180003F0300083F0300083F0300083F03000847
:100190003F0300083F0300083F0300083F03000837
:1001A0003F0300083F0300083F0300083F03000827
:1001B0003F0300083F0300083F0300083F03000817
:1001C0003F0300083F03000800000000000000009B
:1001D00000000000000000003F03000800000000D5
:1001E000000000000000000000000000000000000F
:1001F00000000000000000003F0300083F0300086B
:100200003F0300083F030008000000003F03000810
:100210003F0300083F0300083F0300083F030008B6
:100220003F0300083F0300083F03000800000000F0
:100230003F0300083F030008000000003F030008E0
:100240003F0300083F0300083F0300083F03000886
:100250003F0300083F0300083F0300083F03000876
:100260003F0300083F0300083F0300083F03000866
:100270003F0300083F0300083F03000800000000A0
:100280003F0300083F030008000000003F03000890
:10029000000000003F0300083F03000800000000CA
:1002A000000000003F0300083F03000800F002F8D0
:1002B000FFF0AAFE0AA090E8000C82448344AAF151
:1002C0000107DA4501D1FFF09FFEAFF2090EBAE84F
:1002D0000F0013F0010F18BFFB1A43F0010318477A
:1002E000502F0000702F0000103A24BF78C878C14A
:1002F000FAD8520724BF30C830C144BF04680C602C
:10030000704700000023002400250026103A28BF73
:1003100078C1FBD8520728BF30C148BF0B60704777
:1003200010B510BD0948804709480047FEE7FEE7C1
:10033000FEE7FEE7FEE7FEE7FEE7FEE7FEE7FEE795
:1003400004480549054A064B70470000392B100840
:10035000AD020008E0020024E0080024E0040024CC
:10036000E004002453EA020C00F069802DE9F04B10
:100370004FF00006002B1FBFB3FA83F503FA05F414
:1003800024FA05F65E4012BF1643B2FA82F502FA6D
:1003900005F4C5F120051EBF22FA05FC44EA0C0451
:1003A000203556EA044C4FEA144418BF641C4FF041
:1003B00000084FF00009904271EB030C39D300297B
:1003C00019BFB1FA81F701FA07F6B0FA80F700FA1F
:1003D00007F6C7F120071EBF20FA07FC46EA0C0605
:1003E0002037B6FBF4FCA7EB0507103F07F01F0B07
:1003F000CBF120062CFA06F60CFA0BFB44BFB346F1
:100400000026202FA4BF5E464FF0000B5BEA060CCF
:1004100008BF4FF0010B19EB0B0948EB0608ABFBCB
:10042000027C06FB02CC0BFB03CCC01B71EB0C0166
:10043000C1E70B46024641464846BDE8F08B13B57E
:10044000084318BF4FF0FF300146AFF30080BDE80E
:100450001C40704770477047704700000048704765
:1004600010000024000000007047000000000000A1
:1004700080B582B00090009820B9FFE701208DF888
:1004800007008EE0009890F8210020B9FFE700985F
:10049000FFF032FEFFE70099022081F8210000986A
:1004A0000068006920B9FFE701208DF8070078E0B7
:1004B00000980068806820B9FFE701208DF80700E8
:1004C0006FE00098406860B9FFE70098806808B95D
:1004D000FFE7FFE700980168086820F40010086053
:1004E00010E000988068B0F5801F04D0FFE701207D
:1004F0008DF8070055E000980168086840F4001086
:100500000860FFE700988068B0F5801F07D1FFE71B
:1005100000980168086840F48010086006E00098C0
:100520000168086820F480100860FFE70098006800
:10053000006820F0FE40009A1168526940EA0260AB
:10054000086000980068006820F47020009A116824
:1005500012691043086000980068006820F4706019
:10056000009A1168D26810430860009800684069DA
:10057000009A11689269C0EA0240486100980068D8
:1005800040694FF6FF718843009A1168D2691043A1
:1005900048610099012081F8210000208DF80700B2
:1005A000FFE79DF8070002B080BD000000000000DA
:1005B00082B00190ADF802108DF801209DF8010085
:1005C00028B1FFE7BDF802000199886105E0BDF898
:1005D0000200000401998861FFE702B07047000043
:1005E00040F2DC20C2F200400068704700000000CA
:1005F00040F20800C2F20040027840F2DC21C2F270
:1006000000410868104408607047000000000000C6
:1006100080B582B0032000F107F800F05DFA44F2E3
:100620001842C5F602021168C1F3032343F21621F2
:10063000C0F60001CB5C03F01F03D8400090009887
:10064000126802F00F02895C01F01F01C84040F2FD
:100650000401C2F200410860009840F20001C2F2B9
:10066000004108600F2000F013F820B1FFE70120DF
:100670008DF8070005E000F04FF800208DF8070026
:10068000FFE79DF8070002B080BD000000000000F9
:1006900080B582B0009040F20800C2F200400078BD
:1006A00020B9FFE701208DF8070030E040F200009C
:1006B000C2F20040006840F20801C2F200410A782C
:1006C0004FF47A71B1FBF2F1B0FBF1F001F1BCFB38
:1006D00020B1FFE701208DF8070018E000980F28EF
:1006E0000DD8FFE700994FF0FF300022FFF084FFA4
:1006F000009840F20C01C2F20041086003E00120C2
:100700008DF8070003E000208DF80700FFE79DF853
:10071000070002B080BD000081B0FFE744F25450F2
:10072000C5F60200016841F002010160006800F0B6
:10073000020000900098FFE701B070470000000041
:1007400080B582B0ADF80600BDF9060002F0D8FC15
:1007500002B080BD0000000080B584B0029044F675
:100760000C00C5F60200006800F004010020B0EBA8
:10077000910F13D1FFE744F60C00C5F602000068A4
:1007800000F007000299884204D0FFE701208DF8AD
:100790000F002EE000208DF80F002AE044F60C0137
:1007A000C5F60201086820F00700029A10430860AD
:1007B000FFF716FF0190FFE744F60400C5F60200BC
:1007C000006800F400510020B0EB513F0DD1FFE76D
:1007D000FFF706FF0199401AB0F57A7F04D9FFE7C9
:1007E00001208DF80F0004E0E6E700208DF80F00EF
:1007F000FFE79DF80F0004B080BD0000000000007E
:1008000088B0079044F22840C5F60200016801F064
:10081000030106910068C0F30530059044F22C40B6
:10082000C5F602000068C0F300100490049844F27A
:100830003C41C5F60201096889B2C908484300EE87
:10084000100AB8EE400A8DED020A0598002800F063
:100850001B81FFE70698009048B1FFE70098012848
:1008600069D0FFE70098022800F08980ABE044F2ED
:100870000040C5F60200006800F020010020B0EB47
:10088000511F33D0FFE744F20040C5F60200006874
:10089000C0F3C10149F20000C0F2D030C84003905B
:1008A0009DED030AB8EE400A9DED051AB8EE411A17
:1008B00080EE010A44F23840C5F6020000686FF38A
:1008C0005F2001EE100AB8EE411A9DED022A9FED5D
:1008D000743A82EE032A31EE021AB7EE002A31EEA4
:1008E000021A20EE010A8DED010A23E09DED050AB2
:1008F000B8EE401A9FED6C0A80EE010A44F23840CF
:10090000C5F6020000686FF35F2001EE100AB8EE32
:10091000411A9DED022A9FED623A82EE032A31EEE2
:10092000021AB7EE002A31EE021A20EE010A8DED0E
:10093000010AFFE76BE09DED050AB8EE401A9FED56
:10094000590A80EE010A44F23840C5F602000068F8
:100950006FF35F2001EE100AB8EE411A9DED022AF6
:100960009FED4F3A82EE032A31EE021AB7EE002ACB
:1009700031EE021A20EE010A8DED010A47E09DEDED
:10098000050AB8EE401A9FED450A80EE010A44F2CE
:100990003840C5F6020000686FF35F2001EE100AD0
:1009A000B8EE411A9DED022A9FED3D3A82EE032AF0
:1009B00031EE021AB7EE002A31EE021A20EE010AD9
:1009C0008DED010A23E09DED050AB8EE401A9FED7A
:1009D000350A80EE010A44F23840C5F6020000688C
:1009E0006FF35F2001EE100AB8EE411A9DED022A66
:1009F0009FED2B3A82EE032A31EE021AB7EE002A5F
:100A000031EE021A20EE010A8DED010AFFE79DED9D
:100A1000010A44F23840C5F60200016889B2490A69
:100A200001EE101AB8EE411AB7EE002A31EE021AA2
:100A300080EE010A0799BCEEC00A81ED000A9DED27
:100A4000010A0168C1F3064101EE101AB8EE411A1D
:100A500031EE021A80EE010A0799BCEEC00A81ED60
:100A6000010A9DED010A0068C0F3066001EE100A5C
:100A7000B8EE411A31EE021A80EE010A0798BCEE78
:100A8000C00A80ED020A07E0079900200860079974
:100A9000486007998860FFE708B070470024F44A6F
:100AA000000000460024744A0024744C000000003A
:100AB00080B501F189F944F21C41C5F602010968CB
:100AC000C1F3022243F21621C0F60001895C01F055
:100AD0001F01C84080BD00008AB044F21040C5F636
:100AE0000200006800F0380001460191182800F269
:100AF00069810199DFE811F019006601660166015C
:100B000066016601660166013A00660166016601DA
:100B100066016601660166014000660166016601C4
:100B20006601660166016601460044F20040C5F6B2
:100B30000200006800F020010020B0EB511F0ED031
:100B4000FFE744F20040C5F602000068C0F3C101AF
:100B500049F20000C0F2D030C840029005E049F2EE
:100B60000000C0F2D0300290FFE731E140F6001003
:100B7000C0F23D0002902BE141F20020C0F27A0069
:100B8000029025E144F22840C5F60200016801F018
:100B9000030108910068C0F30510079044F22C404F
:100BA000C5F60200006800F001000690069844F2C5
:100BB0003441C5F60201096889B2C908484300EE0C
:100BC000100AB8EE400A8DED040A0798002800F0DC
:100BD000F580FFE70898009048B1FFE700980128EA
:100BE00069D0FFE70098022800F08980ABE044F26A
:100BF0000040C5F60200006800F020010020B0EBC4
:100C0000511F33D0FFE744F20040C5F602000068F0
:100C1000C0F3C10149F20000C0F2D030C8400590D5
:100C20009DED050AB8EE400A9DED071AB8EE411A8F
:100C300080EE010A44F23040C5F6020000686FF30E
:100C40005F2001EE100AB8EE411A9DED042A9FEDD7
:100C5000633A82EE032A31EE021AB7EE002A31EE31
:100C6000021A20EE010A8DED030A23E09DED070A2A
:100C7000B8EE401A9FED5B0A80EE010A44F2304064
:100C8000C5F6020000686FF35F2001EE100AB8EEAF
:100C9000411A9DED042A9FED513A82EE032A31EE6E
:100CA000021AB7EE002A31EE021A20EE010A8DED8B
:100CB000030AFFE76BE09DED070AB8EE401A9FEDCF
:100CC000480A80EE010A44F23040C5F6020000688E
:100CD0006FF35F2001EE100AB8EE411A9DED042A71
:100CE0009FED3E3A82EE032A31EE021AB7EE002A59
:100CF00031EE021A20EE010A8DED030A47E09DED68
:100D0000070AB8EE401A9FED340A80EE010A44F259
:100D10003040C5F6020000686FF35F2001EE100A54
:100D2000B8EE411A9DED042A9FED2C3A82EE032A7B
:100D300031EE021AB7EE002A31EE021A20EE010A55
:100D40008DED030A23E09DED070AB8EE401A9FEDF2
:100D5000240A80EE010A44F23040C5F60200006821
:100D60006FF35F2001EE100AB8EE411A9DED042AE0
:100D70009FED1A3A82EE032A31EE021AB7EE002AEC
:100D800031EE021A20EE010A8DED030AFFE744F26C
:100D90003040C5F60200006881B2012000EB51200E
:100DA00009909DED030A9DED091AB8EE411A80EEF7
:100DB000010ABCEEC00A8DED020A02E0002002909A
:100DC000FFE705E040F60010C0F23D000290FFE7AB
:100DD00002980AB0704700BF0024F44A00000046A1
:100DE0000024744A0024744C80B58CB00A900A9890
:100DF00028B9FFE701208DF82F0000F049BD0A98BF
:100E00000078C007002800F0DD80FFE744F21040C2
:100E1000C5F60200006800F03800069044F2284051
:100E2000C5F6020000680590069810280AD0FFE772
:100E3000069818281CD1FFE7059800F00300022847
:100E400016D1FFE744F20040C5F60200006800F446
:100E500000310020B0EB514F09D0FFE70A984068FD
:100E600028B9FFE701208DF82F0000F011BDA8E0A0
:100E7000FFE70A984068B0F5803F09D1FFE744F2E8
:100E80000041C5F60201086840F48030086056E071
:100E90000A98406888B9FFE744F20041C5F60201AC
:100EA000086820F480300860086820F4801008602A
:100EB000086820F48020086040E00A984068B0F597
:100EC000A02F11D1FFE744F20041C5F602010868E6
:100ED00040F480200860086820F4801008600868EA
:100EE00040F48030086028E00A984068B0F5A81FF8
:100EF00011D1FFE744F20041C5F60201086840F451
:100F000080200860086840F480100860086840F499
:100F10008030086010E044F20041C5F60201086824
:100F200020F480300860086820F480200860086899
:100F300020F480100860FFE7FFE7FFE7FFE7FFE727
:100F40000A984068F0B1FFE7FFF74AFB0990FFE716
:100F500044F20040C5F60200006800F400310020B1
:100F6000B0EB514F0DD1FFE7FFF73AFB0999401A5B
:100F7000652805D3FFE703208DF82F0000F088BC1B
:100F8000E6E71DE0FFF72CFB0990FFE744F2004085
:100F9000C5F60200006800F400310020B0EB514FAC
:100FA0000DD0FFE7FFF71CFB0999401A652805D310
:100FB000FFE703208DF82F0000F06ABCE6E7FFE7AB
:100FC000FFE7FFE70A9800788007002840F1C68015
:100FD000FFE744F21040C5F60200006800F0380058
:100FE000049044F22840C5F602000068039004987B
:100FF00050B1FFE70498182851D1FFE79DF80C0085
:10100000800700284BD1FFE744F20040C5F60200FC
:10101000006800F004010020B0EB910F09D0FFE759
:101020000A98C06828B9FFE701208DF82F0000F06A
:101030002FBC44F20041C5F60201086820F01900F7
:101040000A9AD26810430860FFF7CAFA0990FFE7CE
:1010500044F20040C5F60200006800F004010020E0
:10106000B0EB910F0DD1FFE7FFF7BAFA0999401ADB
:10107000032805D3FFE703208DF82F0000F008BCFC
:10108000E6E744F20441C5F60201086820F0FE409C
:101090000A9A126940EA02600860FFE75DE00A9878
:1010A000C068A0B3FFE744F20041C5F6020108683A
:1010B00020F019000A9AD26810430860FFF790FAEE
:1010C0000990FFE744F20040C5F60200006800F016
:1010D00004010020B0EB910F0CD1FFE7FFF780FA7D
:1010E0000999401A032804D3FFE703208DF82F0045
:1010F000CEE3E7E744F20441C5F60201086820F0B8
:10110000FE400A9A126940EA0260086024E044F254
:101110000041C5F60201086820F001000860FFF7F1
:101120005FFA0990FFE744F20040C5F6020000684C
:1011300000F004010020B0EB910F0CD0FFE7FFF7A7
:101140004FFA0999401A032804D3FFE703208DF8CA
:101150002F009DE3E7E7FFE7FFE7FFE70A98007846
:10116000C006002840F1A080FFE744F21040C5F619
:101170000200006800F03800029044F22840C5F6F2
:10118000020000680190029808280AD0FFE7029840
:1011900018282BD1FFE7019800F00300012825D182
:1011A000FFE744F20040C5F60200006800F48071D9
:1011B0000020B0EB112F09D0FFE70A98C069802802
:1011C00004D0FFE701208DF82F0061E3FFE744F230
:1011D0000C41C5F60201086820F07C500A9A126A98
:1011E00040EA02600860FFE7FFE75CE00A98C06938
:1011F00098B3FFE744F20041C5F60201086840F0E9
:1012000080000860FFF7ECF90990FFE744F2004026
:10121000C5F60200006800F480710020B0EB112FC9
:101220000CD1FFE7FFF7DCF90999401A032804D332
:10123000FFE703208DF82F002AE3E7E7FFE744F2FA
:101240000C41C5F60201086820F07C500A9A126A27
:1012500040EA02600860FFE724E044F20041C5F67E
:101260000201086820F080000860FFF7B9F90990D2
:10127000FFE744F20040C5F60200006800F4807108
:101280000020B0EB112F0CD0FFE7FFF7A9F9099967
:10129000401A032804D3FFE703208DF82F00F7E25C
:1012A000E7E7FFE7FFE7FFE70A9800780007002875
:1012B0004FD5FFE70A98406928B3FFE744F274412D
:1012C000C5F60201086840F001000860FFF788F9E0
:1012D0000990FFE744F27440C5F60200006800F090
:1012E00002010020B0EB510F0CD1FFE7FFF778F9B6
:1012F0000999401A032804D3FFE703208DF82F0033
:10130000C6E2E7E724E044F27441C5F6020108684A
:1013100020F001000860FFF763F90990FFE744F24D
:101320007440C5F60200006800F002010020B0EB36
:10133000510F0CD0FFE7FFF753F90999401A032822
:1013400004D3FFE703208DF82F00A1E2E7E7FFE7D2
:10135000FFE70A980078800600284FD5FFE70A9833
:10136000806928B3FFE744F20041C5F6020108682E
:1013700040F480500860FFF733F90990FFE744F22A
:101380000040C5F60200006800F400510020B0EBF8
:10139000513F0CD1FFE7FFF723F90999401A0328C1
:1013A00004D3FFE703208DF82F0071E2E7E724E084
:1013B00044F20041C5F60201086820F4805008603C
:1013C000FFF70EF90990FFE744F20040C5F602006E
:1013D000006800F400510020B0EB513F0CD0FFE753
:1013E000FFF7FEF80999401A032804D3FFE703200A
:1013F0008DF82F004CE2E7E7FFE7FFE70A98007857
:101400004007002840F1CA80FFE744F60001C5F616
:101410000201086840F480700860FFF7E1F8099065
:10142000FFE744F60000C5F602000068C00500288A
:101430000CD4FFE7FFF7D4F80999401A652804D3C4
:10144000FFE703208DF82F0022E2EAE7FFE70A9882
:101450008068012809D1FFE744F27041C5F6020116
:10146000086840F00100086054E00A98806888B974
:10147000FFE744F27041C5F60201086820F0010060
:101480000860086820F080000860086820F0040008
:1014900008603EE00A988068052811D1FFE744F211
:1014A0007041C5F60201086840F004000860086851
:1014B00020F080000860086840F00100086027E024
:1014C0000A988068852811D1FFE744F27041C5F67B
:1014D0000201086840F004000860086840F08000DD
:1014E0000860086840F00100086010E044F27041B4
:1014F000C5F60201086820F001000860086820F0C5
:1015000004000860086820F080000860FFE7FFE73B
:10151000FFE7FFE7FFE70A988068F8B1FFE7FFF70A
:101520005FF80990FFE744F27040C5F602000068DA
:1015300000F002010020B0EB510F0ED1FFE7FFF7E2
:101540004FF80999401A41F28931884204D3FFE7E4
:1015500003208DF82F009BE1E5E71EE0FFF740F840
:101560000990FFE744F27040C5F60200006800F001
:1015700002010020B0EB510F0ED0FFE7FFF730F86B
:101580000999401A41F28931884204D3FFE70320C8
:101590008DF82F007CE1E5E7FFE7FFE70A98406A56
:1015A000002800F07181FFE744F21040C5F6020008
:1015B000006800F03800182800F0E080FFE70A9883
:1015C000406A022840F0B480FFE744F20041C5F6CB
:1015D0000201086820F080700860FFF701F80990A8
:1015E000FFE744F20040C5F60200006800F0007119
:1015F0000020B0EB516F0CD0FFE7FEF7F1FF099927
:10160000401A032804D3FFE703208DF82F003FE1A1
:10161000E7E7FFE744F22841C5F60201086840F217
:10162000F33290430A9B9A6ADB6A42EA0312104340
:1016300008600A99086BD1F834C08B6BCA6B01380B
:101640006FF35F204FF60061CFF6FF7101EB4C2185
:1016500089B208440021CFF6FF7101EB034101F488
:10166000FE0108444FF07F4101EB026101F0FE41B1
:10167000084444F23041C5F602010860FFE744F235
:101680002C41C5F602010091086820F001000860B5
:1016900044F23442C5F6020210684FF6F8739843DC
:1016A0000A9B9B6C40EAC3001060086820F00C00A5
:1016B0000A9A126C10430860086820F002000A9A27
:1016C000526C10430860086840F480300860086875
:1016D00040F400300860086840F480200860086822
:1016E00040F00100086044F20041C5F602010868BC
:1016F00040F080700860FEF773FF0990FFE744F246
:101700000040C5F60200006800F000710020B0EB58
:10171000516F0CD1FFE7FEF763FF0999401A0328C8
:1017200004D3FFE703208DF82F00B1E0E7E724E0C2
:1017300044F20041C5F60201086820F0807008609C
:10174000FEF74EFF0990FFE744F20040C5F60200A5
:10175000006800F000710020B0EB516F0CD0FFE783
:10176000FEF73EFF0999401A032804D3FFE7032040
:101770008DF82F008CE0E7E7FFE784E044F2284093
:10178000C5F602000068089044F23040C5F6020039
:10179000006807900A98406A012837D0FFE7089848
:1017A00000F003000A99896A88422FD1FFE7089860
:1017B00000F47C710A98C06AB0EB111F26D1FFE7D4
:1017C00007986FF35F200A99096B013988421DD190
:1017D000FFE7BDF81C100A98406B0138B0EB512FA1
:1017E00014D1FFE7079800F4FE010A98806B0138D6
:1017F000B0EB114F0AD1FFE7079800F0FE410A98BD
:10180000C06B0138B0EB116F04D0FFE701208DF8F9
:101810002F003DE044F23440C5F60200006880B27B
:10182000C00808900A98806C0899884229D0FFE780
:1018300044F22C41C5F60201086820F0010008605E
:10184000FEF7CEFE0990FFE7FEF7CAFE0999401A9F
:1018500008B9FFE7F8E744F23441C5F60201086829
:101860004FF6F87290430A9A926C40EAC200086000
:1018700044F22C41C5F60201086840F001000860FE
:10188000FFE7FFE7FFE7FFE700208DF82F00FFE706
:101890009DF82F000CB080BD80B586B004900498F0
:1018A00020B9FFE701208DF817003AE10498406A5B
:1018B00008B9FFE7FFE704990020886204980068F0
:1018C00043F20001C4F2010188421BD0FFE70498F3
:1018D000006843F60001C4F20001884212D0FFE71D
:1018E0000498006843F60041C4F20001884209D020
:1018F000FFE70498C068102804D3FFE701208DF8A3
:1019000017000EE1049801F193F802900498006822
:1019100043F20001C4F20101884216D0FFE70498A7
:10192000006843F60001C4F2000188420DD0FFE7D1
:101930000498006843F60041C4F20001884204D0D4
:10194000FFE7029808281FD8FFE70498006843F2D1
:101950000001C4F20101884212D0FFE70498006838
:1019600043F60001C4F20001884209D0FFE7049861
:10197000006843F60041C4F20001884208D1FFE745
:101980000298112804D3FFE701208DF81700C8E062
:10199000049890F8810040B9FFE70499002081F88D
:1019A0008000049800F0C4F8FFE70499022081F851
:1019B000810004980168086820F00100086004981C
:1019C0000068806800F4F810039004988069B0F112
:1019D000806F1BD1FFE704984068B0F5800F04D1F9
:1019E000FFE70498806B50B1FFE70498406868B93E
:1019F000FFE70498806BB0F1805F07D1FFE70498A0
:101A00000168086840F480500860FFE70498807916
:101A10004006002810D5FFE70498C06807280BD3BC
:101A2000FFE704980068006820F48070049A116849
:101A3000126D1043086006E004980168086820F4FD
:101A400080700860FFE7049B1968DA68D869D3F8EA
:101A500028C040EA0C00DDF80CC040EA0C00DB6B4B
:101A6000184310438860049A0192506B516A0843EE
:101A7000916B0843916908431168D2F804C09368D8
:101A8000D2F810E040EA0E00D2F814E040EA0E006E
:101A9000D2F820E040EA0E0040EA0C00D2F84CC038
:101AA00040EA0C001843936C1843926D1043C860D1
:101AB0000498406898B9FFE704980068806801219D
:101AC00061F3CC20049909688860049800688068F4
:101AD000022161F34A20049909688860FFE70498AD
:101AE0000168086D20F001000865049880794006BF
:101AF00000280BD5FFE704980068C06820F000407C
:101B0000049A1168526D1043C860FFE704990020E1
:101B1000C1F88400049A012182F881108DF8170021
:101B2000FFE79DF8170006B080BD00000000000030
:101B300080B5B8B03790002036903590349033900F
:101B4000329002A8C021FEF06EFA3798006843F286
:101B50000001C4F20101884249D1FFE7002103914D
:101B60004FF480500290012204922022059202221A
:101B7000069207920892C02209920A910B911B903B
:101B800002A8FEF0C5FE18B1FFE7FEF0ADFAFFE7D0
:101B9000FFE744F25050C5F60200016841F480515D
:101BA0000160006800F4805001900198FFE7FFE7B2
:101BB00044F24050C5F60200016841F001010160A5
:101BC000006800F0010000900098FFE7E0203290EC
:101BD0000220339000203490032035900520369069
:101BE0000020C5F6020032A9FEF0A6FAFFE738B0E1
:101BF00080BD00000000000081B0009001B070477F
:101C000081B0009001B0704781B0009001B0704782
:101C100081B0009001B0704780B584B0029001910E
:101C2000FFE7029890F88400012804D1FFE7022022
:101C30008DF80F0032E00299012081F88400FFE75F
:101C4000FFE702992420C1F8880002980068006824
:101C5000009002980168086820F00100086002986E
:101C60000068806820F06060019908430299096863
:101C70008860029801F118F90098029909680860D3
:101C800002992020C1F88800FFE70299002081F81E
:101C90008400FFE700208DF80F00FFE79DF80F009C
:101CA00004B080BD0000000080B582B000900098B4
:101CB00020B9FFE701208DF8070046E00098806911
:101CC00008B1FFE700E0FFE70098D0F8880040B9CE
:101CD000FFE70099002081F88400009800F03CF8AC
:101CE000FFE700992420C1F888000098016808687F
:101CF00020F001000860009800F0D6FC012804D113
:101D0000FFE701208DF807001FE00098806A20B1EE
:101D1000FFE7009800F0D4FBFFE7009801684868EF
:101D200020F49040486000980168886820F02A00FC
:101D3000886000980168086840F001000860009819
:101D400001F1F6F88DF80700FFE79DF8070002B0F3
:101D500080BD00000000000080B5BAB039900020BE
:101D60003890379036903590349004A8C021FEF01A
:101D70005AF93998006841F20001C4F20101884221
:101D80003ED1FFE70020059001210491259004A891
:101D9000FEF0BEFD18B1FFE7FEF0A6F9FFE7FFE792
:101DA00044F25050C5F60200016841F01001016094
:101DB000006800F0100003900398FFE7FFE744F28B
:101DC0004050C5F60200016841F002010160006860
:101DD00000F0020002900298FFE74FF44040349078
:101DE0000220359000203690032037900420389050
:101DF00040F20040C5F6020034A9FEF09DF945E02E
:101E00003998006844F20041C4F2000188423CD194
:101E1000FFE70020059002210491249004A8FEF021
:101E200077FD18B1FFE7FEF05FF9FFE7FFE744F247
:101E30004850C5F60200016841F4003101600068B5
:101E400000F4003001900198FFE7FFE744F24050B2
:101E5000C5F60200016841F001010160006800F070
:101E6000010000900098FFE70C203490022035908C
:101E70000020369003203790072038900020C5F6C8
:101E8000020034A9FEF058F9FFE7FFE73AB080BD41
:101E9000FFE7FEE70000000080B586B0002001905B
:101EA0000590049003900290FEF07AFB01980121C6
:101EB0008DF808108DF8090003901F228DF810206E
:101EC00087228DF811208DF812008DF813008DF8FF
:101ED00014108DF815108DF816008DF8170002A853
:101EE000FEF00EFB0420FEF06FFB06B080BD00008C
:101EF00080B58EB000200D900C900B900A90099048
:101F0000FFE744F24050C5F60200016841F00401C9
:101F10000160006800F0040008900898FFE7FFE700
:101F200044F24050C5F60200016841F080010160B2
:101F3000006800F0800007900798FFE7FFE744F291
:101F40004050C5F60200016841F0010101600068DF
:101F500000F0010006900698FFE7FFE744F24050CA
:101F6000C5F60200016841F002010160006800F05E
:101F7000020005900598FFE7FFE744F24050C5F6E0
:101F80000200016841F008010160006800F00800EB
:101F900004900498FFE70020C5F60200009041F28B
:101FA000100100220292FEF703FB029843F6FF6144
:101FB0000991032101910A910B9040F60000C5F6AA
:101FC000020009A90391FEF0B7F80098019B029A5C
:101FD000039948F6037CCDF824C00A930B92FEF0D7
:101FE000ABF80098019A029B03994FF0100CCDF8C2
:101FF00024C04FF0010CCDF828C00B930C92FEF0DA
:102000009BF8019A0298039943F2FF7309930A928D
:102010000B9040F20040C5F60200FEF08DF80098EB
:10202000019A029B03994FF4805CCDF824C04FF0D5
:10203000110CCDF828C00B930C92FEF07DF8019A9C
:1020400002980399042309930A920B9040F60040EA
:10205000C5F60200FEF070F80EB080BD0000000072
:1020600080B588B0002100910791069105910491F7
:1020700003910291019140F26810C2F200404FF0CA
:1020800080420260416081604FF0FF32C2600161B6
:102090008161FFF091FF18B1FFE7FEF025F8FFE73F
:1020A0004FF48050049040F26810C2F2004004A93E
:1020B00000F116F818B1FFE7FEF016F8FFE7002070
:1020C0000190039040F26810C2F2004001A9FFF0B5
:1020D000C7FE18B1FFE7FEF007F8FFE708B080BDC4
:1020E00080B582B040F2B410C2F20040009041F2DC
:1020F0000001C4F2010101604FF4E13141600021AF
:1021000001918160C16001610C2242618161C16104
:10211000016241628162FFF7C7FD18B1FFE7FDF080
:10212000E3FFFFE740F2B410C2F20040002100F1EB
:1021300067FA18B1FFE7FDF0D7FFFFE740F2B410F0
:10214000C2F200400021FFF767FD18B1FFE7FDF084
:10215000CBFFFFE740F2B410C2F2004000F110FAEA
:1021600018B1FFE7FDF0C0FFFFE702B080BD00003F
:10217000FFE7FEE700000000FFE7FEE700000000C9
:1021800088B0079006910592079800F00700049028
:102190000498C0F10700052803D3FFE7042001904D
:1021A00004E00498C0F107000190FFE70198039054
:1021B00004980430062803D8FFE70020009003E0CD
:1021C000049803380090FFE700980290069803995E
:1021D000012202FA01F101390840029B9840059959
:1021E0009A40013A1140084308B0704700000000CF
:1021F000704700000000000080B586B00490039195
:1022000000208DF8070044F22840C5F6020000685F
:1022100000F00300032804D1FFE701208DF8170028
:10222000CBE044F20041C5F60201086820F080507E
:102230000860FEF7D5F90290FFE744F20040C5F6CA
:102240000200006800F000510020B0EB517F0CD07C
:10225000FFE7FEF7C5F90299401A032804D3FFE708
:1022600003208DF81700A8E0E7E7FFE744F22841D4
:10227000C5F60201086820F07C70049A126840EAF2
:102280000250086004994868D1F808C0CB680A6910
:1022900001386FF35F204FF60061CFF6FF7101EB5D
:1022A0004C2189B208440021CFF6FF7101EB0341B4
:1022B00001F4FE0108444FF07F4101EB026101F09F
:1022C000FE41084444F24041C5F602010860FFE7C0
:1022D00044F22C41C5F602010091086820F44060E8
:1022E000049A526910430860086820F40070049A48
:1022F000926910430860086820F48070086044F216
:102300004442C5F6020210684FF6F8739843049BE6
:10231000DB6940EAC3001060086840F48070086020
:10232000039848B9FFE744F22C41C5F6020108685A
:1023300040F48000086016E00398012809D1FFE707
:1023400044F22C41C5F60201086840F40000086020
:1023500008E044F22C41C5F60201086840F08070A4
:102360000860FFE7FFE744F20041C5F60201086894
:1023700040F080500860FEF733F90290FFE744F226
:102380000040C5F60200006800F000510020B0EBEC
:10239000517F0CD1FFE7FEF723F90299401A032879
:1023A00004D3FFE703208DF8170006E0E7E7FFE717
:1023B0009DF807008DF81700FFE79DF8170006B09D
:1023C00080BD000000000000704700000000000019
:1023D00080B582B0009000980138B0F1807F03D3BF
:1023E000FFE70120019019E0009801384EF2140136
:1023F000CEF2000108604FF0FF300F2100F0A0FE88
:102400004EF21801CEF20001002008604EF21002D8
:10241000CEF20002072111600190FFE7019802B09F
:1024200080BD00000000000080B5FEF7E1F880BD2F
:1024300080B540F21C10C2F20040FFF03DFF80BDAD
:1024400083B00290019102988068009000984FF646
:102450008F71CFF6CF710840009001980099084322
:1024600040F00700009000980299886003B0704720
:1024700085B00490039102920498006A0090049938
:10248000086A20F0010008620498806901900198B0
:1024900020F0F00001900299019840EA01100190AB
:1024A000009820F00A0000900399009808430090DB
:1024B00001980499886100980499086205B07047F2
:1024C00081B00090009890F82800C00758B1FFE74D
:1024D00000980068406820F40030009A1168D26AC1
:1024E00010434860FFE7009890F828008007002814
:1024F0000BD5FFE700980068406820F48030009A10
:102500001168126B10434860FFE7009890F82800AC
:10251000400700280BD5FFE700980068406820F4CA
:102520008020009A1168526B10434860FFE70098C2
:1025300090F82800000700280BD5FFE700980068F6
:10254000406820F40040009A1168926B1043486084
:10255000FFE7009890F82800C00600280BD5FFE799
:1025600000980068806820F48050009A1168D26B4F
:1025700010438860FFE7009890F828008006002844
:102580000BD5FFE700980068806820F40050009A9F
:102590001168126C10438860FFE7009890F82800DB
:1025A000400600281CD5FFE700980068406820F42A
:1025B0008010009A1168526C104348600098406C7B
:1025C000B0F5801F0BD1FFE700980068406820F449
:1025D000C000009A1168926C10434860FFE7FFE763
:1025E000009890F82800000600280BD5FFE7009817
:1025F0000068406820F40020009A1168D26C1043F3
:102600004860FFE701B0704784B00390FFE7FFE741
:102610000398006850E8000F20F490700290FFE7E4
:1026200002990398026842E800100028F0D1FFE701
:10263000FFE7FFE7FFE70398006850E8020F4FF657
:10264000FE71CEF6FF7108400190FFE701990398F3
:10265000026842E802100028EDD1FFE7FFE7039887
:10266000C06E012814D1FFE7FFE7FFE70398006879
:1026700050E8000F20F010000090FFE70099039849
:10268000026842E800100028F0D1FFE7FFE7FFE70B
:1026900003992020C1F88C0003990020C866039993
:1026A000486704B07047000080B59EB01D900020C0
:1026B0008DF867001D98006840F60041C5F60001DE
:1026C000884201D1FFE700E0FFE71D9988680B69A8
:1026D0004A69C9691843104308431C901D98006853
:1026E000006846F6F311CCF6FF7108401C990843C8
:1026F0001D99096808601D980068406820F44050E2
:102700001D9A1168D268104348601D9880691C901A
:102710001D98006840F60041C5F60001884206D0C9
:10272000FFE71D98016A1C9808431C90FFE71D985D
:10273000006880684FF2FF41C1F2FF1108401C9908
:1027400008431D99096888601D980068C06A20F0D8
:102750000F001D9A1168526A1043C862FFE71D9866
:10276000006841F20001C4F20101884240F041805A
:10277000FFE744F25440C5F60200006800F038005C
:102780000146109128282FD81099DFE801F0152D67
:102790002D2D2D2D2D2D192D2D2D2D2D2D2D1D2D8D
:1027A0002D2D2D2D2D2D212D2D2D2D2D2D2D252D6D
:1027B0002D2D2D2D2D2D290001208DF86D0017E0D8
:1027C00004208DF86D0013E008208DF86D000FE0F7
:1027D00010208DF86D000BE020208DF86D0007E0D3
:1027E00040208DF86D0003E080208DF86D00FFE73C
:1027F0006CE21D98006844F20041C4F20001884276
:102800002ED1FFE744F25440C5F60200006800F004
:10281000070001460F9105281DD80F99DFE801F048
:1028200003070B0F131700208DF86D0017E004202D
:102830008DF86D0013E008208DF86D000FE010207A
:102840008DF86D000BE020208DF86D0007E0402032
:102850008DF86D0003E080208DF86D00FFE734E215
:102860001D98006844F60001C4F2000188422ED190
:10287000FFE744F25440C5F60200006800F007008C
:1028800001460E9105281DD80E99DFE801F00307D7
:102890000B0F131700208DF86D0017E004208DF842
:1028A0006D0013E008208DF86D000FE010208DF80A
:1028B0006D000BE020208DF86D0007E040208DF8C2
:1028C0006D0003E080208DF86D00FFE7FCE11D98AE
:1028D000006844F60041C4F2000188422ED1FFE7AF
:1028E00044F25440C5F60200006800F007000146BB
:1028F0000D9105281DD80D99DFE801F003070B0F96
:10290000131700208DF86D0017E004208DF86D007E
:1029100013E008208DF86D000FE010208DF86D0099
:102920000BE020208DF86D0007E040208DF86D0051
:1029300003E080208DF86D00FFE7C4E11D9800687A
:1029400045F20001C4F2000188422ED1FFE744F2B3
:102950005440C5F60200006800F0070001460C91E3
:1029600005281DD80C99DFE801F003070B0F13179A
:1029700000208DF86D0017E004208DF86D0013E045
:1029800008208DF86D000FE010208DF86D000BE031
:1029900020208DF86D0007E040208DF86D0003E0E9
:1029A00080208DF86D00FFE78CE11D98006841F2F2
:1029B0000041C4F20101884240F04180FFE744F247
:1029C0005440C5F60200006800F0380001460B9143
:1029D00028282FD80B99DFE801F0152D2D2D2D2D4E
:1029E0002D2D192D2D2D2D2D2D2D1D2D2D2D2D2D3B
:1029F0002D2D212D2D2D2D2D2D2D252D2D2D2D2D1B
:102A00002D2D290001208DF86D0017E004208DF890
:102A10006D0013E008208DF86D000FE010208DF898
:102A20006D000BE020208DF86D0007E040208DF850
:102A30006D0003E080208DF86D00FFE741E11D98F7
:102A4000006847F60001C4F2000188422ED1FFE77A
:102A500044F25440C5F60200006800F00700014649
:102A60000A9105281DD80A99DFE801F003070B0F2A
:102A7000131700208DF86D0017E004208DF86D000D
:102A800013E008208DF86D000FE010208DF86D0028
:102A90000BE020208DF86D0007E040208DF86D00E0
:102AA00003E080208DF86D00FFE709E11D980068C4
:102AB00047F60041C4F2000188422ED1FFE744F2FC
:102AC0005440C5F60200006800F007000146099175
:102AD00005281DD80999DFE801F003070B0F13172C
:102AE00000208DF86D0017E004208DF86D0013E0D4
:102AF00008208DF86D000FE010208DF86D000BE0C0
:102B000020208DF86D0007E040208DF86D0003E077
:102B100080208DF86D00FFE7D1E01D98006841F638
:102B20000001C4F20101884240F04180FFE744F215
:102B30005440C5F60200006800F0380001460891D4
:102B400028282FD80899DFE801F0152D2D2D2D2DDF
:102B50002D2D192D2D2D2D2D2D2D1D2D2D2D2D2DC9
:102B60002D2D212D2D2D2D2D2D2D252D2D2D2D2DA9
:102B70002D2D290001208DF86D0017E004208DF81F
:102B80006D0013E008208DF86D000FE010208DF827
:102B90006D000BE020208DF86D0007E040208DF8DF
:102BA0006D0003E080208DF86D00FFE786E01D9842
:102BB000006841F60041C4F20101884240F04180C2
:102BC000FFE744F25440C5F60200006800F0380008
:102BD0000146079128282FD80799DFE801F0152D25
:102BE0002D2D2D2D2D2D192D2D2D2D2D2D2D1D2D39
:102BF0002D2D2D2D2D2D212D2D2D2D2D2D2D252D19
:102C00002D2D2D2D2D2D290001208DF86D0017E083
:102C100004208DF86D0013E008208DF86D000FE0A2
:102C200010208DF86D000BE020208DF86D0007E07E
:102C300040208DF86D0003E080208DF86D00FFE7E7
:102C40003BE01D98006840F60041C5F6000188424F
:102C50002ED1FFE744F25840C5F60200006800F0AC
:102C600007000146069105281DD80699DFE801F006
:102C700003070B0F131702208DF86D0017E00420D7
:102C80008DF86D0013E008208DF86D000FE0102026
:102C90008DF86D000BE020208DF86D0007E04020DE
:102CA0008DF86D0003E080208DF86D00FFE703E0F4
:102CB00080208DF86D00FFE7FFE7FFE7FFE7FFE704
:102CC000FFE7FFE7FFE7FFE7FFE7FFE7FFE71D9805
:102CD000006840F60041C5F60001884240F0B4802B
:102CE000FFE79DF86D0001460591022814D0FFE72B
:102CF0000598042814D0FFE70598082816D0FFE7A8
:102D00000598102818D0FFE70598202835D0FFE750
:102D10000598402837D03AE0FDF08EFC11903CE059
:102D200015A8FDF76DFD1698119036E012A8FDF07C
:102D300097FC1398119030E044F20040C5F6020071
:102D4000006800F020010020B0EB511F0ED0FFE71B
:102D500044F20040C5F602000068C0F3C10149F228
:102D60000000C0F2D030C840119005E049F20000E8
:102D7000C0F2D0301190FFE70FE040F60010C0F233
:102D80003D00119009E04FF40040119005E0002053
:102D9000119001208DF86700FFE71198002852D0AC
:102DA000FFE711981D994A6A43F27C11C0F61001A1
:102DB00031F81210B0FBF1F0189018981D9949687D
:102DC00001EB4101884207D3FFE718981D99496834
:102DD000B0EB013F04D9FFE701208DF8670031E037
:102DE00011981D994A6803924A6A43F27C11C0F611
:102DF000100131F81220002304931946FDF7B2FAAE
:102E0000039A049B090241EA1061000210EB520090
:102E100041F10001FDF7A6FA1A901A98B0F5407F2B
:102E20000BD3FFE71A990020B0EB115F05D1FFE744
:102E30001A981D990968C86003E001208DF86700A1
:102E4000FFE7FFE7FFE746E11D98C069B0F5004FD7
:102E500040F0A880FFE79DF86D00014602914028F0
:102E600000F263800299DFE801F0212560602960AB
:102E700060602F60606060606060356060606060AE
:102E8000606060606060606060605660606060604C
:102E90006060606060606060606060606060606032
:102EA000606060606060606060605C00FEF0B8FF61
:102EB000119040E0FDF7FCFD11903CE015A8FDF7F6
:102EC0009FFC1698119036E012A8FDF0C9FB1398EC
:102ED000119030E044F20040C5F60200006800F0B6
:102EE00020010020B0EB511F0ED0FFE744F200405C
:102EF000C5F602000068C0F3C10149F20000C0F24B
:102F0000D030C840119005E049F20000C0F2D03046
:102F10001190FFE70FE040F60010C0F23D00119065
:102F200009E04FF40040119005E0002011900120CD
:102F30008DF86700FFE7119898B3FFE711981D9A85
:102F40005168536A43F27C12C0F6100232F8132023
:102F5000B0FBF2F0400000EB5100B0FBF1F01A9032
:102F60001A98102818D3FFE7BDF86A00A0B9FFE748
:102F70001A9820F00F00ADF86E001A9800F00E01BC
:102F8000BDF86E0040EA5100ADF86E00BDF86E006D
:102F90001D990968C86003E001208DF86700FFE70C
:102FA000FFE797E09DF86D0001460191402800F28F
:102FB00063800199DFE801F021256060296060608D
:102FC0002F6060606060606035606060606060605D
:102FD00060606060606060605660606060606060FB
:102FE00060606060606060606060606060606060E1
:102FF00060606060606060605C00FEF011FF1190D6
:1030000040E0FDF755FD11903CE015A8FDF7F8FBF9
:103010001698119036E012A8FDF022FB139811903B
:1030200030E044F20040C5F60200006800F02001E4
:103030000020B0EB511F0ED0FFE744F20040C5F670
:1030400002000068C0F3C10149F20000C0F2D030B4
:10305000C840119005E049F20000C0F2D030119054
:10306000FFE70FE040F60010C0F23D00119009E0CC
:103070004FF40040119005E00020119001208DF8E0
:103080006700FFE7119820B3FFE711981D9A516878
:10309000536A43F27C12C0F6100232F81320B0FBE0
:1030A000F2F000EB5100B0FBF1F01A901A981028E2
:1030B0000AD3FFE7BDF86A0030B9FFE7BDF8680042
:1030C0001D990968C86003E001208DF86700FFE7DB
:1030D000FFE7FFE7FFE71D990120A1F86A001D99AE
:1030E000A1F868001D99002048671D9988679DF820
:1030F00067001EB080BD0000FFE7FEE70000000093
:1031000081B0ADF80200BDF9020000280ED4FFE73F
:10311000BDF9021001F01F02012090404A094EF251
:103120000011CEF2000141F82200FFE701B0704724
:103130004EF60C50CEF200000068C0F3022070473B
:1031400082B0ADF806000091BDF9060000280AD44F
:10315000FFE700980001BDF906104EF20042CEF2E2
:10316000000288540BE000980001BDF8061001F041
:103170000F014EF61452CEF200028854FFE702B05F
:10318000704700000000000083B00290029800F039
:10319000070000904EF60C51CEF200010868019035
:1031A00001984FF6FF02104001900198009A40EA02
:1031B00002200022C0F2FA521043019001980860E8
:1031C00003B070470000000080B582B0002001907D
:1031D000FDF71EFAFEF760FEFFF042FCFEF788FEE8
:1031E000FFF056FAFFF074FAFFF0AAFAFEF738FF84
:1031F000FEF776FFFFF0E8FAFFE7FEE7F1EE100AD0
:103200004FF6FF71C0F2C03120EA010040F040707B
:10321000E1EE100A70470000000001020304010201
:10322000030406070809080402040801010100005C
:10323000503200080000002410000000E8020008DE
:103240006032000810000024D008000004030008C9
:103250000090D0030090D003010000001000000097
:020000040810E2
:100000001FB503F7FBF81FBD00F034F81146FFF7EA
:10001000F7FF03F7D9F800F052F803B400F780F9BE
:1000200003BC00F055F84FF0000200B513469446AB
:100030009646203922BFA0E80C50A0E80C50B1F140
:100040002001BFF4F7AF090728BFA0E80C5048BF54
:100050000CC05DF804EB890028BF40F8042B08BFF2
:10006000704748BF20F8022B11F0804F18BF00F8EE
:10007000012B7047754600F7F1F9AE460500694659
:10008000534620F00700854618B020B500F758F910
:10009000BDE820404FF000064FF000074FF0000889
:1000A0004FF0000BAC46ACE8C009ACE8C009ACE8C6
:1000B000C009ACE8C00921F007018D46704710B5B2
:1000C0000446AFF300802046BDE81040FFF7A5BF0F
:1000D00001491820ABBEFEE7260002007047000071
:1000E000FFE7FEE70000000081B0EFF3108072B67A
:1000F0000090FFE7FEE7000082B0019001980068E1
:1001000046F60001C5F60001884210D1FFE7FFE77F
:1001100044F25450C5F60200016841F0806101606C
:10012000006800F0806000900098FFE7FFE702B0F1
:10013000704700000000000090B00F900E9100206A
:100140000D908020C5F600000A90FFE70E98006829
:100150000D99C840002800F0CF81FFE70E98006895
:100160000D9A0121914008400C900C98002800F055
:10017000BF81FFE70E98406800F00300012807D018
:10018000FFE70E98406800F0030002282FD1FFE738
:100190000F9880680B900D984100032000FA01F140
:1001A0000B9888430B900E98C0680D99490000FA8F
:1001B00001F10B9808430B900B980F9988600F98EA
:1001C00040680B900D99012000FA01F10B988843CB
:1001D0000B900E984068C0F300100D9900FA01F1E1
:1001E0000B9808430B900B980F994860FFE70E9807
:1001F000406800F00300032818D0FFE70F98C0689C
:100200000B900D984100032000FA01F10B988843F0
:100210000B900E9880680D99490000FA01F10B9837
:1002200008430B900B980F99C860FFE70E98406841
:1002300000F00300022826D1FFE70F980D996FF018
:10024000030202EA51010844006A0B900D9800F085
:10025000070081000F2000FA01F10B9888430B90F2
:100260000E9800690D9901F00701890000FA01F16B
:100270000B9808430B900B980F990D9B02EA5302C1
:1002800011440862FFE70F9800680B900D98410039
:10029000032000FA01F10B9888430B900E984068F8
:1002A00000F003000D99490000FA01F10B98084392
:1002B0000B900B980F9908600E98807980070028A2
:1002C00000F01581FFE7FFE744F25450C5F6020045
:1002D000016841F002010160006800F0020009902D
:1002E0000998FFE70D9820F0030040F20841C5F699
:1002F000000140580B900D9800F0030081000F2082
:1003000000FA01F10B9888430B900F980021C5F675
:100310000201884203D1FFE7002008907AE00F989D
:1003200040F20041C5F60201884203D1FFE70120F7
:1003300007906CE00F9840F60001C5F60201884274
:1003400003D1FFE7022006905EE00F9840F60041DF
:10035000C5F60201884203D1FFE70320059050E073
:100360000F9841F20001C5F60201884203D1FFE770
:100370000420049042E00F9841F20041C5F60201CA
:10038000884203D1FFE70520039034E00F9841F63F
:100390000001C5F60201884203D1FFE70620029062
:1003A00026E00F9841F60041C5F60201884203D1CC
:1003B000FFE70720019018E00F9842F20001C5F610
:1003C0000201884203D1FFE7082000900AE00F995C
:1003D00042F20042C5F602020A20914208BF0920FB
:1003E0000090FFE700980190FFE701980290FFE777
:1003F00002980390FFE703980490FFE704980590A4
:10040000FFE705980690FFE706980790FFE7079833
:100410000890FFE708980D9901F00301890000FAA0
:1004200001F10B9808430B900B980D9921F00301F3
:1004300040F20842C5F6000288504FF0B040006814
:100440000B900C990B9888430B900E988079C006FE
:10045000002805D5FFE70C990B9808430B90FFE7A0
:100460000B984FF0B04108600420C5F6000000680A
:100470000B900C990B9888430B900E98807980060E
:10048000002805D5FFE70C990B9808430B90FFE770
:100490000B980421C5F6000108600A9840680B908B
:1004A0000C990B9888430B900E9880798007002850
:1004B00005D5FFE70C990B9808430B90FFE70B98C5
:1004C0000A9948600A9800680B900C990B98884329
:1004D0000B900E988079C00728B1FFE70C990B9814
:1004E00008430B90FFE70B980A990860FFE7FFE7C6
:1004F0000D9801300D9029E610B070470000000003
:1005000080B582B00190019840784EF69851CEF2B5
:10051000000108600198007898B3FFE701984068EF
:100520004EF69C51CEF200010860DDF804C0CDF813
:1005300000C09CF80C0000079CF80B1040EA01601A
:100540009CF800109CF808209CF809309CF80AE000
:1005500040EACE409CF80DE040EA8E409CF80EE068
:1005600040EA4E409CF80FC040EA0C4040EA0320AD
:1005700040EA420008434EF6A051CEF20001086066
:100580000BE04EF69C51CEF20001002008604EF6C2
:10059000A051CEF200010860FFE702B080BD00006C
:1005A000BFF35F8F4EF62451CEF20001086820F4AD
:1005B000803008604EF69451CEF2000100200860B1
:1005C000704700000000000081B00090009840F0EB
:1005D00001004EF69451CEF2000108604EF624510F
:1005E000CEF20001086840F480300860BFF34F8FFE
:1005F000BFF36F8F01B0704780B586B0ADF81600BD
:100600000491039202F794FD0290BDF91600019047
:1006100002980499039A01F7B3FD0146019802F785
:100620008FFD06B080BD000080B582B001900198BA
:1006300002F7AAFD02B080BD80B501F0C5FB44F20F
:100640002041C5F602010968C1F3021243F21621E6
:10065000C0F60001895C01F01F01C84080BD0000A8
:1006600088B0079044F22840C5F60200016801F006
:10067000030106910068C0F30550059044F22C4038
:10068000C5F602000068C0F300200490049844F20C
:100690004441C5F60201096889B2C908484300EE21
:1006A000100AB8EE400A8DED020A0598002800F005
:1006B0001B81FFE70698009048B1FFE700980128EA
:1006C00069D0FFE70098022800F08980ABE044F28F
:1006D0000040C5F60200006800F020010020B0EBE9
:1006E000511F33D0FFE744F20040C5F60200006816
:1006F000C0F3C10149F20000C0F2D030C8400390FD
:100700009DED030AB8EE400A9DED051AB8EE411AB8
:1007100080EE010A44F24040C5F6020000686FF323
:100720005F2001EE100AB8EE411A9DED022A9FEDFE
:10073000743A82EE032A31EE021AB7EE002A31EE45
:10074000021A20EE010A8DED010A23E09DED050A53
:10075000B8EE401A9FED6C0A80EE010A44F2404068
:10076000C5F6020000686FF35F2001EE100AB8EED4
:10077000411A9DED022A9FED623A82EE032A31EE84
:10078000021AB7EE002A31EE021A20EE010A8DEDB0
:10079000010AFFE76BE09DED050AB8EE401A9FEDF8
:1007A000590A80EE010A44F24040C5F60200006892
:1007B0006FF35F2001EE100AB8EE411A9DED022A98
:1007C0009FED4F3A82EE032A31EE021AB7EE002A6D
:1007D00031EE021A20EE010A8DED010A47E09DED8F
:1007E000050AB8EE401A9FED450A80EE010A44F270
:1007F0004040C5F6020000686FF35F2001EE100A6A
:10080000B8EE411A9DED022A9FED3D3A82EE032A91
:1008100031EE021AB7EE002A31EE021A20EE010A7A
:100820008DED010A23E09DED050AB8EE401A9FED1B
:10083000350A80EE010A44F24040C5F60200006825
:100840006FF35F2001EE100AB8EE411A9DED022A07
:100850009FED2B3A82EE032A31EE021AB7EE002A00
:1008600031EE021A20EE010A8DED010AFFE79DED3F
:10087000010A44F24040C5F60200016889B2490A03
:1008800001EE101AB8EE411AB7EE002A31EE021A44
:1008900080EE010A0799BCEEC00A81ED000A9DEDC9
:1008A000010A0168C1F3064101EE101AB8EE411ABF
:1008B00031EE021A80EE010A0799BCEEC00A81ED02
:1008C000010A9DED010A0068C0F3066001EE100AFE
:1008D000B8EE411A31EE021A80EE010A0798BCEE1A
:1008E000C00A80ED020A07E0079900200860079916
:1008F000486007998860FFE708B070470024F44A11
:10090000000000460024744A0024744C00000000DB
:1009100080B59AB0189000208DF857008DF85600D9
:100920001898C0780007002848D5FFE71898C06ECF
:10093000149078B1FFE71498B0F5801F13D0FFE74B
:100940001498B0F5001F16D0FFE71498B0F5401FBB
:1009500019D019E044F22C41C5F60201086840F4B0
:100960000030086014E018980830022101F078FF88
:100970008DF857000CE018982830022101F73CFC54
:100980008DF8570004E003E001208DF85700FFE7E1
:100990009DF8570060B9FFE744F25041C5F60201E7
:1009A000086820F44010189AD26E1043086004E0E2
:1009B0009DF857008DF85600FFE7FFE7189840783C
:1009C000C007002840D0FFE71898806D13900428D6
:1009D00020D81399DFE801F0030C141C1D0044F229
:1009E0002C41C5F60201086840F40030086015E0AB
:1009F00018980830002101F033FF8DF857000DE002
:100A000018982830002101F7F7FB8DF8570005E012
:100A100004E003E001208DF85700FFE79DF8570040
:100A200060B9FFE744F25041C5F60201086820F0C2
:100A30000700189A926D1043086004E09DF8570073
:100A40008DF85600FFE7FFE71898407880070028E8
:100A500051D5FFE71898C06D1290B0B1FFE712981A
:100A600040281BD0FFE7129880281FD0FFE712987C
:100A7000C02823D0FFE71298B0F5807F1FD0FFE792
:100A80001298B0F5A07F1BD01BE044F22C41C5F6B4
:100A90000201086840F40030086016E01898083039
:100AA000002101F0DDFE8DF857000EE01898283087
:100AB000002101F7A1FB8DF8570006E005E004E0F6
:100AC00003E001208DF85700FFE79DF8570060B95B
:100AD000FFE744F25041C5F60201086820F4E070D7
:100AE000189AD26D1043086004E09DF857008DF805
:100AF0005600FFE7FFE7189840784007002854D5D4
:100B0000FFE71898006E1190C8B1FFE71198B0F593
:100B1000007F1DD0FFE71198B0F5806F20D0FFE770
:100B20001198B0F5C06F23D0FFE71198B0F5006FB2
:100B30001FD0FFE71198B0F5206F1BD01BE044F2E7
:100B40002C41C5F60201086840F40030086016E048
:100B500018980830002101F083FE8DF857000EE050
:100B600018982830002101F747FB8DF8570006E060
:100B700005E004E003E001208DF85700FFE79DF851
:100B8000570060B9FFE744F25041C5F6020108681A
:100B900020F46060189A126E1043086004E09DF81B
:100BA00057008DF85600FFE7FFE71898C0788007D8
:100BB00000283ED5FFE71898C06C1090F0B1FFE711
:100BC0001098102808D0FFE7109820280DD0FFE7D4
:100BD0001098302811D012E044F22C41C5F60201E1
:100BE000086840F4003008600DE0189808300221D1
:100BF00001F036FE8DF8570005E004E003E0012027
:100C00008DF85700FFE79DF8570060B9FFE744F201
:100C10004C41C5F60201086820F03000189AD26CE9
:100C20001043086004E09DF857008DF85600FFE778
:100C3000FFE718984078C00600284ED5FFE71898BF
:100C4000406E0F90A0B1FFE70F98B0F5805F18D00D
:100C5000FFE70F98B0F5005F1BD0FFE70F98B0F5E6
:100C6000405F1ED0FFE70F98B0F5804F1AD01AE012
:100C700044F22C41C5F60201086840F400300860D7
:100C800015E018980830002101F0EAFD8DF85700B2
:100C90000DE018982830002101F7AEFA8DF85700C2
:100CA00005E004E003E001208DF85700FFE79DF820
:100CB000570060B9FFE744F25041C5F602010868E9
:100CC00020F4E040189A526E1043086004E09DF84A
:100CD00057008DF85600FFE7FFE718984078800628
:100CE00000284CD5FFE71898806E0E90C8B1FFE73A
:100CF0000E98B0F5803F15D0FFE70E98B0F5003F95
:100D000018D0FFE70E98B0F5403F1BD0FFE70E98D4
:100D1000B0F5802F17D0FFE70E98B0F5A02F13D0B5
:100D200013E016E018980830012101F099FD8DF8C4
:100D300057000EE018982830012101F75DFA8DF870
:100D4000570006E005E004E003E001208DF85700BD
:100D5000FFE79DF8570060B9FFE744F25041C5F640
:100D60000201086820F4E020189A926E104308608F
:100D700004E09DF857008DF85600FFE7FFE718984C
:100D800040784006002854D5FFE71898D0F8B00006
:100D90000D90F0B1FFE70D98B0F1805F1AD0FFE73A
:100DA0000D98B0F1005F1DD0FFE70D98B0F1405FE6
:100DB00020D0FFE70D98B0F1804F1CD0FFE70D98D1
:100DC000B0F1A04F18D0FFE70D98B0F1C04F14D08C
:100DD00014E017E018980830012101F041FD8DF86A
:100DE00057000FE018982830012101F705FA8DF817
:100DF000570007E006E005E004E003E001208DF87D
:100E00005700FFE79DF8570068B9FFE744F25841E3
:100E1000C5F60201086820F0E040189AD2F8B02028
:100E20001043086004E09DF857008DF85600FFE776
:100E3000FFE718984078000600283BD5FFE7189890
:100E4000806F0C90D8B1FFE70C98B0F1805F05D0AF
:100E5000FFE70C98B0F1005F09D011E044F22C419B
:100E6000C5F60201086840F4003008600CE01898EC
:100E70000830012101F0F4FC8DF8570004E003E094
:100E800001208DF85700FFE79DF8570060B9FFE794
:100E900044F25041C5F60201086820F04050189A0B
:100EA000926F1043086004E09DF857008DF85600DB
:100EB000FFE7FFE71898C078C007002837D0FFE7A2
:100EC0001898806C0B90032817D80B99DFE801F075
:100ED00014020B1344F22C41C5F60201086840F4D9
:100EE000003008600DE018980830022101F0B8FCCD
:100EF0008DF8570005E004E003E001208DF857006D
:100F0000FFE79DF8570060B9FFE744F24C41C5F692
:100F10000201086820F00300189A926C10430860E0
:100F200004E09DF857008DF85600FFE7FFE718989A
:100F300080784006002840F1B480FFE744F60001C5
:100F4000C5F60201086840F480700860FFF648FBAF
:100F50001690FFE744F60000C5F602000068C005E1
:100F600000280CD4FFE7FFF63BFB1699401A6528D2
:100F700004D3FFE703208DF8570000E0EAE79DF86F
:100F80005700002840F08780FFE744F27040C5F624
:100F90000200006800F440701899D1F8B41001F410
:100FA0004071884213D0FFE744F27041C5F6020158
:100FB000086820F440701790086840F4803008609A
:100FC000086820F48030086017980860FFE71898D8
:100FD000D0F8B400B0F5807F1FD1FFE7FFF600FB2B
:100FE0001690FFE744F27040C5F60200006800F07A
:100FF00002010020B0EB510F0ED1FFE7FFF6F0FA2F
:101000001699401A41F28931884204D3FFE7032040
:101010008DF8570000E0E5E7FFE79DF85700A0BB1B
:10102000FFE7FFE71898D0F8B40000F44070B0F57F
:10103000407F13D1FFE744F21041C5F60201086872
:1010400020F47C50189AD2F8B4204FF6F043C0F642
:10105000FF731A4040EA1210086008E044F21041A1
:10106000C5F60201086820F47C500860FFE7189874
:10107000D0F8B4206FF31F3244F27041C5F602017C
:10108000086810430860FFE704E09DF857008DF8FA
:101090005600FFE704E09DF857008DF85600FFE783
:1010A000FFE718980068C007002800F04E80FFE7AF
:1010B0001898D0F884000A9028282BD80A99DFE8DD
:1010C00001F0152929292929292916292929292918
:1010D00029291E292929292929292629292929298E
:1010E00029292729292929292929280016E018989A
:1010F0000830012101F0B4FB8DF857000EE018987C
:101100002830012101F778F88DF8570006E005E056
:1011100004E003E001208DF85700FFE79DF8570039
:1011200068B9FFE744F25441C5F60201086820F0AF
:101130003800189AD2F884201043086004E09DF823
:1011400057008DF85600FFE7FFE7189800788007F2
:1011500000283BD5FFE71898D0F8800009900528B3
:1011600019D80999DFE801F003040C14151616E0EC
:1011700018980830012101F073FB8DF857000EE03C
:1011800018982830012101F737F88DF8570006E04C
:1011900005E004E003E001208DF85700FFE79DF82B
:1011A000570068B9FFE744F25441C5F602010868E8
:1011B00020F00700189AD2F880201043086004E05D
:1011C0009DF857008DF85600FFE7FFE71898007864
:1011D000400700283BD5FFE71898D0F89C000890FE
:1011E000052819D80899DFE801F003040C14151636
:1011F00016E018980830012101F032FB8DF85700F5
:101200000EE018982830012100F7F6FF8DF85700FE
:1012100006E005E004E003E001208DF85700FFE759
:101220009DF8570068B9FFE744F25841C5F602013E
:10123000086820F00700189AD2F89C201043086034
:1012400004E09DF857008DF85600FFE7FFE7189877
:101250000078800600284ED5FFE71898D0F898004F
:101260000790C8B1FFE70798B0F1805F15D0FFE79E
:101270000798B0F1005F18D0FFE70798B0F1405F22
:101280001BD0FFE70798B0F1804F17D0FFE7079812
:10129000B0F1A04F13D013E016E0189808300021E9
:1012A00001F0DEFA8DF857000EE018982830022180
:1012B00000F7A2FF8DF8570006E005E004E003E028
:1012C00001208DF85700FFE79DF8570068B9FFE748
:1012D00044F25441C5F60201086820F0E040189A33
:1012E000D2F898201043086004E09DF857008DF86C
:1012F0005600FFE7FFE718980078400600284ED513
:10130000FFE71898D0F8A4000690C8B1FFE7069848
:10131000B0F5806F15D0FFE70698B0F5006F18D0D4
:10132000FFE70698B0F5406F1BD0FFE70698B0F5D1
:10133000805F17D0FFE70698B0F5A05F13D013E0E9
:1013400016E018980830002101F08AFA8DF857004D
:101350000EE018982830022100F74EFF8DF8570054
:1013600006E005E004E003E001208DF85700FFE708
:101370009DF8570068B9FFE744F25841C5F60201ED
:10138000086820F4E050189AD2F8A42010430860AE
:1013900004E09DF857008DF85600FFE7FFE7189826
:1013A0000078000600284ED5FFE71898D0F8A8006E
:1013B0000590C8B1FFE70598B0F5005F15D0FFE7CD
:1013C0000598B0F5804F18D0FFE70598B0F5C04FED
:1013D0001BD0FFE70598B0F5004F17D0FFE7059841
:1013E000B0F5204F13D013E016E018980830002114
:1013F00001F036FA8DF857000EE0189828300221D7
:1014000000F7FAFE8DF8570006E005E004E003E07F
:1014100001208DF85700FFE79DF8570068B9FFE7F6
:1014200044F25841C5F60201086820F46040189A59
:10143000D2F8A8201043086004E09DF857008DF80A
:101440005600FFE7FFE7189800780007002820D52E
:10145000FFE71898D0F88C00B0F5805F0CD1FFE75B
:1014600018982830022100F7C7FE20B1FFE70120BD
:101470008DF85600FFE7FFE744F25441C5F602013C
:10148000086820F44050189AD2F88C201043086065
:10149000FFE718980078C006002820D5FFE71898C5
:1014A000D0F8A000B0F5807F0CD1FFE71898283065
:1014B000022100F7A1FE20B1FFE701208DF85600C0
:1014C000FFE7FFE744F25841C5F60201086820F43F
:1014D0004070189AD2F8A02010430860FFE71898CF
:1014E0008078000700283CD5FFE71898D0F8AC00BA
:1014F000049050B1FFE70498B0F5803F0DD0FFE7AE
:101500000498B0F5003F10D010E018980830002182
:1015100001F0A6F98DF857000CE018982830022148
:1015200000F76AFE8DF8570004E003E001208DF813
:101530005700FFE79DF8570068B9FFE744F25841AC
:10154000C5F60201086820F44030189AD2F8AC20A1
:101550001043086004E09DF857008DF85600FFE73F
:10156000FFE718988078400700283FD5FFE71898D4
:10157000D0F890000390B0F5801F0AD0FFE70398E1
:10158000B0F5001F0ED0FFE70398B0F5401F11D053
:1015900011E044F22C41C5F60201086840F4003025
:1015A00008600CE018982830012100F725FE8DF81E
:1015B000570004E003E001208DF85700FFE79DF895
:1015C000570068B9FFE744F25441C5F602010868C4
:1015D00020F44010189AD2F890201043086004E0DC
:1015E0009DF857008DF85600FFE7FFE718988078C0
:1015F000C007A8B3FFE71898006D029028B1FFE775
:101600000298B0F5803F09D010E044F22C41C5F6B5
:101610000201086840F4003008600BE018980830B8
:10162000022101F01DF98DF8570003E001208DF82B
:101630005700FFE79DF8570060B9FFE744F24C41BF
:10164000C5F60201086820F48030189A126D104324
:10165000086004E09DF857008DF85600FFE7FFE7AB
:101660001898C078800600280CD5FFE71898283015
:10167000022100F7C1FD20B1FFE701208DF85600DF
:10168000FFE7FFE718988078800700283CD5FFE740
:101690001898D0F888000190D0B1FFE70198B0F514
:1016A000807F0AD0FFE70198B0F5007F0ED0FFE7FA
:1016B0000198B0F5407F0AD00BE044F22C41C5F60A
:1016C0000201086840F40030086006E005E004E02C
:1016D00003E001208DF85700FFE79DF8570068B937
:1016E000FFE744F25441C5F60201086820F4407057
:1016F000189AD2F888201043086004E09DF857003B
:101700008DF85600FFE7FFE718988078C00600289C
:101710000CD5FFE744F25041C5F60201086820F0FD
:101720000040189AD26F10430860FFE7189880783D
:10173000800600280CD5FFE744F25041C5F60201AF
:10174000086820F08070189A126F10430860FFE755
:1017500018984078000700280CD5FFE744F258415C
:10176000C5F60201086820F00060189A526F104315
:101770000860FFE71898C0784006002811D5FFE7F9
:10178000FFE744F21041C5F60201086820F400406A
:1017900008601898D0F8B820086810430860FFE780
:1017A000FFE71898C078000600280CD5FFE744F240
:1017B0004C41C5F60201086820F04050189A526D5D
:1017C00010430860FFE718988078000600280DD5C0
:1017D000FFE744F25441C5F60201086820F44000D6
:1017E000189AD2F8942010430860FFE718980079FF
:1017F000C00790B1FFE718980830002101F030F8D9
:101800008DF857009DF8570008B9FFE704E09DF8F0
:1018100057008DF85600FFE7FFE71898007980071A
:10182000002812D5FFE718980830012101F018F8B8
:101830008DF857009DF8570008B9FFE704E09DF8C0
:1018400057008DF85600FFE7FFE71898007940072A
:10185000002812D5FFE718980830022101F000F89F
:101860008DF857009DF8570008B9FFE704E09DF890
:1018700057008DF85600FFE7FFE71898007900073A
:10188000002812D5FFE718982830002100F7B4FC93
:101890008DF857009DF8570008B9FFE704E09DF860
:1018A00057008DF85600FFE7FFE718980079C0064B
:1018B000002812D5FFE718982830012100F79CFC7A
:1018C0008DF857009DF8570008B9FFE704E09DF830
:1018D00057008DF85600FFE7FFE71898007980065B
:1018E000002812D5FFE718982830022100F784FC61
:1018F0008DF857009DF8570008B9FFE704E09DF800
:1019000057008DF85600FFE7FFE79DF8560020B915
:10191000FFE700208DF8670003E001208DF86700E5
:10192000FFE79DF867001AB080BD000000000000CE
:1019300080B586B004900391049820B9FFE7012098
:101940008DF817003CE2039842F20001C5F2002135
:10195000096801F00F01884216D9FFE742F2000042
:10196000C5F20020016821F00F01039A11430160C4
:10197000006800F00F000399884204D0FFE70120BF
:101980008DF817001CE2FFE7049800784007002854
:1019900019D5FFE70498006944F21841C5F6020121
:1019A000096801F0700188420CD9FFE744F2184140
:1019B000C5F60201086820F07000049A126910430D
:1019C0000860FFE7FFE7049800780007002819D5B2
:1019D000FFE70498406944F21C41C5F6020109681A
:1019E00001F0700188420CD9FFE744F21C41C5F6B2
:1019F0000201086820F07000049A526910430860E0
:101A0000FFE7FFE704980078C006002819D5FFE734
:101A10000498806944F21C41C5F60201096801F48A
:101A2000E06188420CD9FFE744F21C41C5F602018F
:101A3000086820F4E060049A926910430860FFE7A8
:101A4000FFE7049800788006002819D5FFE704987E
:101A5000C06944F22041C5F60201096801F0700135
:101A600088420CD9FFE744F22041C5F6020108681C
:101A700020F07000049AD26910430860FFE7FFE786
:101A8000049800788007002819D5FFE70498C068FB
:101A900044F21841C5F60201096801F00F018842BD
:101AA0000CD9FFE744F21841C5F60201086820F09E
:101AB0000F00049AD26810430860FFE7FFE704981C
:101AC0000078C007002800F08C80FFE744F218413E
:101AD000C5F60201086820F47060049A9268104309
:101AE000086004984068022811D1FFE744F20040E2
:101AF000C5F60200006800F400310020B0EB514F41
:101B000004D1FFE701208DF8170059E13EE0049869
:101B10004068032811D1FFE744F20040C5F60200F7
:101B2000006800F000710020B0EB516F04D1FFE7B6
:101B300001208DF8170043E127E004984068012850
:101B400011D1FFE744F20040C5F60200006800F43E
:101B500080710020B0EB112F04D1FFE701208DF838
:101B600017002DE110E044F20040C5F602000068C5
:101B700000F004010020B0EB910F04D1FFE7012039
:101B80008DF817001CE1FFE7FFE7FFE744F2104183
:101B9000C5F60201086820F00700049A5268104355
:101BA0000860FEF61DFD0190FFE744F21040C5F607
:101BB0000200006800F0380004994968B0EBC10FDA
:101BC0000ED0FFE7FEF60CFD0199401A41F2893173
:101BD000884204D3FFE703208DF81700F0E0E4E724
:101BE000FFE7049800788007002819D5FFE70498DC
:101BF000C06844F21841C5F60201096801F00F01FE
:101C000088420CD2FFE744F21841C5F60201086889
:101C100020F00F00049AD26810430860FFE7FFE746
:101C2000039842F20001C5F20021096801F00F019A
:101C3000884216D2FFE742F20000C5F20020016898
:101C400021F00F01039A11430160006800F00F00BA
:101C50000399884204D0FFE701208DF81700AFE018
:101C6000FFE7049800784007002819D5FFE704989B
:101C7000006944F21841C5F60201096801F07001DB
:101C800088420CD2FFE744F21841C5F60201086809
:101C900020F07000049A126910430860FFE7FFE724
:101CA000049800780007002819D5FFE704984069D8
:101CB00044F21C41C5F60201096801F07001884236
:101CC0000CD2FFE744F21C41C5F60201086820F07F
:101CD0007000049A526910430860FFE7FFE7049818
:101CE0000078C006002819D5FFE70498806944F2FF
:101CF0001C41C5F60201096801F4E06188420CD27A
:101D0000FFE744F21C41C5F60201086820F4E060D8
:101D1000049A926910430860FFE7FFE7049800788F
:101D20008006002819D5FFE70498C06944F22041D5
:101D3000C5F60201096801F0700188420CD2FFE784
:101D400044F22041C5F60201086820F07000049AB0
:101D5000D26910430860FFE7FFE7FEF6BDFE44F2DC
:101D60001842C5F602021168C1F3032343F216219B
:101D7000C0F60001CB5C03F01F03D8400090009830
:101D8000126802F00F02895C01F01F01C84040F2A6
:101D90000401C2F200410860009840F20001C2F262
:101DA0000041086040F20C00C2F200400068FEF6FC
:101DB0006FFC8DF80B009DF80B008DF81700FFE706
:101DC0009DF8170006B080BD80B582B0FEF684FE97
:101DD00044F21842C5F602021168C1F3032343F22C
:101DE0001621C0F60001CB5C03F01F03D840019020
:101DF0000198126802F00F02895C01F01F0120FABD
:101E000001F140F20400C2F200400160019940F289
:101E10000002C2F200421160006802B080BD000002
:101E200080B5FFF7D1FF44F21C41C5F602010968F5
:101E3000C1F3021243F21621C0F60001895C01F0E1
:101E40001F01C84080BD000080B582B0019001989C
:101E500000F7BEFA02B080BD81B0009001B07047BB
:101E600085B003900291FFE7039890F83C000128A9
:101E700004D1FFE702208DF8130099E003990120B7
:101E800081F83C00FFE7FFE70399022081F83D005D
:101E9000039800684068019003980068806800908B
:101EA000039800680021C4F20101884209D0FFE7CD
:101EB0000398006840F20041C4F2010188420AD14F
:101EC000FFE7019820F470000190029841680198A2
:101ED00008430190FFE7019820F0700001900298FC
:101EE00001680198084301900198039909684860C6
:101EF000039800680021C4F2010188423CD0FFE74A
:101F000003980068B0F1804F36D0FFE7039800686F
:101F100040F20041C4F2000188422DD0FFE703984F
:101F2000006840F60001C4F20001884224D0FFE7B7
:101F30000398006840F60041C4F2000188421BD0BB
:101F4000FFE70398006840F20041C4F201018842B3
:101F500012D0FFE70398006841F60001C4F20001C7
:101F6000884209D0FFE70398006844F20001C4F2F8
:101F7000010188420ED1FFE7009820F08000009018
:101F800002988168009808430090009803990968B6
:101F90008860FFE70399012081F83D00FFE703997E
:101FA000002081F83C00FFE700208DF81300FFE7D8
:101FB0009DF8130005B0704780B582B0009000987E
:101FC00020B9FFE701208DF8070045E0009890F860
:101FD0003D0040B9FFE70099002081F83C000098DF
:101FE00000F03EF8FFE70099022081F83D000099DB
:101FF00051F8040B00F040FE0099012081F84800E0
:10200000FFE70099012081F83E00009981F83F0028
:10201000009981F84000009981F84100009981F809
:102020004200009981F84300FFE7FFE70099012093
:1020300081F84400009981F84500009981F8460034
:10204000009981F84700FFE70099012081F83D00E1
:1020500000208DF80700FFE79DF8070002B080BD63
:1020600080B584B00390039800680021C4F2010198
:10207000884219D1FFE7FFE744F25050C5F602004D
:10208000016841F001010160006800F00100029068
:102090000298FFE71920009000221146FEF7ACFAE3
:1020A0000098FEF64DFB16E003980068B0F1804FF3
:1020B00010D1FFE7FFE744F24850C5F6020001687F
:1020C00041F001010160006800F0010001900198F9
:1020D000FFE7FFE7FFE704B080BD0000000000005D
:1020E00080B586B00490039100208DF80B00FFE7C7
:1020F000049890F83C00012804D1FFE702208DF8F5
:102100001700D1E00499012081F83C00FFE7FFE7C8
:102110000499022081F83D000498006880680190CD
:1021200001984FF68871CFF6CE7108400190019862
:1021300020F47F4001900198049909688860039811
:1021400000680090002800F09580FFE700981028B4
:1021500000F09080FFE70098202800F08B80FFE7D8
:102160000098302800F08680FFE70098402874D05F
:10217000FFE70098502856D0FFE7009860285FD00E
:10218000FFE7009870282AD0FFE70098B0F5805F3D
:1021900024D0FFE70098B0F5005F35D0FFE7009846
:1021A000B0F5801F66D0FFE70098B0F1101F61D036
:1021B000FFE700982021C0F2100188425AD0FFE7C3
:1021C00000983021C0F21001884253D0FFE70098F8
:1021D0004021C0F2100188424CD052E055E00498F2
:1021E0000068039B5A689968DB6800F015FE049844
:1021F000006880680190019840F077000190019894
:1022000004990968886040E004980068039B5A6854
:102210009968DB6800F000FE04980168886840F463
:102220008040886031E004980068039A5168D26861
:1022300000F71EF904980068502100F701F924E026
:1022400004980068039A5168D26800F001FE04986F
:102250000068602100F7F4F817E004980068039A1A
:102260005168D26800F704F904980068402100F72B
:10227000E7F80AE0049800680399096800F7E0F8B5
:1022800003E001208DF80B00FFE70499012081F89D
:102290003D00FFE70499002081F83C00FFE79DF82E
:1022A0000B008DF81700FFE79DF8170006B080BD02
:1022B00081B0009001B0704780B582B00190019864
:1022C0000068006900F002010020B0EB510F28D037
:1022D000FFE701980068C06800F002010020B0EB41
:1022E000510F1DD0FFE7019801686FF002000861EF
:1022F000019901200877019800688069800720B162
:10230000FFE70198FFF7D4FF06E00198FFF67CFC99
:10231000019800F02DF9FFE7019900200877FFE709
:10232000FFE701980068006900F004010020B0EBAD
:10233000910F29D0FFE701980068C06800F0040100
:102340000020B0EB910F1ED0FFE7019801686FF0FD
:1023500004000861019902200877019800688069EB
:1023600010F4407F04D0FFE70198FFF7A1FF06E0DB
:102370000198FFF649FC019800F0FAF8FFE701998F
:1023800000200877FFE7FFE701980068006900F088
:1023900008010020B0EBD10F28D0FFE701980068BA
:1023A000C06800F008010020B0EBD10F1DD0FFE79E
:1023B000019801686FF0080008610199042008770E
:1023C00001980068C069800720B1FFE70198FFF716
:1023D0006FFF06E00198FFF617FC019800F0C8F8BF
:1023E000FFE7019900200877FFE7FFE70198006801
:1023F000006900F010010020B0EB111F29D0FFE7A9
:1024000001980068C06800F010010020B0EB111FB7
:102410001ED0FFE7019801686FF010000861019974
:102420000820087701980068C06910F4407F04D044
:10243000FFE70198FFF73CFF06E00198FFF6E4FB99
:10244000019800F095F8FFE7019900200877FFE771
:10245000FFE7019800680069C00780B1FFE70198B5
:102460000068C068C00748B1FFE7019801686FF0D5
:10247000010008610198FFF6CBFBFFE7FFE7019839
:1024800000680069C1B20020B0EBD11F13D0FFE794
:1024900001980068C068C1B20020B0EBD11F09D01C
:1024A000FFE7019801686FF0800008610198FFF76D
:1024B000D3FCFFE7FFE701980068006900F4807132
:1024C0000020B0EB112F13D0FFE701980068C0681F
:1024D000C1B20020B0EBD11F09D0FFE7019801681D
:1024E0006FF4807008610198FFF686FBFFE7FFE755
:1024F00001980068006900F040010020B0EB911FD6
:1025000014D0FFE701980068C06800F04001002087
:10251000B0EB911F09D0FFE7019801686FF0400010
:102520000861019800F028F8FFE7FFE701980068CC
:10253000006900F020010020B0EB511F14D0FFE72C
:1025400001980068C06800F020010020B0EB511F26
:1025500009D0FFE7019801686FF020000861019839
:10256000FFF64EFBFFE7FFE702B080BD0000000072
:1025700081B0009001B0704781B0009001B0704709
:1025800083B00190FFE7019890F88400012804D1FE
:10259000FFE702208DF80B002CE00199012081F863
:1025A0008400FFE7FFE701992420C1F88800019823
:1025B00000680068009001980168086820F0010038
:1025C0000860009820F000500090019900204866B3
:1025D000009801990968086001992020C1F88800D5
:1025E000FFE70199002081F88400FFE700208DF8C3
:1025F0000B00FFE79DF80B0003B0704700000000E0
:1026000080B584B002900191FFE7029890F88400B1
:10261000012804D1FFE702208DF80F0032E0029973
:10262000012081F88400FFE7FFE702992420C1F828
:1026300088000298006800680090029801680868A5
:1026400020F00100086002980068806820F0604077
:1026500001990843029909688860029800F024FCF7
:10266000009802990968086002992020C1F8880042
:10267000FFE70299002081F88400FFE700208DF831
:102680000F00FFE79DF80F0004B080BD00000000C0
:1026900080B582B040F27000C2F20040019046F670
:1026A0000001C5F600010160002141608160C16048
:1026B0004FF48032026141618161C161FDF6D8FE53
:1026C00018B1FFE7FDF710FDFFE702B080BD000085
:1026D00080B582B040F29400C2F20040009043F214
:1026E0000001C4F2010101604FF48001416000214A
:1026F000019181600722C26001614FF080724261E6
:102700004FF0806282614FF0C042C261016241625B
:102710008162C1624FF0804242638163C1630164A0
:1027200041648164C164016541658165FFF6B4F867
:1027300018B1FFE7FDF7D8FCFFE702B080BD00004D
:1027400080B58AB000210191099108910791069105
:1027500005910491039140F21C10C2F200400290D6
:102760000022C4F201020260416081604FF6FF72F4
:10277000C260016141618161FFF71EFC18B1FFE792
:10278000FDF7B2FCFFE74FF48050069040F21C10BA
:10279000C2F2004006A9FFF7A3FC18B1FFE7FDF75E
:1027A000A3FCFFE7002003900490059040F21C106A
:1027B000C2F2004003A9FFF753FB18B1FFE7FDF792
:1027C00093FCFFE70AB080BD80B582B040F248209C
:1027D000C2F20040019044F20041C4F200010160E5
:1027E00048F2A061C0F201014160002181604FF414
:1027F0000052C2604FF4806202610C22426181612A
:10280000C161016241628162FFF64EFA18B1FFE7D1
:10281000FDF76AFCFFE740F24820C2F200400021C9
:10282000FFF7EEFE18B1FFE7FDF75EFCFFE740F2B1
:102830004820C2F200400021FFF6EEF918B1FFE790
:10284000FDF752FCFFE740F24820C2F20040FFF7DC
:1028500097FE18B1FFE7FDF747FCFFE702B080BD28
:1028600080B586B00490039100208DF8070044F2F3
