:020000040800F2
:10000000A00D002035020008956A0008D5460008BA
:10001000916A000835140008C17F00080000000044
:10002000000000000000000000000000FD73000858
:10003000A914000800000000056B0008E97400081E
:100040004F0200084F0200084F0200084F0200084C
:100050004F0200084F0200084F0200084F0200083C
:100060004F0200084F0200084F0200084F0200082C
:100070004F0200084F0200084F0200084F0200081C
:1000800039140008491400084F0200084F02000804
:100090004F0200084F0200084F0200084F020008FC
:1000A0004F020008617500084F0200084F02000867
:1000B0004F0200084F0200084F020008E9460008FE
:1000C000D94600084F0200084F0200084F020008FE
:1000D0004F0200084F0200084F0200084F020008BC
:1000E0004F0200084F0200084F02000800F002F81B
:1000F00000F090F80AA090E8000C82448344AAF132
:100100000107DA4501D100F085F8AFF2090EBAE82F
:100110000F0013F0010F18BFFB1A43F0010318473B
:1001200090A10000B0A10000103A24BF78C878C1A7
:10013000FAD8520724BF30C830C144BF04680C60ED
:10014000704700000023002400250026103A28BF35
:1001500078C1FBD8520728BF30C148BF0B60704739
:100160006E2900F09B81702900F0DD82662909F07C
:10017000FC86652909F0F986672909F0F686612968
:1001800009F0F58603681B0A28BF41F08001692940
:1001900000F04881642900F04581752900F0428112
:1001A0006F2900F06B82782900F0A982E92900F01C
:1001B0000582E42900F00282F52900F0FF81EF2991
:1001C00000F06882F82900F0A8820368DB0928BFE4
:1001D00041F08001632900F0AD87732900F0B287F8
:1001E000E32900F0BD87F32900F0C28700207047A3
:1001F0001FB501F017F804000020002108F0C0FD31
:10020000401C60600020002108F0A4FDE0601FBDDC
:1002100010B510BD00F0D8FF1146FFF7E9FF07F059
:1002200031FF01F0B5F803B4FFF7F2FF03BC01F0B2
:10023000F9F800000948804709480047FEE7FEE753
:10024000FEE7FEE7FEE7FEE7FEE7FEE7FEE7FEE786
:1002500004480549054A064B704700005D750008D3
:10026000ED000008A0070020A00D0020A00900203C
:10027000A00900200FB41CB5084B06AA7B446946B0
:100280000090059800F023F904460020694600F02C
:1002900031F920461CBC5DF814FB0000750200001B
:1002A00010B5431C02E010F8011B71B18107FAD1AF
:1002B0004FF0013202C88C1A8C4314EAC211F9D0F3
:1002C000C01A0A0603D0C01E10BDC01A10BD0A0411
:1002D00001D0801E10BD0902FCD0401E10BD421E80
:1002E00012F8013F002BFBD111F8013B002B02F863
:1002F000013BF9D170474FF0000200B51346944618
:100300009646203922BFA0E80C50A0E80C50B1F16D
:100310002001BFF4F7AF090728BFA0E80C5048BF81
:100320000CC05DF804EB890028BF40F8042B08BF1F
:10033000704748BF20F8022B11F0804F18BF00F81B
:10034000012B704770477047704710B500F0BAFA3C
:10035000006810BD10B5044600F0B4FA046010BD8A
:1003600070B5044685690068C10601D5302600E0F5
:100370002026C00707D070BDD4E901213046904740
:10038000206A401C20626D1EF6D570BD70B5044613
:1003900085690078C00707D170BDD4E9012120200C
:1003A0009047206A401C20626D1EF6D570BD09681A
:1003B0004A0501D540B27047C905FCD500B2704767
:1003C00009684A0501D5C0B27047C905FCD580B29D
:1003D000704770B50C460546012A05D0287880067E
:1003E00000D5EA69002302E0012305E05B1C93428B
:1003F00002D2E05C0028F9D1A869E618C01AA86109
:10040000286A184428622846FFF7AAFF04E0D5E9C5
:10041000012114F8010B9047B442F8D32846FFF7A6
:10042000B5FF70BD2DE9F04106460024106875291E
:10043000314616A510D0FFF7BAFF002802DA404275
:1004400013A507E031688A0701D512A502E0490724
:1004500004D511A5012401E0FFF7B2FF00210A2213
:1004600006F1240709E0B0FBF2FCB0FBF2F302FB5B
:100470001C00303078541846491C0028F3D123461C
:100480002A463046BDE8F04100F065BA00000000A1
:100490002D0000002B000000200000001168026801
:1004A000006A530501D508700AE0D30501D508801C
:1004B00006E0130603D5C217C1E9000200E0086098
:1004C0000120704701694A1C02610878704700B535
:1004D0008FB0CDE901310021059105497944CDE97D
:1004E00003101146684600F029F90FB000BD000066
:1004F000E5FFFFFF0A6802F8010B0A607047000081
:100500002DE9FF5F15468A460446DFF8AC80F844C3
:100510000027D8E900103E46CDE9001010E03AF877
:1005200016106A4602A800F027FE411C07D0217869
:10053000890603D5E269391891420DD80744761C23
:100540002078800602D5E069B84205DDAE42E6DBE0
:100550003AF816000028E2D1A069C01BA06120462D
:10056000FFF7FEFED8E90010CDE90010002017E0EB
:100570003AF818106A4602A800F0FEFDB0F1FF3FFD
:1005800081460BD000250DF1080B05E0D4E90121CF
:100590001BF8050090476D1C4D45F7D308F101008D
:1005A000B0428046E4DB206A384420622046FFF7F0
:1005B000EDFEBDE8FF9F0000529B00002DE9F041D9
:1005C0008046D21D22F007020025D2E90002F5295B
:1005D00015A614D0011E72F1000106DA0023D0EB3B
:1005E000030063EB020211A608E0D8F800108B07A5
:1005F00001D50FA602E0490701D50EA60125114637
:10060000002408F1240704E000F060F930323A5584
:10061000641C50EA0102F7D12B463246214640467F
:10062000BDE8F04100F097B9000000002D00000087
:100630002B0000002000000030B4002100F1240451
:1006400008E002F00705D208303542EA4372DB08C1
:100650006554491C52EA0305F3D10468002310A233
:10066000250708D504F020040C4304D0C4690123F5
:100670000CA2641EC46130BC00F06DB910B5044614
:1006800021461068FFF79CFE02462046BDE8104058
:100690000023D1E7D21D22F00701D1E90023CBE7E7
:1006A0000000000030000000F0B40D46018809058C
:1006B00002D5214C7C4402E01F4C7C440E340021C6
:1006C00000F1240608E002F00F071209E75D42EA94
:1006D00003721B097754491C52EA0307F3D10278CD
:1006E0000023120704D5702D06D009B1022311345E
:1006F0002246F0BC00F02FB901231034F8E770B5A2
:1007000004460D4621461068FFF75AFE0246294668
:100710002046BDE870400023C6E7D21D22F0070343
:10072000D3E90023C0E70368126843F020030360A5
:100730000823C3610023B7E7B49900002DE9F05FF7
:10074000894604464FF0000ADFF874B1FB44C0F854
:1007500020A02046E1688847002874D0252806D0CC
:10076000D4E901219047206A401C2062F1E700266D
:100770005F462046E16888472028054607DB312D83
:1007800005D2781910F8200C08B10643F1E7B0073C
:1007900001D526F00406C4F81CA00027C4F818A050
:1007A0002A2D09D0284608F0EFF838B304EB870863
:1007B000303DC8F8185019E059F8041B204604EBE6
:1007C00087029161E1688847012F054618D1E069E9
:1007D000002820DA26F020061DE0D8F8180000EBEB
:1007E000800005EB40003038C8F818002046E1686A
:1007F0008847054608F0C8F80028EED1012F0AD036
:100800002E2D08D12046E16888477F1C0546022F1F
:1008100046F02006C4DBA069002803DA404246F017
:100820000106A061F00701D026F010066C2D0BD058
:10083000682D09D04C2D39D06A2D35D0742D35D086
:100840007A2D33D016E038E0E1682F4620468847FD
:10085000B842054609D16C2F26D04FF48060E1687C
:10086000064320468847054604E06C2F1AD04FF413
:10087000807006430DB3A5F14100192802D8203538
:1008800046F400664A462946204626604E46FFF753
:1008900067FC80B101280BD0F61D26F0070000F19F
:1008A000080956E74020E4E78020D8E70020D6E793
:1008B00006F104094DE7284652E7206ABDE8F09F9B
:1008C00044990000004870471000002030B5B0F196
:1008D0000A0271F100034FEA900E4EEA817EB0EBFE
:1008E0000E0061EB91014FEA101E4EEA017E10EB03
:1008F0000E0041EB11114FEA102E4EEA016E10EB83
:100900000E0041EB11214FEA104E4EEA014E10EB62
:100910000E0041EB1141401841F100014FEAD000B7
:1009200040EA41704FEAD1014FEA810444EA9074F1
:1009300010EB800544EB01046D1944EB0404521BD9
:10094000A3414FF0000348BF0A3200D530BD401C20
:1009500041F1000130BD2DE9F0470D469946924620
:10096000044600F124080168880604D5E06921F0F6
:100970001001216000E00120A84201DD471B00E0DA
:100980000027A1697A1902EB0900081AA0612078F2
:10099000C00602D42046FFF7E3FC002608E0D4E9B5
:1009A00001211AF806009047206A401C761C20623C
:1009B0004E45F4DB2078C0060AD52046FFF7D0FC70
:1009C00006E0D4E9012130209047206A401C2062D3
:1009D000381EA7F10107F4DC07E0D4E9012118F87B
:1009E00005009047206A401C2062281EA5F10105E1
:1009F000F3DC2046FFF7CAFC2078000602D502206F
:100A0000BDE8F0870120FBE72DE9FF4F0C461E46AD
:100A10004FF0FF378BB0D2E90001DDF860800A901B
:100A20008A46C1F30A5505B93D46002108464FF0F4
:100A30000000BAF1000F00F4400005DA00EB80007E
:100A40004FF4400101EA50004FEA9059B9F1010F0B
:100A500000DDB9460A9850EA4A000ED044F610501C
:100A6000A5F2FF3545432F14B8F1000F1ED0754293
:100A7000291E1EDDC9F100021CE0B8F1010F4FF084
:100A8000000001D0302103E0F24305E02154401C76
:100A9000B042FBDB30460022002121540B99C1F803
:100AA0000880C1E900200FB0BDE8F08FBD1B6D1CB0
:100AB000DEE74A4600DA694206A800F0F7FB06AB1B
:100AC00093E8070003AB83E8070050460A9907F054
:100AD0001DFB8DE80700A0F500501F38009003981B
:100AE000002D0ADD42F21F014A460844002303A9F3
:100AF0000390684607F086FD09E0A0F500504A46DD
:100B00001F38002303A90390684607F090FD8DE885
:100B100007000004000C03D04FF0FF30410800E054
:100B20001046B8F1000F03D00022009215461EE0D7
:100B3000751E05D4FFF7CAFE303262556D1EF9D519
:100B4000B3460122084302D000227F1C04E0207833
:100B5000302801D100227F1E002A099784D01DE091
:100B6000112D07DAFFF7B2FE303262556D1C50EAE4
:100B70000102F5D1084302D00098C8B10EE000216F
:100B8000681E05E0235C625C63542254401E491CCD
:100B90008142F7DBAB46A81B401E0990002004F8F9
:100BA0000B000B98099AC0F80880C0E9002B7AE77F
:100BB00011264FF0000857E72DE9F04F884604460C
:100BC000D21D22F0070191B0D1E90001CDE90A015F
:100BD00007F064FE02460B98C00F01D02D2007E0FD
:100BE0002068810701D52B2002E0202101EAC00006
:100BF000032A099001D0072A05DB03464146204617
:100C000000F014FB0BE12078800601D5E06900E0DC
:100C10000620B8F1650F814606D0B8F1660F18D0EE
:100C2000B8F1670F70D131E00020B9F1110F0090D9
:100C300001DB112301E009F101030AAA01A90CA8B3
:100C4000FFF7E2FEDDE90C70002609F1010583469D
:100C500047E001204B4600904FF000470AAA01A947
:100C60000CA8FFF7D1FEDDE90DB00C995D4600261A
:100C700010B909F101000D18B9EB050003D4C0F15A
:100C8000FF3609F10105A5EB09002BE0B9F1010FD1
:100C900001DA4FF001090020B9F1110F0090484628
:100CA00001DD112300E003460AAA01A90CA8FFF701
:100CB000ABFEDDE90C704D46002683462078000728
:100CC0000AD4AB4500DA5D4601A8012D04DD4119C7
:100CD00011F8011C302907D04F4502DA17F1040F33
:100CE00004DA012082460FE06D1EEEE7002F02DCE1
:100CF000ED1B3E4403E0781CA84200DD7D1CB81BC0
:100D000000F1010A4FF000472078000703D4AA45FC
:100D100001DB4FF0FF3A0021B7F1004F0DF143081E
:100D20008DF8431024D002202B23002F01DA7F42BC
:100D30002D230A21021EA0F1010000DC5FB197FB08
:100D4000F1FC97FBF1F201FB1C7C17460CF1300C17
:100D500008F801CDEEE7A8F101000370218809052C
:100D600001D5452100E06521A0F1010800F8011C32
:100D700009980FA9A1EB0807FF1D00B10120411937
:100D800001EBEA70A1693844081A401EA06120787E
:100D9000C00602D42046FFF7E3FA099828B1D4E947
:100DA00001219047206A401C20622078C00622D58D
:100DB0002046FFF7D5FA1EE0002E04DBB34502DD26
:100DC00001A8805D00E03020D4E901219047206A2D
:100DD000401C2062761CAAF101005FEA000A0AD1D9
:100DE00000F020FAC0680168405CD4E90121904716
:100DF000206A401C2062281EA5F10105DCDC07E00A
:100E0000D4E9012118F8010B9047206A401C2062A8
:100E1000381EA7F10107F3DC2046FFF7B7FA0320DD
:100E200011B041E62DE9F04F04460D46D21D22F0E7
:100E3000070089B0D0E900974846394607F02EFDF3
:100E40000246F80F01D02D2307E02068810701D565
:100E50002B2302E0202101EAC0038DF820300BB1E2
:100E6000012000E00020032A824601D0072A04DB8B
:100E70002946204600F0DAF93FE12078800601D4C7
:100E80000D2500E0E569C7F30A560D2D49DA00216A
:100E90004FEA175B08464FF00000002F00F44000B7
:100EA00007DA00EB80004FF4400100EBD07001EA5C
:100EB00060008115012901DD4FF0FF3100224FEA6A
:100EC000850CBCF1180F06D31346ACF118004FF097
:100ED0008052C24003E04FF4801323FA0CF30CF16C
:100EE0000C0CBCF1200F04D3ACF1200C09FA0CF06F
:100EF00001E007FA0CF000294FF0004801DD18B9B5
:100F00000FE00ED140450CD319EB02095F4121B926
:100F1000404502D19F4329EA0209BBEB175F00D08D
:100F2000761C2088000502D57B48784402E07A4888
:100F30007844193808AA302302F80A30037C0AF1F1
:100F40000101002E0AF1020A53546A4602DC4FF0F6
:100F5000300101E04FF031014FF001088DF8001031
:100F600002D0A6F2FF3603E059EA470100D06B4EEB
:100F7000002D02DC2178090704D54FF002082E214C
:100F80008DF80110C44600210BE0C7F303433F0175
:100F9000C35C491C6D1E02F80830052908F10108E0
:100FA00001DA002DF1DC00210CE000EB1973491C83
:100FB0001B786D1E082902F808304FEA091908F15C
:100FC000010801DA002DF0DC21688B0602D516E05D
:100FD000A8F10108E04505DD02EB080313F8013C28
:100FE000302BF5D0B8F1000F09DD02EB080313F840
:100FF000013C2E2B03D1090701D4A8F10108002DD3
:1010000005DD3E2102F808106D1E08F10108407C44
:10101000002E02F8080008F1010804DA2D207642BB
:1010200002F8080002E02B2002F808000A214FF421
:101030007A70864208F101080BDB96FBF0F330333F
:1010400002F8083096FBF0F308F1010800FB136684
:1010500001E0642E0CDB642096FBF0F3303302F8E1
:10106000083096FBF0F308F1010800FB136601E07D
:101070000A2E06DB96FBF1F0303002F8080008F18A
:10108000010896FBF1F001FB1060303002F8080017
:10109000A16908F1010808EB050202EB0A00081A31
:1010A000A0612078C00602D42046FFF759F9216AD2
:1010B00008AE01EB0A00206204E0D4E9012116F831
:1010C000010B9047BAF1010AF7D22078C00602D589
:1010D0002046FFF745F96E4609E016F8010B3E2859
:1010E0000FD0D4E901219047206A401C2062B8F15A
:1010F0000108F2D22046FFF749F909B00320BDE804
:10110000F08F206A2844206203E0D4E901213020D6
:1011100090476D1EEBD3F8E72D92000002FCFFFF15
:1011200010B5436913B1AFF3008001E0FFF751F947
:10113000012010BD127800F124010A7000224A70CB
:101140000122EDE711684FF0FF32E9E710B543697E
:1011500013B1AFF3008001E0FFF7D2F9012010BD19
:10116000128800F1240182840022C2840122EDE76A
:1011700011684FF0FF32E9E72DE9F04116460C46C1
:10118000054600F047F8036893F80101012807D0ED
:10119000FF2C12D8185D80B101202C70BDE8F081C1
:1011A000D3F807013246214603F20713C718284631
:1011B000BC46BDE8F041002360474FF0FF30EDE74B
:1011C00000487047100000207546FFF7F9FFAE4653
:1011D00005006946534620F00700854618B020B543
:1011E000FFF736F8BDE820404FF000064FF000074B
:1011F0004FF000084FF0000BAC46ACE8C009ACE87B
:10120000C009ACE8C009ACE8C00921F007018D466F
:101210007047000010B500F005F8001D10BD00BFBC
:10122000617B000000487047300000202DE9F0414C
:101230001F46044603260168072A01F4006004DB08
:1012400008B116A505E016A503E008B115A500E054
:1012500015A521F010002060A069C01EA0610FB18B
:10126000401EA0612046FFF77BF84FB1D4E9012171
:1012700038469047206A401C2062C01C206206E06D
:10128000206AFAE7D4E9012115F8010B9047761E90
:10129000F8D22046FFF77AF8BDE8F0814E414E00C3
:1012A0006E616E00494E4600696E66002DE9F0479A
:1012B000814616468AB0354878440DC88DE80D0041
:1012C00032487844801C03AC0DC884E80D0041F618
:1012D0009B300844372190FBF1F290FBF1F5A5F12A
:1012E000800501FB12041B3C02D56442012000E092
:1012F0000020DFF898A080460027FA44AAF1BE0A31
:101300000EE0E0070AD03246684607EB47010123AA
:101310000AEB810107F08BF98DE8070064107F1C50
:10132000002CEED1194F7F44AE3F19E0E80715D0ED
:1013300007EB04100DF1180A90E80E008AE80E0081
:10134000C068F04201D1981908903246012306A9DD
:1013500003A807F06CF903AB83E807006D10641C69
:10136000002DE3D14FF0010332466946B8F1000F7A
:1013700003A802D007F046F901E007F058F9C9E9DF
:101380000001C9F808200AB0BDE8F087308F0000DE
:1013900010B50446AFF300802046BDE81040FEF7CC
:1013A00042BF00004FF0013C50F8042B51F8043BC1
:1013B0009A4221D1A2EB0C03934313EACC1317D129
:1013C00050F8042B51F8043B9A4215D1A2EB0C03C0
:1013D000934313EACC130BD150F8042B51F8043B80
:1013E0009A4209D1A2EB0C03934313EACC13DBD04E
:1013F0004FF00000704700BFD01A01BAB1FA81F176
:1014000001F0180122FA01F0CB40DBB2C0B2C01AE1
:10141000C1F120012CFA01F3D11A914311EAC31151
:10142000E6D1704701491820ABBEFEE72600020056
:1014300070470000FFE7FEE780B540F2E400C2F22B
:10144000000000F0D1F880BD80B540F2A000C2F2EB
:10145000000000F0C9F880BD84B0039002910192B1
:1014600000930398C16B026C012090404860009883
:1014700003990968486003984068102809D1FFE77C
:101480000198039909688860029803990968C860FF
:1014900008E002980399096888600198039909682F
:1014A000C860FFE704B070477047000081B0EFF3F9
:1014B000108072B60090FFE7FEE7000080B588B0AC
:1014C000079000208DF81B00079890F82100022853
:1014D00007D0FFE707990420886301208DF81B00DF
:1014E00076E007980168086820F00E000860079809
:1014F0000168086820F0010008600798006808216A
:10150000C4F20201884203D1FFE70120059047E0C1
:10151000079800681C21C4F20201884203D1FFE74A
:101520001020049039E0079800683021C4F20201CD
:10153000884204D1FFE74FF4807003902AE00798B7
:1015400000684421C4F20201884204D1FFE74FF44D
:10155000805002901BE0079800685821C4F20201F5
:10156000884204D1FFE74FF4803001900CE00798E7
:1015700001686C22C4F202024FF08070914208BFF1
:101580004FF480100190FFE701980290FFE7029866
:101590000390FFE703980490FFE704980590FFE7A6
:1015A00005980421C4F2020108600799012081F81E
:1015B0002100FFE70799002081F82000FFE7079846
:1015C000406B20B1FFE70798416B8847FFE7FFE7D3
:1015D0009DF81B0008B080BD81B00090009890F885
:1015E000210001B07047000080B58EB00D900D98BD
:1015F000C06B00680C900D98006800680B900C9808
:101600000D99096CC8404007002875D5FFE79DF883
:101610002C00400700286FD5FFE70D980068006890
:101620008006002807D4FFE70D980168086820F0BD
:1016300004000860FFE70D9800680821C4F2020169
:10164000884203D1FFE704200A9047E00D98006824
:101650001C21C4F20201884203D1FFE74020099017
:1016600039E00D9800683021C4F20201884204D1AB
:10167000FFE74FF4806008902AE00D98006844214D
:10168000C4F20201884204D1FFE74FF48040079082
:101690001BE00D9800685821C4F20201884204D171
:1016A000FFE74FF4802006900CE00D9801686C2253
:1016B000C4F202024FF08060914208BF4FF48000F4
:1016C0000690FFE706980790FFE707980890FFE766
:1016D00008980990FFE709980A90FFE70A98042103
:1016E000C4F2020108600D98C06A20B1FFE70D98AE
:1016F000C16A8847FFE7B8E00C980D99096CC840AB
:101700008007002840F18080FFE79DF82C008007CB
:10171000002879D5FFE70D9800680068800600284A
:101720000BD4FFE70D980168086820F00A000860F4
:101730000D99012081F82100FFE70D98006808212C
:10174000C4F20201884203D1FFE70220059047E07E
:101750000D9800681C21C4F20201884203D1FFE702
:101760002020049039E00D9800683021C4F2020175
:10177000884204D1FFE74FF4007003902AE00D98EF
:1017800000684421C4F20201884204D1FFE74FF40B
:10179000005002901BE00D9800685821C4F202012D
:1017A000884204D1FFE74FF4003001900CE00D981F
:1017B00001686C22C4F202024FF00070914208BF2F
:1017C0004FF400100190FFE701980290FFE70298A4
:1017D0000390FFE703980490FFE704980590FFE764
:1017E00005980421C4F202010860FFE70D9900206A
:1017F00081F82000FFE70D98806A20B1FFE70D987F
:10180000816A8847FFE72FE00C980D99096CC84062
:101810000007002827D5FFE79DF82C0000070028C7
:1018200021D5FFE70D980168086820F00E000860D8
:101830000D98C26B016C012000FA01F151600D9905
:1018400088630D9981F82100FFE70D99002081F848
:101850002000FFE70D98006B20B1FFE70D98016BAA
:101860008847FFE7FFE7FFE7FFE70EB080BD000016
:1018700083B0019000200090019820B9FFE701207B
:101880008DF80B0047E0019908684FF6F872CBF627
:10189000FD7210444CF6CD42CCF6CC42A0FB0202C5
:1018A0006FF0030000EA9200086401990020C4F27E
:1018B0000200C8630199022081F8210001980068A4
:1018C00000680090009843F6F071884300900199F9
:1018D0004868D1F808C0CB680A6940EA0C00184390
:1018E00010434A6910438A691043C969014300984B
:1018F0000843009000980199096808600199002048
:101900008863019A012182F82110019981F8200051
:101910008DF80B00FFE79DF80B0003B07047000047
:1019200080B586B0049003910292019300208DF857
:101930000300FFE7049890F82000012804D1FFE796
:1019400002208DF817004CE00499012081F8200056
:10195000FFE7FFE7049890F82100012832D1FFE764
:101960000499022081F821000499002088630498DA
:101970000168086820F00100086004980399029A41
:10198000019BFFF769FD0498C06A38B1FFE704982E
:101990000168086840F00E0008600CE004980168D7
:1019A000086820F00400086004980168086840F0A6
:1019B0000A000860FFE704980168086840F0010029
:1019C000086009E0FFE70499002081F82000FFE7A4
:1019D00002208DF80300FFE79DF803008DF8170043
:1019E000FFE79DF8170006B080BD000080B584B009
:1019F000039000F0C5F9029003980190019801301E
:101A000048B1FFE740F20400C2F2000001780198FB
:101A100008440190FFE7FFE700F0B2F90299401A8D
:101A20000199884201D2FFE7F6E704B080BD0000CB
:101A300090B00F900E9100200D900990FFE70E9846
:101A400000680D99C840002800F07F81FFE70D99DC
:101A5000012088400C900E9800680C9908400B906B
:101A60000B980C99884240F06C81FFE70E98406813
:101A70000590002851D0FFE7059801283AD0FFE7EC
:101A8000059802283FD0FFE7059803285FD0FFE7BD
:101A90000598112832D0FFE70598122838D0FFE7C3
:101AA00005980021C1F21101884236D0FFE7059860
:101AB0000021C1F2120188422FD0FFE705980021D2
:101AC000C1F22101884228D0FFE705980021C1F228
:101AD0002201884221D0FFE705980021C1F231019F
:101AE00088421AD0FFE705980021C1F232018842EE
:101AF00013D02FE00E98C06809902CE00E98C068B3
:101B00000430099027E00E98C0680830099022E060
:101B10000E98C0680C3009901DE00E98806818B9C6
:101B2000FFE70420099011E00E988068012806D193
:101B3000FFE7082009900C980F99086105E008203C
:101B400009900C980F994861FFE7FFE703E0002038
:101B5000099000E0FFE70B98FF2803D8FFE70F98F4
:101B6000049003E00F9804300490FFE70498089075
:101B70000B98FF2804D8FFE70D988000039006E03B
:101B80000D996FF01F0000EB81000390FFE70398B1
:101B9000079008980068079A0F2191408843099997
:101BA00091400843089908600E98C079C006002843
:101BB00040F1C680FFE7FFE741F21800C4F20200DF
:101BC000016841F001010160006800F00100069029
:101BD0000698FFE70D9820F003000821C4F20101E8
:101BE00040580A900D9800F0030081000F2000FA81
:101BF00001F10A9888430A900F9840F60001C4F258
:101C00000101884203D1FFE70020029026E00F98EF
:101C100040F60041C4F20101884203D1FFE70120F0
:101C2000019018E00F9841F20001C4F201018842CE
:101C300003D1FFE7022000900AE00F9941F2004231
:101C4000C4F201020420914208BF03200090FFE784
:101C500000980190FFE701980290FFE702980D9924
:101C600001F00301890000FA01F10A9808430A9083
:101C70000A980D9921F003010822C4F2010288504C
:101C80000E988079C006002809D5FFE70B9A40F22C
:101C90000841C4F2010108681043086008E00B9A8B
:101CA00040F20841C4F20101086890430860FFE770
:101CB0000E9880798006002809D5FFE70B9A40F23C
:101CC0000C41C4F2010108681043086008E00B9A57
:101CD00040F20C41C4F20101086890430860FFE73C
:101CE0000E9880798007002809D5FFE70B9A40F20B
:101CF0000441C4F2010108681043086008E00B9A2F
:101D000040F20441C4F20101086890430860FFE713
:101D10000E988079C00748B1FFE70B9A40F2004166
:101D2000C4F2010108681043086008E00B9A40F211
:101D30000041C4F20101086890430860FFE7FFE733
:101D4000FFE70D9801300D9079E610B07047000064
:101D500082B00190ADF802108DF801209DF80100CD
:101D600028B1FFE7BDF802000199086105E0BDF860
:101D70000200000401990861FFE702B0704700000B
:101D800040F29870C2F200000068704780B582B0DF
:101D90000090009820B9FFE701208DF8070040E08F
:101DA000009890F8410040B9FFE70099002081F8C1
:101DB0004000009802F086FAFFE70099242081F89D
:101DC000410000980168C86820F40050C86000987D
:101DD00005F0A8FF00980168086920F490400861A8
:101DE00000980168486920F0220048610098016865
:101DF000486940F00800486100980168C86840F4EC
:101E00000050C860009900204864009A202182F8A0
:101E10004110009A82F84210009948638DF807003B
:101E2000FFE79DF8070002B080BD000081B0009080
:101E300001B0704782B001908DF80310ADF800201A
:101E400002B0704780B58AB009900998006840696F
:101E50000490099800684068039000200290099857
:101E600090F83E008DF807009DF81100C007A8B15A
:101E7000FFE79DF80D00C00780B1FFE7029840F032
:101E800001000290099801686FF480704861099818
:101E90000168086840F400400860FFE79DF8110001
:101EA00000F002010020B0EB510F0FD0FFE79DF8CA
:101EB0000D00C00750B1FFE7029840F00200029009
:101EC000099801686FF400704861FFE79DF8110000
:101ED00000F004010020B0EB910F50D0FFE79DF817
:101EE0000D00C00700284AD0FFE79DF807008DF8D5
:101EF00023000998408D0790099890F83D008DF8CF
:101F00001B000998006B05909DF8230020281AD12A
:101F1000FFE70798B8B9FFE79DF81B0021280ED00E
:101F2000FFE79DF81B00292809D0FFE79DF81B005B
:101F3000282808D1FFE70598212804D1FFE7099850
:101F400003F078FE1AE0099801686FF48060486138
:101F5000029840F0040002909DF80700102805D078
:101F6000FFE79DF80700402807D1FFE709980168BF
:101F7000086840F400700860FFE7FFE7FFE79DF89E
:101F8000110000F008010020B0EBD10F0FD0FFE7E7
:101F90009DF80D00C00750B1FFE7029840F008001F
:101FA0000290099801686FF400604861FFE70298A9
:101FB00048B1FFE7029A0999086C10430864099830
:101FC00002F082FDFFE70AB080BD000080B588B056
:101FD00007900020059007980068406804900798D3
:101FE000C06A0390079890F83E008DF80B000798A0
:101FF00090F83D008DF80A009DF80B00102806D0DF
:10200000FFE79DF80B00402840F00081FFE70798AC
:1020100000688069059007980068406906900698F6
:10202000C007A0B9FFE703990120B1F52A0F01907D
:1020300008D0FFE7039800F1AC40B0FA80F0400907
:102040000190FFE70198C00708B1FFE7A1E10698FA
:10205000C00780B1FFE79DF8110000F002010020E9
:10206000B0EB510F07D0FFE7079802F045FB079848
:1020700003F0EEFAC9E09DF8180000F00801002016
:10208000B0EBD10F0DD0FFE79DF8110000F0020179
:102090000020B0EB510F04D0FFE7079803F008F9D8
:1020A000B2E09DF8180000F002010020B0EB510FE3
:1020B0000DD0FFE79DF8110000F002010020B0EB09
:1020C000510F04D0FFE7079803F016F99BE09DF845
:1020D000140000F004010020B0EB910F50D0FFE796
:1020E00007980068406800F40060B0F5006F46D0C3
:1020F000FFE79DF818100020B0EBD11F16D0FFE7C6
:102100009DF8110000F004010020B0EB910F0DD0FC
:10211000FFE79DF8180000F004010020B0EB910FDC
:1021200004D1FFE7079803F023F827E09DF8180093
:1021300000F004010020B0EB910F1DD0FFE79DF8E7
:10214000110000F002010020B0EB510F14D0FFE7A6
:102150009DF80A00212804D1FFE7079802F098FFB4
:1021600009E09DF80B00402804D1FFE7079803F031
:10217000E7FAFFE7FFE700E0FFE7FFE7FFE741E0FF
:1021800007980068406800F40060B0F5006F38D030
:10219000FFE79DF8180000F040010020B0EB911F10
:1021A00016D0FFE79DF8110000F004010020B0EB0D
:1021B000910F0DD0FFE79DF8180000F004010020FA
:1021C000B0EB910F04D1FFE7079802F0BDFE17E0D6
:1021D0009DF8180000F004010020B0EB910F0DD025
:1021E000FFE79DF8110000F002010020B0EB510F55
:1021F00004D0FFE7079802F0D7FD00E0FFE7FFE714
:10220000FFE7FFE7FFE7FFE7FFE7C2E00798006CA3
:1022100028B1FFE7079800684069069008E0079832
:102220000068806905900798006840690690FFE79C
:102230009DF8180000F002010020B0EB510F17D0FC
:10224000FFE79DF8110000F002010020B0EB510FF4
:102250000ED0FFE70798006C28B1FFE707980068E9
:1022600080690590FFE70798059903F08BFC8FE0E4
:102270009DF8180000F010010020B0EB111F0DD0E8
:10228000FFE79DF8110000F002010020B0EB510FB4
:1022900004D0FFE7079803F03FFD78E09DF80A00BF
:1022A000212805D0FFE79DF80A00292836D1FFE74D
:1022B0009DF818100020B0EBD11F16D0FFE79DF855
:1022C000110000F004010020B0EB910F0DD0FFE7EA
:1022D0009DF8180000F004010020B0EB910F04D12C
:1022E000FFE7079803F018FC17E09DF8180000F0CE
:1022F00004010020B0EB910F0DD0FFE79DF8110015
:1023000000F002010020B0EB510F04D0FFE7079866
:1023100003F0ECFB00E0FFE7FFE737E09DF8180073
:1023200000F040010020B0EB911F16D0FFE79DF8B0
:10233000110000F004010020B0EB910F0DD0FFE779
:102340009DF8180000F004010020B0EB910F04D1BB
:10235000FFE7079803F092FB17E09DF8180000F0E4
:1023600004010020B0EB910F0DD0FFE79DF81100A4
:1023700000F002010020B0EB510F04D0FFE70798F6
:1023800003F064FB00E0FFE7FFE7FFE7FFE7FFE79D
:10239000FFE708B080BD000081B0009001B0704739
:1023A00080B58EB00C900C9820B9FFE701208DF815
:1023B000370043E10C9890F83D0040B9FFE70C99D5
:1023C000002081F83C000C9800F01AFBFFE70C9904
:1023D000242081F83D000C980168086820F0010075
:1023E00008600C980168086840F4004008600C9888
:1023F0000168086820F40040086000F069FD0A9058
:102400000C98406848F2A061C0F2010188420BD8E4
:10241000FFE70A9948F28042C0F21E020020914272
:1024200038BF012009900AE00A9940F60012C0F274
:102430003D020020914238BF01200990FFE7099832
:10244000012804D1FFE701208DF83700F6E00A9853
:102450004DF68361C4F21B31A0FB0110800C0B9080
:102460000C980068406820F03F000B9908430C99D5
:10247000096848600C980068006A20F03F000890E6
:102480000C98406848F2A061C0F20101884204D86B
:10249000FFE70B98013007900EE00B984FF4967110
:1024A000484344F6D351C1F26201A0FB010101206F
:1024B00000EB91100790FFE70898079908430C99E3
:1024C000096808620C980068C0694CF6FF7188437F
:1024D00006900C98406848F2A061C0F20101884261
:1024E0001FD8FFE70A9801380C9949684900B0FBEA
:1024F000F1F001306FF31F30032803D8FFE7042009
:1025000005900BE00A9801380C9949684900B0FB26
:10251000F1F001306FF31F300590FFE7059804904C
:102520004CE00C98806868B9FFE70A9801380C996C
:10253000496801EB4101B0FBF1F001306FF31F304E
:1025400003900DE00A9801380C994968192251430B
:10255000B0FBF1F00130042161F31F300390FFE77D
:102560000398000518B9FFE70120029023E00C98BA
:10257000806868B9FFE70A9801380C99496801EB4F
:102580004101B0FBF1F001306FF31F3001900DE01D
:102590000A9801380C99496819225143B0FBF1F0AF
:1025A0000130042161F31F300190FFE7019840F4EE
:1025B00000400290FFE702980490FFE70698049914
:1025C00008430C990968C8610C980068006820F0FD
:1025D000C0000C9B1968DA691B6A1A431043086033
:1025E0000C980068806848F2FF3188430C9A1168A3
:1025F000D36812691A43104388600C980068C06859
:1026000020F0FF000C9B19685A699B691A4310431C
:10261000C8600C980168086840F0010008600C99D7
:10262000002008640C9A202182F83D100C99086360
:102630000C9981F83E008DF83700FFE79DF83700D0
:102640000EB080BD81B0009001B0704781B00090A5
:1026500001B0704781B0009001B0704780B582B082
:1026600001900198006845F20041C4F200018842DF
:1026700016D1FFE740F27000C2F20000007878B196
:10268000FFE740F2E420C2F2000003F029FE03F06D
:10269000B5FE40F22810C2F2000003F0B9FFFFE7D8
:1026A00002B080BD81B0009001B0704780B58CB0A1
:1026B00084460F98DDF838E0CDF828C0ADF8261034
:1026C000ADF82420ADF82230ADF82000FFF758FB1C
:1026D0000790002006900A9890F83D00202840F0CE
:1026E0008681FFE740F20000C2F20000006848F275
:1026F0001F51C5F2EB11A0FB0110C00844F6D351E5
:10270000C1F26201A0FB0110800919214843069023
:10271000FFE7069801380690069898B9FFE70A99EE
:10272000002008630A9A202182F83D100A9981F856
:102730003E000A99086C40F02000086402208DF8E1
:102740002F0058E1FFE70A980068806900F0020155
:102750000020B0EB510FDCD1FFE7FFE70A9890F8BB
:102760003C00012804D1FFE702208DF82F0042E150
:102770000A99012081F83C00FFE7FFE70A9800680A
:102780000068C00738B9FFE70A980168086840F098
:1027900001000860FFE70A980168086820F40060FB
:1027A00008600A99222081F83D000A99402081F8AA
:1027B0003E000A99002008640E990A9A5162BDF8F9
:1027C00020100A9A51850A99498D0A9A11850A9A08
:1027D0000021CFF6FF71D162BDF826100A9A51642C
:1027E000BDF824100A9A9164BDF822100A9AD164A7
:1027F0000A9908650A98008D002800F0BE80FFE75E
:102800000A98806B00B3FFE70A98816B44F6E900F1
:10281000C0F6000088620A98816B44F68500C0F615
:10282000000008630A98816B0020C8620A99896BCE
:1028300048630A9B19685A6A986B10311B8DFFF721
:102840006FF88DF8170016E00A99202081F83D00F6
:102850000A99002081F83E000A99086C40F0800037
:102860000864FFE70A99002081F83C00FFE7012097
:102870008DF82F00BFE09DF81700002865D1FFE715
:102880000A98BDF82610BDF82420BDF82230DDF8E6
:102890001CC0EE46CEF804C04FF0230CCEF800C0AA
:1028A00002F0E2FFF0B1FFE70A98806BFEF706FE48
:1028B0008DF817000A98816B002088620A990A68CF
:1028C000116821F4806111600A9908850A99488588
:1028D0000A980168086820F00100086001208DF85E
:1028E0002F0088E00A98008D012807D1FFE70A9899
:1028F0000168086820F48060086006E00A980168B2
:10290000486840F480504860FFE7FFE700200490EB
:102910000A980068406904900A98006880690490E9
:102920000498FFE7FFE70A99002081F83C00FFE7E1
:102930000A980168486840F4807048600A98016805
:10294000486840F40060486016E00A99202081F849
:102950003D000A99002081F83E000A99086C40F079
:1029600010000864FFE70A99002081F83C00FFE7A7
:1029700001208DF82F003EE035E00A98BDF82610C2
:10298000BDF82420BDF82230DDF81CC0EE46CEF89C
:1029900004C04FF0230CCEF800C002F065FF20B158
:1029A000FFE701208DF82F0025E0FFE700200390CE
:1029B0000A980068406903900A980068806903904B
:1029C0000398FFE70A980168086840F400700860FF
:1029D0000A99202081F83D00FFE70A99002081F83C
:1029E0003C00FFE7FFE700208DF82F0003E0022006
:1029F0008DF82F00FFE79DF82F000CB080BD000080
:102A000080B58CB00B9000200A9009900890079038
:102A10000B98006845F20041C4F20001884262D17F
:102A2000FFE7FFE741F21800C4F20200016841F03D
:102A300008010160006800F0080006900698FFE7B2
:102A4000C02007901220089003200A9040F6004012
:102A5000C4F2010007A9FEF7EBFFFFE741F21C00FB
:102A6000C4F20200016841F400110160006800F442
:102A7000001005900598FFE740F2A000C2F20000A8
:102A800004908021C4F20201016000214160816054
:102A90008022C260016141618161C161FEF7E8FE8F
:102AA00018B1FFE7FEF702FDFFE7FFE70B9840F2E2
:102AB000A001C2F2000181630B984862FFE71F206A
:102AC000019000220292114600F0AEF8019800F049
:102AD000A1F8029A20200390114600F0A5F803986F
:102AE00000F098F8FFE70CB080BD000081B00090C6
:102AF00001B0704781B0009001B0704740F204000F
:102B0000C2F20000027840F29871C2F20001086837
:102B1000104408607047000080B542F20001C4F222
:102B20000201086840F010000860032000F096F8E9
:102B30000F2000F005F800F03BF8002080BD0000F9
:102B400080B582B0009040F20000C2F20000006840
:102B500040F20401C2F200010A784FF47A71B1FB2D
:102B6000F2F1B0FBF1F000F073FD20B1FFE70120BE
:102B70008DF8070018E000980F280DD8FFE700999E
:102B80004FF0FF30002200F04FF8009840F20801AB
:102B9000C2F20001086003E001208DF8070003E0A5
:102BA00000208DF80700FFE79DF8070002B080BD08
:102BB00083B0FFE741F21800C4F20200016841F05F
:102BC00001010160006800F0010002900298FFE737
:102BD000FFE741F21C00C4F20200016841F080519D
:102BE0000160006800F0805001900198FFE7FFE766
:102BF0000421C4F2010108680090009820F0E06010
:102C00000090009840F00070009000980860FFE786
:102C100003B0704780B582B08DF807009DF90700BA
:102C200005F0D0F902B080BD80B586B08DF81700F0
:102C3000049103920020029005F0DCF902909DF9C6
:102C40001700019002980499039A03F025FF0146AA
:102C5000019805F0D7F906B080BD000080B582B0BC
:102C60000190019805F0F0F902B080BD80B584B004
:102C700002900191029820B9FFE701208DF80F0022
:102C80001BE1019842F20001C4F20201096801F05F
:102C90000701884216D9FFE742F20000C4F20200A1
:102CA000016821F00701019A11430160006800F0FA
:102CB00007000199884204D0FFE701208DF80F003A
:102CC000FBE0FFE702980078800700282AD5FFE79D
:102CD000029800784007002809D5FFE741F2040177
:102CE000C4F20201086840F4E0600860FFE702985F
:102CF00000780007002809D5FFE741F20401C4F27B
:102D00000201086840F460500860FFE741F20401E6
:102D1000C4F20201086820F0F000029A92681043A1
:102D20000860FFE702980078C007002860D0FFE73E
:102D30000298406801280ED1FFE741F20000C4F27A
:102D4000020000688003002804D4FFE701208DF80A
:102D50000F00B2E021E00298406802280ED1FFE7A0
:102D600041F20000C4F2020000688001002804D48F
:102D7000FFE701208DF80F009FE00DE041F2000019
:102D8000C4F2020000688007002804D4FFE7012095
:102D90008DF80F0091E0FFE7FFE741F20401C4F274
:102DA0000201086820F00300029A5268104308608C
:102DB000FEF7E6FF0090FFE741F20400C4F20200D4
:102DC000006800F00C0002994968B0EB810F0ED04A
:102DD000FFE7FEF7D5FF0099401A41F2893188429A
:102DE00004D3FFE703208DF80F0066E0E4E7FFE778
:102DF000019842F20001C4F20201096801F00701E2
:102E0000884216D2FFE742F20000C4F202000168D5
:102E100021F00701019A11430160006800F00700EA
:102E20000199884204D0FFE701208DF80F0044E0AB
:102E3000FFE702980078400700280CD5FFE741F231
:102E40000401C4F20201086820F4E060029AD2682A
:102E500010430860FFE702980078000700280DD5AE
:102E6000FFE741F20401C4F20201086820F4605057
:102E7000029A126940EAC2000860FFE700F04CF8CD
:102E800041F20401C4F202010968C9B20A094AF216
:102E90000421C0F60001895CC84040F20001C2F282
:102EA0000001086040F20800C2F200000068FFF76D
:102EB00047FE00208DF80F00FFE79DF80F0004B0DB
:102EC00080BD000040F20000C2F2000000687047C0
:102ED00080B5FFF7F7FF41F20401C4F2020109686F
:102EE000C1F302224AF21421C0F60001895CC840F5
:102EF00080BD000080B5FFF7E5FF41F20401C4F298
:102F000002010968C1F3C2224AF21421C0F600018D
:102F1000895CC84080BD000086B000200590049008
:102F200003900290019041F20400C4F20200006894
:102F30000590059800F00C000146009100283FD054
:102F4000FFE70098042804D0FFE70098082806D07F
:102F500037E041F20020C0F27A00019037E0059896
:102F6000C0F383414AF21C20C0F60000405C02908E
:102F70009DF81600C007C0B1FFE741F20400C4F29B
:102F800002000068C0F340414AF22C20C0F6000065
:102F9000405C0490029841F20021C0F27A0148435B
:102FA0000499B0FBF1F0039007E0029840F600119D
:102FB000C0F23D0148430390FFE70398019006E00B
:102FC000FFE741F20020C0F27A000190FFE701988C
:102FD00006B0704780B586B00490049820B9FFE72A
:102FE00001208DF817002EE304980078C007002810
:102FF00000F0AE80FFE741F20400C4F20200006876
:1030000000F00C00042813D0FFE741F20400C4F2E2
:103010000200006800F00C0008281BD1FFE741F215
:103020000400C4F202000068C003002812D5FFE7C4
:1030300041F20000C4F2020000688003002808D5B5
:10304000FFE70498406820B9FFE701208DF81700DA
:10305000F9E27CE0FFE704984068B0F5803F09D1D1
:10306000FFE741F20001C4F20201086840F4803039
:10307000086032E00498406868B9FFE741F2000157
:10308000C4F20201086820F480300860086820F467
:103090008020086020E004984068B0F5A02F0DD192
:1030A000FFE741F20001C4F20201086840F4802009
:1030B0000860086840F4803008600CE041F20001CC
:1030C000C4F20201086820F480300860086820F427
:1030D00080200860FFE7FFE7FFE7FFE7049840680C
:1030E000D0B1FFE7FEF74CFE0390FFE741F200008E
:1030F000C4F202000068800300280CD4FFE7FEF74A
:103100003FFE0399401A652804D3FFE703208DF89A
:10311000170098E2EAE719E0FEF732FE0390FFE7B6
:1031200041F20000C4F202000068800300280CD5C0
:10313000FFE7FEF725FE0399401A652804D3FFE751
:1031400003208DF817007EE2EAE7FFE7FFE7FFE7DD
:10315000049800788007002840F18D80FFE741F255
:103160000400C4F20200006810F00C0F13D0FFE757
:1031700041F20400C4F20200006800F00C000828CC
:1031800029D1FFE741F20400C4F202000068C00345
:10319000002820D4FFE741F20000C4F202000068DA
:1031A0008007002809D5FFE704980069012804D0AA
:1031B000FFE701208DF8170045E241F20001C4F25B
:1031C0000201086820F0F800049A526940EAC2003F
:1031D0000860FFE74EE00498006958B3FFE700215C
:1031E000C4F2422101200860FEF7CAFD0390FFE708
:1031F00041F20000C4F202000068800700280CD4ED
:10320000FFE7FEF7BDFD0399401A032804D3FFE74B
:1032100003208DF8170016E2EAE741F20001C4F23C
:103220000201086820F0F800049A526940EAC200DE
:1032300008601EE00021C4F2422100200860FEF771
:103240009FFD0390FFE741F20000C4F20200006816
:10325000800700280CD5FFE7FEF792FD0399401A7E
:10326000032804D3FFE703208DF81700EBE1EAE71A
:10327000FFE7FFE7FFE7049800780007002848D53C
:10328000FFE70498806918B3FFE740F28041C4F279
:10329000422101200860FEF773FD0390FFE741F231
:1032A0002400C4F202000068800700280CD4FFE765
:1032B000FEF766FD0399401A032804D3FFE70320B5
:1032C0008DF81700BFE1EAE7012003F01DFC1FE0C5
:1032D00040F28041C4F2422100200860FEF750FD18
:1032E0000390FFE741F22400C4F202000068800767
:1032F00000280CD5FFE7FEF743FD0399401A032889
:1033000004D3FFE703208DF817009CE1EAE7FFE70D
:10331000FFE7049800784007002840F1D880FFE7D5
:1033200000208DF8070041F21C00C4F20200006882
:10333000C000002813D4FFE7FFE741F21C00C4F2ED
:103340000200016841F080510160006800F0805087
:1033500000900098FFE701208DF80700FFE747F293
:103360000000C4F200000068C005002822D4FFE776
:1033700047F20001C4F20001086840F48070086060
:10338000FEF7FEFC0390FFE747F20000C4F20000E6
:103390000068C00500280CD4FFE7FEF7F1FC039994
:1033A000401A652804D3FFE703208DF817004AE18F
:1033B000EAE7FFE7FFE70498C068012809D1FFE7C3
:1033C00041F22001C4F20201086840F001000860E7
:1033D00031E00498C06868B9FFE741F22001C4F207
:1033E0000201086820F001000860086820F004006D
:1033F00008601FE00498C06805280DD1FFE741F27E
:103400002001C4F20201086840F004000860086866
:1034100040F0010008600CE041F22001C4F202011A
:10342000086820F001000860086820F004000860C7
:10343000FFE7FFE7FFE7FFE70498C068E0B1FFE7B9
:10344000FEF79EFC0390FFE741F22000C4F2020069
:103450000068800700280ED4FFE7FEF791FC03996F
:10346000401A41F28931884204D3FFE703208DF8E6
:103470001700E8E0E8E71BE0FEF782FC0390FFE7B7
:1034800041F22000C4F202000068800700280ED537
:10349000FFE7FEF775FC0399401A41F28931884233
:1034A00004D3FFE703208DF81700CCE0E8E7FFE73F
:1034B0009DF80700012809D1FFE741F21C01C4F281
:1034C0000201086820F080500860FFE7FFE70498D9
:1034D000C069002800F0B380FFE741F20400C4F2A5
:1034E0000200006800F00C00082800F08280FFE76E
:1034F0000498C06902285CD1FFE76021C4F2422130
:1035000000200860FEF73CFC0390FFE741F200005A
:10351000C4F202000068800100280CD5FFE7FEF726
:103520002FFC0399401A032804D3FFE703208DF8EA
:10353000170088E0EAE70498006AB0F5803F0CD1F4
:10354000FFE741F20401C4F20201086820F40030F0
:10355000049A926810430860FFE741F20401C4F244
:103560000201086820F47410049B1A6A5B6A1A430B
:10357000104308606021C4F2422101200860FEF778
:10358000FFFB0390FFE741F20000C4F20200006875
:10359000800100280CD4FFE7FEF7F2FB0399401AE4
:1035A000032804D3FFE703208DF817004BE0EAE778
:1035B0001EE06021C4F2422100200860FEF7E0FB1B
:1035C0000390FFE741F20000C4F2020000688001AE
:1035D00000280CD5FFE7FEF7D3FB0399401A032818
:1035E00004D3FFE703208DF817002CE0EAE7FFE79C
:1035F00024E00498C069012804D1FFE701208DF878
:10360000170020E041F20400C4F2020000680290BA
:10361000029800F480300499096A884208D1FFE7D3
:10362000029800F470100499496A884204D0FFE7B8
:1036300001208DF8170006E0FFE7FFE7FFE7002015
:103640008DF81700FFE79DF8170006B080BD000059
:1036500080B582B00190019803F01CFF02B080BDDC
:1036600081B0009001B0704781B0009001B0704708
:1036700085B003900291FFE7039890F83C00012881
:1036800004D1FFE702208DF813005BE003990120CD
:1036900081F83C00FFE7FFE70399022081F83D0035
:1036A0000398006840680190039800688068009063
:1036B000019820F070000190029801680198084379
:1036C000019001980399096848600398006842F6E0
:1036D0000041C4F20101884218D0FFE70398006856
:1036E000B0F1804F12D0FFE70398006840F200412C
:1036F000C4F20001884209D0FFE70398006840F651
:103700000001C4F2000188420ED1FFE7009820F0CA
:10371000800000900298416800980843009000984B
:10372000039909688860FFE70399012081F83D004B
:10373000FFE70399002081F83C00FFE700208DF8A7
:103740001300FFE79DF8130005B0704780B582B005
:103750000090009820B9FFE701208DF807003FE0B6
:10376000009890F83D0040B9FFE70099002081F8EB
:103770003C00009800F038F8FFE70099022081F83B
:103780003D00009951F8040B03F0F2FE009901206E
:1037900081F84600FFE70099012081F83E0000997A
:1037A00081F83F00009981F84000009981F84100BC
:1037B000FFE7FFE70099012081F84200009981F8B6
:1037C0004300009981F84400009981F84500FFE723
:1037D0000099012081F83D0000208DF80700FFE7E7
:1037E0009DF8070002B080BD80B584B003900398B7
:1037F000006842F60041C4F20101884219D1FFE796
:10380000FFE741F21800C4F20200016841F40061D0
:103810000160006800F4006002900298FFE7192040
:10382000009000221146FFF7FFF90098FFF7F2F928
:1038300016E003980068B0F1804F10D1FFE7FFE772
:1038400041F21C00C4F20200016841F00101016074
:10385000006800F0010001900198FFE7FFE7FFE733
:1038600004B080BD83B00190019890F83D0001281C
:1038700004D0FFE701208DF80B0047E001990220FA
:1038800081F83D0001980168C86840F00100C860F7
:103890000198006842F60041C4F20101884218D044
:1038A000FFE701980068B0F1804F12D0FFE7019860
:1038B000006840F20041C4F20001884209D0FFE7ED
:1038C0000198006840F60001C4F20001884212D15C
:1038D000FFE701980068806800F0070000900098FA
:1038E000062807D0FFE701980168086840F001004A
:1038F0000860FFE706E001980168086840F00100F1
:103900000860FFE700208DF80B00FFE79DF80B0033
:1039100003B0704780B586B00490039100208DF805
:103920000B00FFE7049890F83C00012804D1FFE762
:1039300002208DF81700ABE00499012081F83C00CB
:10394000FFE7FFE70499022081F83D000498006832
:1039500080680190019820F077000190019820F490
:103960007F40019001980499096888600398006875
:103970000090002872D0FFE7009810286ED0FFE773
:10398000009820286AD0FFE70098302866D0FFE72B
:103990000098402855D0FFE70098502837D0FFE71F
:1039A0000098602840D0FFE7009870280BD0FFE710
:1039B0000098B0F5805F05D0FFE70098B0F5005F94
:1039C00016D052E055E004980068039B5A68996845
:1039D000DB6803F061FE049800688068019001983C
:1039E00040F077000190019804990968886040E0F0
:1039F00004980068039B5A689968DB6803F04CFEE2
:103A000004980168886840F48040886031E0049838
:103A10000068039A5168D26803F0FAFF04980068BE
:103A2000502103F053FE24E004980068039A516883
:103A3000D26804F015F804980068602103F046FE8F
:103A400017E004980068039A5168D26803F0E0FF19
:103A500004980068402103F039FE0AE004980068E9
:103A60000399096803F032FE03E001208DF80B0092
:103A7000FFE70499012081F83D00FFE70499002049
:103A800081F83C00FFE79DF80B008DF81700FFE779
:103A90009DF8170006B080BD81B0009001B070475E
:103AA00080B582B0019001980068006900F00201C1
:103AB0000020B0EB510F28D0FFE701980068C068E4
:103AC00000F002010020B0EB510F1DD0FFE701987C
:103AD00001686FF0020008610199012008770198E0
:103AE00000688069800720B1FFE70198FFF7D4FFE5
:103AF00006E0019800F05EF9019800F06DFAFFE72A
:103B0000019900200877FFE7FFE701980068006946
:103B100000F004010020B0EB910F29D0FFE70198DD
:103B20000068C06800F004010020B0EB910F1ED0C7
:103B3000FFE7019801686FF0040008610199022015
:103B4000087701980068806910F4407F04D0FFE78F
:103B50000198FFF7A1FF06E0019800F02BF901980A
:103B600000F03AFAFFE7019900200877FFE7FFE746
:103B700001980068006900F008010020B0EBD10F47
:103B800028D0FFE701980068C06800F00801002015
:103B9000B0EBD10F1DD0FFE7019801686FF008006E
:103BA000086101990420087701980068C0698007BE
:103BB00020B1FFE70198FFF76FFF06E0019800F0E2
:103BC000F9F8019800F008FAFFE70199002008775A
:103BD000FFE7FFE701980068006900F0100100208E
:103BE000B0EB111F29D0FFE701980068C06800F012
:103BF00010010020B0EB111F1ED0FFE701980168F3
:103C00006FF010000861019908200877019800689A
:103C1000C06910F4407F04D0FFE70198FFF73CFF34
:103C200006E0019800F0C6F8019800F0D5F9FFE72A
:103C3000019900200877FFE7FFE701980068006915
:103C4000C00780B1FFE701980068C068C00748B1AD
:103C5000FFE7019801686FF001000861019800F02A
:103C60006FFAFFE7FFE7019800680069C1B2002022
:103C7000B0EBD11F13D0FFE701980068C068C1B254
:103C80000020B0EBD11F09D0FFE7019801686FF069
:103C9000800008610198FFF7E3FCFFE7FFE7019868
:103CA0000068006900F040010020B0EB911F14D0C3
:103CB000FFE701980068C06800F040010020B0EB09
:103CC000911F09D0FFE7019801686FF0400008617B
:103CD000019800F099FAFFE7FFE701980068006992
:103CE00000F020010020B0EB511F14D0FFE7019835
:103CF0000068C06800F020010020B0EB511F09D01F
:103D0000FFE7019801686FF0200008610198FFF754
:103D1000ABFCFFE7FFE702B080BD000080B58AB0D2
:103D20000990002008900790069005900998006877
:103D300040F20041C4F20001884239D1FFE7FFE7B9
:103D400041F21800C4F20200016841F00401016070
:103D5000006800F0040004900498FFE7FFE741F2D8
:103D60001800C4F20200016841F008010160006817
:103D700000F0080003900398FFE7C02005900220A0
:103D800001900690089040F60000C4F2010005A9D9
:103D90000291FDF74DFE01980299032205920690CB
:103DA000089040F60040C4F20100FDF741FEFFE735
:103DB0000AB080BD81B0009001B0704780B586B078
:103DC00004900391029200208DF80700FFE7049809
:103DD00090F83C00012804D1FFE702208DF817007D
:103DE00089E00499012081F83C00FFE7FFE7029891
:103DF00000900C2800F270800099DFE801F0076D58
:103E00006D6D206D6D6D3A6D6D6D53000498006899
:103E1000039903F071FC04980168886940F0080078
:103E2000886104980168886920F00400886103981B
:103E300002690498016888691043886150E0049819
:103E40000068039903F0C0FC04980168886940F495
:103E50000060886104980168886920F48060886146
:103E60000398026904980168886940EA0220886121
:103E700036E004980068039903F012FD0498016885
:103E8000C86940F00800C86104980168C86920F05A
:103E90000400C8610398026904980168C869104366
:103EA000C8611DE004980068039903F065FD04985B
:103EB0000168C86940F40060C86104980168C86975
:103EC00020F48060C8610398026904980168C86999
:103ED00040EA0220C86103E001208DF80700FFE7F7
:103EE000FFE70499002081F83C00FFE79DF80700F8
:103EF0008DF81700FFE79DF8170006B080BD0000A1
:103F000080B582B00090009820B9FFE701208DF8BD
:103F100007003FE0009890F83D0040B9FFE70099A6
:103F2000002081F83C00009800F038F8FFE7009985
:103F3000022081F83D00009951F8040B03F018FBB2
:103F40000099012081F84600FFE70099012081F8DF
:103F50003E00009981F83F00009981F840000099E7
:103F600081F84100FFE7FFE70099012081F8420056
:103F7000009981F84300009981F84400009981F884
:103F80004500FFE70099012081F83D0000208DF8F1
:103F90000700FFE79DF8070002B080BD82B00190E6
:103FA0000198006840F20041C4F20001884210D13B
:103FB000FFE7FFE741F21C00C4F20200016841F094
:103FC00002010160006800F0020000900098FFE725
:103FD000FFE702B07047000081B0009001B0704769
:103FE00080B58AB008900791079828B9FFE708982C
:103FF00090F83E0005901CE00798042805D1FFE7E3
:10400000089890F83F00049010E00798082805D120
:10401000FFE7089890F84000039004E0089890F8B3
:1040200041000390FFE703980490FFE70498059090
:10403000FFE70598012804D0FFE701208DF827004D
:104040007AE0079828B9FFE70899022081F83E0036
:104050001EE00798042806D1FFE70899022081F89E
:104060003F00029012E00798082806D1FFE7089960
:10407000022081F84000019005E00899022081F8B3
:1040800041000190FFE701980290FFE70298FFE7E7
:10409000089800680799012203F0E2FA089800687E
:1040A00042F60041C4F20101884207D1FFE70898B7
:1040B0000168486C40F400404864FFE708980068D5
:1040C00042F60041C4F20101884218D0FFE7089887
:1040D0000068B0F1804F12D0FFE70898006840F206
:1040E0000041C4F20001884209D0FFE70898006847
:1040F00040F60001C4F20001884212D1FFE708989F
:104100000068806800F0070006900698062807D02F
:10411000FFE708980168086840F001000860FFE7C1
:1041200006E008980168086840F001000860FFE7B1
:1041300000208DF82700FFE79DF827000AB080BD1A
:1041400080B584B003900398006842F60041C4F241
:104150000101884255D1FFE702F0F4FC8DF80B0015
:104160009DF80B2040F2B030C2F200004AF22E213E
:10417000C0F60001FCF77EF800208DF80A00FFE78A
:104180009DF90A000D2821DCFFE79DF90A1040F295
:104190000030C2F2000030F8112040F24C30C2F280
:1041A000000001904AF23621C0F60001FCF762F8E7
:1041B000019940F2B030C2F20000FCF790F8FFE73E
:1041C0009DF80A0001308DF80A00D9E740F2B030BE
:1041D000C2F2000000904AF2AB21C0F60001FCF7E9
:1041E0007EF80098FCF75CF8009982B240F2542007
:1041F000C2F200004FF0FF3300F0DCF902F0FEFEE7
:10420000FFE704B080BD000081B0009001B07047AE
:1042100082B00190ADF8021002B0704781B00090FA
:1042200001B0704780B582B00090009820B9FFE7D8
:1042300001208DF8070040E00098806908B1FFE791
:1042400000E0FFE7009890F8410040B9FFE70099CF
:10425000002081F84000009800F034F8FFE7009952
:10426000242081F8410000980168C86820F40050BB
:10427000C860009803F056FD00980168086920F4B2
:104280009040086100980168486920F02A00486160
:1042900000980168C86840F40050C8600099002088
:1042A0004864009A202182F84110009A82F8421056
:1042B000009948638DF80700FFE79DF8070002B0FA
:1042C00080BD000080B58CB00B9000200A90099052
:1042D000089007900B98006843F60001C4F20101B2
:1042E000884239D1FFE7FFE741F21800C4F202002B
:1042F000016841F480410160006800F4804006904C
:104300000698FFE7FFE741F21800C4F202000168D7
:1043100041F004010160006800F004000590059878
:10432000FFE74FF4007007900220089003200A90E6
:1043300040F60000C4F20100019007A90291FDF7C8
:1043400077FB019802994FF480620792002208924D
:104350000992FDF76DFB5BE00B98006844F20041A9
:10436000C4F20001884252D1FFE7FFE741F21C008E
:10437000C4F20200016841F400310160006800F4F9
:10438000003004900498FFE7FFE741F21800C4F200
:104390000200016841F004010160006800F00400BF
:1043A00003900398FFE70420079012200890032051
:1043B0000A9040F60000C4F2010007A9FDF738FB9F
:1043C00040F2E400C2F2000000906C21C4F202014D
:1043D00001600021416081608022C2600161416111
:1043E000202181614FF44051C161FDF741FA18B1BC
:1043F000FFE7FDF75BF8FFE7FFE70B9840F2E4010A
:10440000C2F20001C1630B984862FFE7FFE7FFE7D4
:104410000CB080BD80B58AB008900791ADF81A2025
:10442000059300200290089890F84200202840F060
:104430008480FFE7079820B1FFE7BDF81A0020B994
:10444000FFE701208DF827007BE0089900204864F1
:10445000089A222182F8421008990863FDF790FC1F
:104460000290BDF81A0008998885BDF81A000899CD
:10447000C88508988068B0F5805F09D1FFE7089883
:10448000006928B9FFE7002004900798039004E032
:104490000798049000200390FFE7FFE70898C08D7D
:1044A000002842D0FFE70898029B05996A461160F0
:1044B0002021002203F01AFD20B1FFE703208DF830
:1044C00027003EE0049858B9FFE708980068406864
:1044D0006FF35F20039908800398023003901FE078
:1044E00008988068B0F5805F08D0FFE7089880687A
:1044F00050B9FFE70898006930B9FFE708980068ED
:1045000040680499087007E008980068406800F067
:104510007F0004990870FFE7049801300490FFE7DA
:104520000899C88D0138C885B8E70899202081F816
:10453000420000208DF8270003E002208DF82700BC
:10454000FFE79DF827000AB080BD000080B584B069
:1045500002900191ADF80220029890F842002028C4
:1045600017D1FFE7019820B1FFE7BDF8020020B99D
:10457000FFE701208DF80F000FE00299002008638B
:1045800002980199BDF8022003F02AFC8DF80F0073
:1045900003E002208DF80F00FFE79DF80F0004B044
:1045A00080BD000081B0009001B0704781B00090E4
:1045B00001B0704780B58AB008900791ADF81A2015
:1045C000059300200290089890F84100202878D1A7
:1045D000FFE7079820B1FFE7BDF81A0020B9FFE711
:1045E00001208DF8270070E00899002048640899A0
:1045F000212081F84100FDF7C3FB0290BDF81A00AD
:1046000008998884BDF81A000899C88408988068B9
:10461000B0F5805F09D1FFE70898006928B9FFE786
:10462000002004900798039004E00798049000206D
:104630000390FFE7FFE70898C08C58B3FFE708989E
:10464000029B05996A4611608021002203F04EFC0E
:1046500020B1FFE703208DF8270036E0049858B911
:10466000FFE7039800886FF35F20089909684860A6
:1046700003980230039008E00498007808990968CC
:104680004860049801300490FFE70899C88C01380D
:10469000C884D0E70898029B05996A4611604021BA
:1046A000002203F023FC20B1FFE703208DF8270050
:1046B0000BE00899202081F8410000208DF82700A8
:1046C00003E002208DF82700FFE79DF827000AB0DD
:1046D00080BD0000FFE7FEE780B540F22810C2F27F
:1046E0000000FDF7AFFB80BD80B540F22810C2F29C
:1046F0000000FDF76BFC80BD81B000900098C06A9F
:10470000B0F52A0F04D1FFE700990120C8620BE041
:104710000098C06AB0F12A4F04D1FFE70099082041
:10472000C86200E0FFE7FFE701B0704780B584B0E2
:104730000390002002900398406A0190019890F83D
:104740003D008DF8030040F20000C2F20000006856
:1047500048F21F51C5F2EB11A0FB0110C00844F64E
:10476000D351C1F26201A0FB01108009232148430B
:104770000290FFE7029830B9FFE70199086C40F01A
:10478000200008640CE0029801380290FFE70198CD
:104790000068006800F40070B0F5007FEAD0FFE721
:1047A0000198406B28B1FFE70198416B00208862B7
:1047B000FFE70198806B28B1FFE70198816B00202B
:1047C0008862FFE701980168086820F4806008604B
:1047D0000199002048850198406B28B1FFE70198B6
:1047E000416B00204863FFE70198806B28B1FFE729
:1047F0000198816B00204863FFE701980168086811
:1048000020F001000860019890F83D0060280ED16A
:10481000FFE70199202081F83D000199002081F8EF
:104820003E00019908640198FDF700FB27E09DF820
:10483000030000F02800282814D1FFE70198016840
:10484000086840F00100086001980168086840F4B9
:10485000806008600199002008630199282081F890
:104860003D0008E00199202081F83D0001990020D9
:1048700081F83E00FFE70198FDF78EFDFFE704B0E9
:1048800080BD000080B582B001900198406A009020
:104890000098406B28B1FFE70098416B00208862C8
:1048A000FFE70098806B28B1FFE70098816B00203C
:1048B0008862FFE700980168086820F4806008605B
:1048C000009900204885009A202182F83D10009927
:1048D00081F83E000099086C40F0100008640098D0
:1048E000FDF75AFD02B080BD80B584B003900398F7
:1048F000406A0290029890F83D008DF807000298F7
:1049000090F83E008DF806000298C06A0090029868
:104910000168486820F4407048600298406B28B1F4
:10492000FFE70298416B00208862FFE70298806BE6
:1049300028B1FFE70298816B00208862FFE79DF8AD
:10494000070000F0210021280CD0FFE79DF80700A8
:1049500000F02200222837D1FFE79DF8060020282A
:1049600032D1FFE702980168486820F4006048608F
:104970000299002048859DF8070029280BD1FFE700
:104980000299212008630299282081F83D000298AD
:10499000FEF7B0F811E09DF807002A280BD1FFE7D9
:1049A0000299222008630299282081F83D0002988C
:1049B000FEF79CF800E0FFE7FFE70298016848680F
:1049C00040F4407048606AE0029890F83E00002889
:1049D00063D0FFE70298408D012807D1FFE70298D6
:1049E0000168086820F480600860FFE702980168A9
:1049F000486820F440704860009810F5803F0DD062
:104A0000FFE70098082809D0FFE70098B0F12A4F87
:104A100004D0FFE70098202807D1FFE7029801683B
:104A2000086840F400700860FFE702980168486871
:104A300020F48050486002980168486820F40060C3
:104A400048600299002048850298006C20B1FFE779
:104A50000298FDF7A1FC1FE00299202081F83D009B
:104A6000029890F83E0040280AD1FFE70299002002
:104A700081F83E00029908630298FDF7EFFD0AE015
:104A80000299002081F83E000299122008630298E2
:104A9000FDF7DCFDFFE7FFE700E0FFE7FFE704B01D
:104AA00080BD000081B00090009800684069C1B2EC
:104AB0000020B0EBD11F05D0FFE70098016800206F
:104AC0000861FFE701B0704780B584B00390039898
:104AD00090F83D008DF80B00039890F83E008DF89B
:104AE0000A009DF80A00102805D0FFE79DF80A008B
:104AF00040280CD1FFE79DF80B00222807D1FFE7E3
:104B000003980168086820F400600860FFE79DF8DA
:104B10000B0000F02800282808D1FFE703990020A7
:104B200008630399282081F83D001AE00398006883
:104B3000406800F40060B0F5006F0ED0FFE79DF80C
:104B40000B00602809D0FFE70399202081F83D0081
:104B50000399002081F83E00FFE7039900200863D5
:104B6000FFE7039800684068000500285DD5FFE76F
:104B700003980168486820F4006048600398406B1F
:104B800090F8210001281DD0FFE70398416B44F203
:104B90002D70C0F6000048630398406BFCF78EFC54
:104BA00078B1FFE703980168086820F00100086009
:104BB0000399202081F83D000398406B416B8847A2
:104BC000FFE731E00398816B44F22D70C0F60000DE
:104BD00048630398806BFCF771FC20B3FFE70398F0
:104BE0000068406900F040010120B0EB911F0BD13B
:104BF000FFE70398006800690399496A0870039900
:104C0000486A01304862FFE703980168086820F0AD
:104C1000010008600399202081F83D000398806B13
:104C2000416B8847FFE7FFE745E0039890F83D00B8
:104C3000602826D1FFE70399202081F83D000399E1
:104C40000020086403980068406900F040010120DA
:104C5000B0EB911F0BD1FFE703980068006903993F
:104C6000496A08700399486A01304862FFE703986F
:104C70000168086820F0010008600398FDF7D6F885
:104C800018E003980068406900F040010120B0EB93
:104C9000911F0BD1FFE70398006800690399496AE7
:104CA00008700399486A01304862FFE70398FDF7EE
:104CB00073FBFFE7FFE70398006C01909DF8040089
:104CC000C00790B9FFE7019800F0020002280CD05D
:104CD000FFE7019800F00400042806D0FFE79DF8E4
:104CE00004000007002807D5FFE70398016848681B
:104CF00020F4E0604860FFE7039890F83D008DF8ED
:104D00000B000398006C4007002818D5FFE79DF8BA
:104D10000B00282813D1FFE703990020CFF6FF707E
:104D2000C862039900200863039A202182F83D108D
:104D3000039981F83E000398FDF784FCFFE704B077
:104D400080BD000082B0009000980068406900F4C7
:104D500080610120B0EB912F1ED1FFE70098016820
:104D60006FF480604861009900200863009A202158
:104D700082F83D10009981F83E000099086C40F0DF
:104D800004000864FFE70099002081F83C00FFE779
:104D900001208DF8070003E000208DF80700FFE7F1
:104DA0009DF8070002B0704780B582B0019001986D
:104DB000C06A00900198408D042815D1FFE7019842
:104DC0000168486820F480604860019800680069C4
:104DD0000199496A08700199486A0130486201994D
:104DE000488D01384885ACE00198408D032824D1D6
:104DF000FFE701980168486820F4806048600098E7
:104E000004280BD0FFE70098022807D0FFE701989D
:104E10000168086820F480600860FFE70198006876
:104E200000690199496A08700199486A013048622D
:104E30000199488D0138488582E00198408D02280B
:104E40006ED1FFE70098012804D0FFE700981028F2
:104E500007D1FFE701980168086820F480600860C6
:104E60001CE00098042804D0FFE70098022807D12E
:104E7000FFE701980168086840F4806008600CE072
:104E80000098102807D0FFE701980168086840F4EF
:104E90000070086000E0FFE7FFE7FFE701980068A7
:104EA00000690199496A08700199486A01304862AD
:104EB0000199488D01384885019800680069019979
:104EC000496A08700199486A013048620199488D21
:104ED0000138488501980168486820F440704860AE
:104EE0000199202081F83D00019890F83E0040286B
:104EF0000AD1FFE70199002081F83E00019908637B
:104F00000198FDF7ABFB0AE00199002081F83E0013
:104F10000199122008630198FDF798FBFFE70EE066
:104F20000198006800690199496A08700199486A06
:104F3000013048620199488D01384885FFE7FFE755
:104F4000FFE702B080BD000080B582B001900198FB
:104F500090F83D00222840F09980FFE70198408DAD
:104F60000090009804281BD3FFE7019800680069AF
:104F70000199496A08700199486A013048620199AB
:104F8000488D013848850198408D032807D1FFE7F7
:104F900001980168486820F480604860FFE774E089
:104FA0000198C06A022868D0FFE70098012804D061
:104FB000FFE70098002860D1FFE7019801F000F9B1
:104FC000D0BBFFE701980168086820F480600860A2
:104FD00001980168486820F4E06048600198006822
:104FE00000690199496A08700199486A013048626C
:104FF0000199488D013848850199202081F83D00AC
:10500000019890F83E0040280AD1FFE7019900205E
:1050100081F83E00019908630198FDF71FFB0AE043
:105020000199002081F83E0001991220086301983F
:10503000FDF70CFBFFE71FE001980168486820F4CA
:10504000E06048600198006800690199496A087049
:105050000199486A013048620199488D01384885B4
:105060000199202081F83D000199002081F83E003F
:105070000198FDF791F9FFE706E00198016848689B
:1050800020F480604860FFE7FFE7FFE702B080BDE3
:1050900080B582B001900198C06A0090019890F8A4
:1050A0003D00212860D1FFE70198408D70B1FFE7F6
:1050B00001980168406A007808610199486A0130E6
:1050C00048620199488D013848854CE000980828CD
:1050D0001ED0FFE7009820281AD0FFE7009810F5AF
:1050E000803F15D0FFE701980168486820F4E06030
:1050F00048600199112008630199002081F83E0061
:105100000199202081F83D000198FDF7A3FA29E0DC
:1051100001980168486820F4E060486001980168DF
:10512000086840F400700860019900200863019944
:10513000202081F83D00019890F83E00402808D1D9
:10514000FFE70199002081F83E000198FDF7AAFAD7
:1051500007E00199002081F83E000198FDF77AFAF6
:10516000FFE7FFE7FFE700E0FFE702B080BD0000D8
:1051700080B584B00390039890F83D008DF80B0043
:10518000039890F83E008DF80A000398C06A0190D9
:105190000398008D002852D1FFE79DF80B002128CD
:1051A0004DD1FFE7019808281ED0FFE7019820287D
:1051B0001AD0FFE7019810F5803F15D0FFE703985C
:1051C0000168486820F4E060486003991120086392
:1051D0000399002081F83E000399202081F83D00CA
:1051E0000398FDF737FA29E003980168486820F42E
:1051F000E060486003980168086840F40070086047
:105200000399002008630399202081F83D0003984A
:1052100090F83E00402808D1FFE70399002081F86C
:105220003E000398FDF73EFA07E00399002081F85D
:105230003E000398FDF70EFAFFE7FFE735E09DF823
:105240000B0021280AD0FFE79DF80A0040282AD148
:10525000FFE79DF80B00222825D1FFE70398408D3A
:1052600038B9FFE703980168486820F48060486017
:1052700018E0039890F83E00402804D1FFE7039817
:1052800000F05EFA0DE003980168406A007808615A
:105290000399486A013048620399488D013848856E
:1052A000FFE7FFE700E0FFE7FFE704B080BD000095
:1052B00081B000900098406CC0B200990968086104
:1052C0000098406B28B1FFE70098406B806A48B9AE
:1052D000FFE70098806B60B1FFE70098806B806A01
:1052E00038B1FFE700980168486840F40060486002
:1052F000FFE701B0704700008FB00E900E9890F855
:105300003E008DF837000E98C06A0C900E98006B26
:105310000B900E9890F83D00222840F08981FFE71D
:105320000E98006D98B9FFE79DF8370040280ED120
:10533000FFE7FFE700200A900E98006840690A9096
:105340000E98006880690A900A98FFE76FE10E984E
:10535000006DF0B9FFE70E980069B0F5404F18D125
:10536000FFE7FFE7002009900E9800684069099068
:105370000E980068806909900998FFE70E98016807
:10538000086840F4807008600E99086D0130086567
:105390004CE10E98408DA0B9FFE7FFE70020089090
:1053A0000E980068406908900E980068806908901F
:1053B0000898FFE70E980168086840F400700860DC
:1053C00030E10E98408D012840F09080FFE70C9866
:1053D00010F5803F36D1FFE70E980168086820F489
:1053E000806008600E98006840680005002814D5A9
:1053F000FFE70E980168086820F480600860FFE706
:10540000002007900E980068406907900E98006889
:10541000806907900798FFE713E0FFE700200690F8
:105420000E980068406906900E98006880690690A2
:105430000698FFE70E980168086840F4007008605D
:10544000FFE752E00C98082834D0FFE70C9820289A
:1054500030D0FFE70B98122804D1FFE70C98012801
:1054600028D1FFE70C9804280FD0FFE70C980228FA
:105470000BD0FFE70C98102807D0FFE70E980168C3
:10548000086820F48060086006E00E9801680868EB
:1054900040F480600860FFE7FFE7002005900E9869
:1054A0000068406905900E9800688069059005982D
:1054B000FFE719E00E980168086820F48060086032
:1054C000FFE7002004900E980068406904900E9851
:1054D0000068806904900498FFE70E9801680868E6
:1054E00040F400700860FFE7FFE79AE00E98408DF7
:1054F00002285ED1FFE70C98042822D0FFE70C9821
:1055000002281ED0FFE70C9810281AD0FFE70E984B
:105510000168086840F400600860FFE7002003901D
:105520000E980068406903900E98006880690390A7
:105530000398FFE70E980168086820F4806008600F
:1055400013E00E980168086840F480600860FFE787
:10555000002002900E980068406902900E98006842
:10556000806902900298FFE7FFE70E9800684068A4
:10557000000500281CD5FFE70C9810F5803F10D0DF
:10558000FFE70C9801280CD0FFE70C98082808D0FA
:10559000FFE70C98102804D0FFE70C98202807D1CB
:1055A000FFE70E980168486840F480504860FFE7C4
:1055B00036E00E980168086840F4806008600E9834
:1055C00000684068000500281CD5FFE70C9810F51E
:1055D000803F10D0FFE70C9801280CD0FFE70C9813
:1055E000082808D0FFE70C98102804D0FFE70C9893
:1055F000202807D1FFE70E980168486840F48050E2
:105600004860FFE7FFE7002001900E9800684069BE
:1056100001900E980068806901900198FFE7FFE70C
:10562000FFE7FFE70E9900200865FFE7FFE70DE0C1
:10563000FFE7002000900E980068406900900E98E7
:105640000068806900900098FFE7FFE70FB070479F
:1056500081B00090009890F83E00402816D1FFE7F6
:105660000098006D40B9FFE70098406C00F0FE0024
:1056700000990968086108E00098406C40F001005A
:10568000C0B2009909680861FFE757E00098006917
:10569000B0F5804F31D1FFE7009890F83D00212808
:1056A00008D1FFE70098406C00F0FE0000990968FF
:1056B000086108E00098406C40F00100C0B2009919
:1056C00009680861FFE70098406B28B1FFE7009880
:1056D000406B806A48B9FFE70098806B60B1FFE7D4
:1056E0000098806B806A38B1FFE7009801684868CD
:1056F00040F400604860FFE71FE00098006D50B97B
:10570000FFE70098406C00F44070C009F030009949
:105710000968086110E00098006D01280AD1FFE7D0
:105720000098406C00F44070C009F130009909689D
:10573000086100E0FFE7FFE7FFE7FFE701B0704720
:1057400080B582B00190019890F83D008DF803007B
:105750000198006DE8B9FFE70198C06C01280BD1F2
:10576000FFE70198806CC0B201990968086101994E
:10577000086D023008650BE00198806C80B2000A69
:105780000199096808610199086D01300865FFE712
:1057900068E00198006D01280BD1FFE70198806C4B
:1057A000C0B20199096808610199086D0130086566
:1057B00057E00198006D02284ED1FFE79DF80300E5
:1057C00022280BD1FFE701980168086840F4807037
:1057D00008600199086D013008653CE00198408D32
:1057E00098B1FFE79DF8030021280ED1FFE701984B
:1057F0000168406A007808610199486A013048628E
:105800000199488D0138488524E00198408DF8B908
:10581000FFE79DF8030021281AD1FFE701980168EE
:10582000486820F4E060486001980168086840F426
:1058300000700860019900200863019A202182F815
:105840003D10019981F83E000198FCF72BFF00E024
:10585000FFE7FFE7FFE703E00198FFF723F9FFE722
:10586000FFE7FFE702B080BD80B586B0DDF824C059
:10587000DDF820C00490ADF80E10ADF80C20ADF8A6
:105880000A3004980168086840F480600860049851
:105890000168086840F4807008600498089B0999C2
:1058A0006A4611604FF00111002200F05BFB80B1ED
:1058B000FFE7049800680068C005002805D5FFE7E9
:1058C00004994FF400700864FFE703208DF8170077
:1058D000B7E0BDF80E0000F0FE0004990968086109
:1058E0000498089A099B0221C0F2010100F0BEFB56
:1058F00020B1FFE701208DF81700A2E0FFE70020AC
:1059000001900498006840690190049800688069DB
:1059100001900198FFE704980899099A00F08CFC1F
:1059200080B1FFE70498006C042807D1FFE70498D2
:105930000168086840F400700860FFE701208DF8F6
:1059400017007EE0BDF80A00012806D1FFE79DF8A8
:105950000C0004990968086121E09DF80D00049984
:105960000968086104980899099A00F065FC80B1FB
:10597000FFE70498006C042807D1FFE7049801684A
:10598000086840F400700860FFE701208DF81700F8
:1059900057E09DF80C00049909680861FFE7049836
:1059A0000899099A00F048FC80B1FFE70498006C60
:1059B000042807D1FFE704980168086840F40070E4
:1059C0000860FFE701208DF817003AE004980168AD
:1059D000086840F4807008600498089B09996A463A
:1059E00011604FF00111002200F0BCFA80B1FFE716
:1059F000049800680068C005002805D5FFE70499F1
:105A00004FF400700864FFE703208DF8170018E0DA
:105A10009DF80E0040F0010004990968086104989F
:105A2000089A099B0221C0F2010100F01FFB20B17E
:105A3000FFE701208DF8170003E000208DF8170024
:105A4000FFE79DF8170006B080BD000081B0009010
:105A50000098408D78B1FFE70098006800690099D0
:105A6000496A08700099486A013048620099488D77
:105A700001384885FFE701B07047000080B582B06B
:105A80000190019890F83D008DF803000198408D39
:105A900048B3FFE70198006800690199496A0870F6
:105AA0000199486A013048620199488D013848855A
:105AB0000198408DB0B9FFE79DF803002A2811D165
:105AC000FFE701980168486820F480604860019908
:105AD000222008630199282081F83D000198FDF7F4
