:020000040800F2
:10000000080D002035020008A9450008993F0008A6
:10001000A545000819140008F5500008000000006C
:1000200000000000000000000000000081480008FF
:10003000E514000800000000194600086D4900089A
:100040004F0200084F0200084F0200084F0200084C
:100050004F0200084F0200084F0200084F0200083C
:100060004F0200084F0200084F0200084F0200082C
:100070001D1400084F0200084F0200084F0200083C
:100080002D1400084F0200084F0200084F0200081C
:100090004F0200084F0200084F0200084F020008FC
:1000A0004F020008E54900084F0200084F0200080F
:1000B0004F0200084F0200084F0200084F020008DC
:1000C0004F0200084F0200084F0200084F020008CC
:1000D0004F0200084F0200084F0200084F020008BC
:1000E0004F0200084F0200084F02000800F002F81B
:1000F00000F090F80AA090E8000C82448344AAF132
:100100000107DA4501D100F085F8AFF2090EBAE82F
:100110000F0013F0010F18BFFB1A43F0010318473B
:10012000485F0000685F0000103A24BF78C878C1BB
:10013000FAD8520724BF30C830C144BF04680C60ED
:10014000704700000023002400250026103A28BF35
:1001500078C1FBD8520728BF30C148BF0B60704739
:100160006E2900F09181702900F0D382662905F094
:100170009D86652905F09A86672905F0978661298D
:1001800005F0968603681B0A28BF41F080016929A3
:1001900000F03E81642900F03B81752900F0388130
:1001A0006F2900F06182782900F09F82E92900F030
:1001B000FB81E42900F0F881F52900F0F581EF29B1
:1001C00000F05E82F82900F09E820368DB0928BFF8
:1001D00041F08001632900F09F87732900F0A48714
:1001E000E32900F0AF87F32900F0B48700207047BF
:1001F0001FB501F005F804000020002105F044FCC3
:10020000401C60600020002105F028FCE0601FBD5C
:1002100010B510BD00F0C6FF1146FFF7E9FF04F06E
:10022000CBFF01F0A3F803B4FFF7F2FF03BC01F02A
:10023000EBF800000948804709480047FEE7FEE761
:10024000FEE7FEE7FEE7FEE7FEE7FEE7FEE7FEE786
:1002500004480549054A064B70470000E14900087B
:10026000ED00000808070020080D00200809002004
:10027000080900200FB41CB5084B06AA7B44694648
:100280000090059800F019F904460020694600F036
:1002900027F920461CBC5DF814FB00006102000039
:1002A00010B5431C02E010F8011B71B18107FAD1AF
:1002B0004FF0013202C88C1A8C4314EAC211F9D0F3
:1002C000C01A0A0603D0C01E10BDC01A10BD0A0411
:1002D00001D0801E10BD0902FCD0401E10BD421E80
:1002E00012F8013F002BFBD111F8013B002B02F863
:1002F000013BF9D170474FF0000200B51346944618
:100300009646203922BFA0E80C50A0E80C50B1F16D
:100310002001BFF4F7AF090728BFA0E80C5048BF81
:100320000CC05DF804EB890028BF40F8042B08BF1F
:10033000704748BF20F8022B11F0804F18BF00F81B
:10034000012B704770477047704770B50446856948
:100350000068C10601D5302600E02026C00707D07E
:1003600070BDD4E9012130469047206A401C2062CC
:100370006D1EF6D570BD70B5044685690078C0075E
:1003800007D170BDD4E9012120209047206A401C8C
:1003900020626D1EF6D570BD09684A0501D540B2D0
:1003A0007047C905FCD500B2704709684A0501D5F8
:1003B000C0B27047C905FCD580B2704770B50C4615
:1003C0000546012A05D02878800600D5EA69002371
:1003D00002E0012305E05B1C934202D2E05C0028AE
:1003E000F9D1A869E618C01AA861286A18442862D9
:1003F0002846FFF7AAFF04E0D5E9012114F8010B14
:100400009047B442F8D32846FFF7B5FF70BD00000F
:100410002DE9F0410646002410687529314616A5DD
:1004200010D0FFF7B9FF002802DA404213A507E019
:1004300031688A0701D512A502E0490704D511A544
:10044000012401E0FFF7B1FF00210A2206F1240791
:1004500009E0B0FBF2FCB0FBF2F302FB1C00303011
:1004600078541846491C0028F3D123462A463046C2
:10047000BDE8F04100F061BA000000002D0000006E
:100480002B0000002000000011680268006A53057C
:1004900001D508700AE0D30501D5088006E01306EF
:1004A00003D5C217C1E9000200E0086001207047CF
:1004B00001694A1C02610878704700B58FB0CDE928
:1004C00001310021059105497944CDE90310114618
:1004D000684600F029F90FB000BD0000E5FFFFFFFE
:1004E0000A6802F8010B0A60704700002DE9FF5FFF
:1004F00015468A460446DFF8AC80F8440027D8E960
:1005000000103E46CDE9001010E03AF816106A4699
:1005100002A800F023FE411C07D02178890603D5EC
:10052000E269391891420DD80744761C207880067C
:1005300002D5E069B84205DDAE42E6DB3AF81600C6
:100540000028E2D1A069C01BA0612046FFF7FDFE94
:10055000D8E90010CDE90010002017E03AF8181093
:100560006A4602A800F0FAFDB0F1FF3F81460BD0C9
:1005700000250DF1080B05E0D4E901211BF8050069
:1005800090476D1C4D45F7D308F10100B0428046FD
:10059000E4DB206A384420622046FFF7ECFEBDE829
:1005A000FF9F0000B65900002DE9F0418046D21DA2
:1005B00022F007020025D2E90002F52915A614D081
:1005C000011E72F1000106DA0023D0EB030063EB99
:1005D000020211A608E0D8F800108B0701D50FA67B
:1005E00002E0490701D50EA601251146002408F1B5
:1005F000240704E000F05CF930323A55641C50EAFC
:100600000102F7D12B46324621464046BDE8F04173
:1006100000F093B9000000002D0000002B00000046
:100620002000000030B4002100F1240408E002F0B2
:100630000705D208303542EA4372DB086554491C8D
:1006400052EA0305F3D10468002310A2250708D558
:1006500004F020040C4304D0C46901230CA2641EDE
:10066000C46130BC00F069B910B504462146106879
:10067000FFF79BFE02462046BDE810400023D1E76D
:10068000D21D22F00701D1E90023CBE700000000D2
:1006900030000000F0B40D460188090502D5214C58
:1006A0007C4402E01F4C7C440E34002100F12406FF
:1006B00008E002F00F071209E75D42EA03721B0926
:1006C0007754491C52EA0307F3D10278002312073A
:1006D00004D5702D06D009B1022311342246F0BC96
:1006E00000F02BB901231034F8E770B504460D462D
:1006F00021461068FFF759FE024629462046BDE80C
:1007000070400023C6E7D21D22F00703D3E900237F
:10071000C0E70368126843F0200303600823C36145
:100720000023B7E7185800002DE9F05F894604461A
:100730004FF0000ADFF874B1FB44C0F820A0204657
:10074000E1688847002874D0252806D0D4E9012123
:100750009047206A401C2062F1E700265F46204651
:10076000E16888472028054607DB312D05D2781936
:1007700010F8200C08B10643F1E7B00701D526F0C8
:100780000406C4F81CA00027C4F818A02A2D09D01C
:10079000284605F05BF938B304EB8708303DC8F80C
:1007A000185019E059F8041B204604EB87029161A8
:1007B000E1688847012F054618D1E069002820DA52
:1007C00026F020061DE0D8F8180000EB800005EBAD
:1007D00040003038C8F818002046E16888470546D0
:1007E00005F034F90028EED1012F0AD02E2D08D1C2
:1007F0002046E16888477F1C0546022F46F0200608
:10080000C4DBA069002803DA404246F00106A0617B
:10081000F00701D026F010066C2D0BD0682D09D002
:100820004C2D39D06A2D35D0742D35D07A2D33D05A
:1008300016E038E0E1682F4620468847B842054672
:1008400009D16C2F26D04FF48060E1680643204622
:100850008847054604E06C2F1AD04FF48070064399
:100860000DB3A5F14100192802D8203546F40066E1
:100870004A462946204626604E46FFF771FC80B165
:1008800001280BD0F61D26F0070000F1080956E7F5
:100890004020E4E78020D8E70020D6E706F10409ED
:1008A0004DE7284652E7206ABDE8F09FA8570000B0
:1008B00030B5B0F10A0271F100034FEA900E4EEA32
:1008C000817EB0EB0E0061EB91014FEA101E4EEA03
:1008D000017E10EB0E0041EB11114FEA102E4EEA93
:1008E000016E10EB0E0041EB11214FEA104E4EEA63
:1008F000014E10EB0E0041EB1141401841F1000197
:100900004FEAD00040EA41704FEAD1014FEA81043A
:1009100044EA907410EB800544EB01046D1944EB3C
:100920000404521BA3414FF0000348BF0A3200D514
:1009300030BD401C41F1000130BD2DE9F0470D46AE
:1009400099469246044600F124080168880604D5B9
:10095000E06921F01001216000E00120A84201DDE2
:10096000471B00E00027A1697A1902EB0900081A69
:10097000A0612078C00602D42046FFF7E6FC0026DE
:1009800008E0D4E901211AF806009047206A401CCB
:10099000761C20624E45F4DB2078C0060AD520463E
:1009A000FFF7D3FC06E0D4E9012130209047206A0C
:1009B000401C2062381EA7F10107F4DC07E0D4E9EF
:1009C000012118F805009047206A401C2062281E6B
:1009D000A5F10105F3DC2046FFF7CDFC20780006E9
:1009E00002D50220BDE8F0870120FBE72DE9FF4F8B
:1009F0000C461E464FF0FF378BB0D2E90001DDF800
:100A000060800A908A46C1F30A5505B93D46002127
:100A100008464FF00000BAF1000F00F4400005DA7C
:100A200000EB80004FF4400101EA50004FEA90597A
:100A3000B9F1010F00DDB9460A9850EA4A000ED01C
:100A400044F61050A5F2FF3545432F14B8F1000FBE
:100A50001ED07542291E1EDDC9F100021CE0B8F14E
:100A6000010F4FF0000001D0302103E0F24305E018
:100A70002154401CB042FBDB3046002200212154AF
:100A80000B99C1F80880C1E900200FB0BDE8F08FD4
:100A9000BD1B6D1CDEE74A4600DA694206A800F07D
:100AA000F3FB06AB93E8070003AB83E8070050466F
:100AB0000A9904F0EFFB8DE80700A0F500501F38FD
:100AC00000900398002D0ADD42F21F014A460844B7
:100AD000002303A90390684604F058FE09E0A0F53E
:100AE00000504A461F38002303A90390684604F0CB
:100AF00062FE8DE807000004000C03D04FF0FF30C9
:100B0000410800E01046B8F1000F03D00022009227
:100B100015461EE0751E05D4FFF7CAFE3032625539
:100B20006D1EF9D5B3460122084302D000227F1C76
:100B300004E02078302801D100227F1E002A099786
:100B400084D01DE0112D07DAFFF7B2FE3032625576
:100B50006D1C50EA0102F5D1084302D00098C8B1DB
:100B60000EE00021681E05E0235C625C63542254A1
:100B7000401E491C8142F7DBAB46A81B401E099072
:100B8000002004F80B000B98099AC0F80880C0E90F
:100B9000002B7AE711264FF0000857E72DE9F04FB8
:100BA00088460446D21D22F0070191B0D1E9000128
:100BB000CDE90A0104F036FF02460B98C00F01D0C0
:100BC0002D2007E02068810701D52B2002E020219D
:100BD00001EAC000032A099001D0072A05DB034679
:100BE0004146204600F010FB0BE12078800601D53D
:100BF000E06900E00620B8F1650F814606D0B8F143
:100C0000660F18D0B8F1670F70D131E00020B9F14C
:100C1000110F009001DB112301E009F101030AAA81
:100C200001A90CA8FFF7E2FEDDE90C70002609F12E
:100C30000105834647E001204B4600904FF00047F6
:100C40000AAA01A90CA8FFF7D1FEDDE90DB00C99A5
:100C50005D46002610B909F101000D18B9EB050039
:100C600003D4C0F1FF3609F10105A5EB09002BE023
:100C7000B9F1010F01DA4FF001090020B9F1110FAC
:100C80000090484601DD112300E003460AAA01A9AD
:100C90000CA8FFF7ABFEDDE90C704D46002683463D
:100CA000207800070AD4AB4500DA5D4601A8012D83
:100CB00004DD411911F8011C302907D04F4502DA33
:100CC00017F1040F04DA012082460FE06D1EEEE7F3
:100CD000002F02DCED1B3E4403E0781CA84200DD3F
:100CE0007D1CB81B00F1010A4FF000472078000777
:100CF00003D4AA4501DB4FF0FF3A0021B7F1004FC2
:100D00000DF143088DF8431024D002202B23002F2F
:100D100001DA7F422D230A21021EA0F1010000DC2E
:100D20005FB197FBF1FC97FBF1F201FB1C7C1746CE
:100D30000CF1300C08F801CDEEE7A8F101000370CA
:100D40002188090501D5452100E06521A0F10108B0
:100D500000F8011C09980FA9A1EB0807FF1D00B1BD
:100D60000120411901EBEA70A1693844081A401EBC
:100D7000A0612078C00602D42046FFF7E6FA099861
:100D800028B1D4E901219047206A401C20622078D4
:100D9000C00622D52046FFF7D8FA1EE0002E04DB5D
:100DA000B34502DD01A8805D00E03020D4E90121D7
:100DB0009047206A401C2062761CAAF101005FEA7D
:100DC000000A0AD100F01CFAC0680168405CD4E94E
:100DD00001219047206A401C2062281EA5F10105D0
:100DE000DCDC07E0D4E9012118F8010B9047206A08
:100DF000401C2062381EA7F10107F3DC2046FFF7F4
:100E0000BAFA032011B041E62DE9F04F04460D4631
:100E1000D21D22F0070089B0D0E900974846394634
:100E200004F000FE0246F80F01D02D2307E02068F1
:100E3000810701D52B2302E0202101EAC0038DF8B0
:100E400020300BB1012000E00020032A824601D0AF
:100E5000072A04DB2946204600F0D6F93FE1207836
:100E6000800601D40D2500E0E569C7F30A560D2D73
:100E700049DA00214FEA175B08464FF00000002FC7
:100E800000F4400007DA00EB80004FF4400100EB73
:100E9000D07001EA60008115012901DD4FF0FF31BA
:100EA00000224FEA850CBCF1180F06D31346ACF1B3
:100EB00018004FF08052C24003E04FF4801323FA31
:100EC0000CF30CF10C0CBCF1200F04D3ACF1200C92
:100ED00009FA0CF001E007FA0CF000294FF0004885
:100EE00001DD18B90FE00ED140450CD319EB020912
:100EF0005F4121B9404502D19F4329EA0209BBEB7A
:100F0000175F00D0761C2088000502D57B48784406
:100F100002E07A487844193808AA302302F80A30E7
:100F2000037C0AF10101002E0AF1020A53546A46B9
:100F300002DC4FF0300101E04FF031014FF00108C9
:100F40008DF8001002D0A6F2FF3603E059EA4701FF
:100F500000D06B4E002D02DC2178090704D54FF03C
:100F600002082E218DF80110C44600210BE0C7F3C2
:100F700003433F01C35C491C6D1E02F8083005297C
:100F800008F1010801DA002DF1DC00210CE000EB92
:100F90001973491C1B786D1E082902F808304FEAA6
:100FA000091908F1010801DA002DF0DC21688B062F
:100FB00002D516E0A8F10108E04505DD02EB0803C3
:100FC00013F8013C302BF5D0B8F1000F09DD02EB2E
:100FD000080313F8013C2E2B03D1090701D4A8F113
:100FE0000108002D05DD3E2102F808106D1E08F1F4
:100FF0000108407C002E02F8080008F1010804DA1C
:101000002D20764202F8080002E02B2002F80800AA
:101010000A214FF47A70864208F101080BDB96FB37
:10102000F0F3303302F8083096FBF0F308F10108D2
:1010300000FB136601E0642E0CDB642096FBF0F3EA
:10104000303302F8083096FBF0F308F1010800FB9A
:10105000136601E00A2E06DB96FBF1F0303002F851
:10106000080008F1010896FBF1F001FB1060303038
:1010700002F80800A16908F1010808EB050202EB7B
:101080000A00081AA0612078C00602D42046FFF7A3
:101090005CF9216A08AE01EB0A00206204E0D4E9A1
:1010A000012116F8010B9047BAF1010AF7D2207816
:1010B000C00602D52046FFF748F96E4609E016F84B
:1010C000010B3E280FD0D4E901219047206A401C33
:1010D0002062B8F10108F2D22046FFF74CF909B0BE
:1010E0000320BDE8F08F206A2844206203E0D4E9A1
:1010F0000121302090476D1EEBD3F8E7F64F00003A
:1011000002FCFFFF10B5436913B1AFF3008001E0AB
:10111000FFF754F9012010BD127800F124010A7084
:1011200000224A700122EDE711684FF0FF32E9E733
:1011300010B5436913B1AFF3008001E0FFF7D6F9B2
:10114000012010BD128800F1240182840022C28493
:101150000122EDE711684FF0FF32E9E72DE9F04198
:1011600016460C46054600F043F8036893F8010163
:10117000012807D0FF2C12D8185D80B101202C70F7
:10118000BDE8F081D3F807013246214603F2071388
:10119000C7182846BC46BDE8F041002360474FF021
:1011A000FF30EDE7754600F0EBF8AE460500694606
:1011B000534620F00700854618B020B5FFF748F8E1
:1011C000BDE820404FF000064FF000074FF0000848
:1011D0004FF0000BAC46ACE8C009ACE8C009ACE885
:1011E000C009ACE8C00921F007018D467047000036
:1011F00010B500F005F8001D10BD00BF8D480000BF
:1012000000487047300000202DE9F0411F46044699
:1012100003260168072A01F4006004DB08B116A563
:1012200005E016A503E008B115A500E015A521F01D
:1012300010002060A069C01EA0610FB1401EA06117
:101240002046FFF782F84FB1D4E901213846904794
:10125000206A401C2062C01C206206E0206AFAE777
:10126000D4E9012115F8010B9047761EF8D22046EB
:10127000FFF781F8BDE8F0814E414E006E616E00CF
:10128000494E4600696E66002DE9F04781461646D4
:101290008AB0354878440DC88DE80D00324878444E
:1012A000801C03AC0DC884E80D0041F69B30084457
:1012B000372190FBF1F290FBF1F5A5F1800501FBE0
:1012C00012041B3C02D56442012000E00020DFF83C
:1012D00098A080460027FA44AAF1BE0A0EE0E00773
:1012E0000AD03246684607EB470101230AEB810129
:1012F00004F061FA8DE8070064107F1C002CEED129
:10130000194F7F44AE3F19E0E80715D007EB0410F2
:101310000DF1180A90E80E008AE80E00C068F0424D
:1013200001D1981908903246012306A903A804F0B8
:1013300042FA03AB83E807006D10641C002DE3D173
:101340004FF0010332466946B8F1000F03A802D0FE
:1013500004F01CFA01E004F02EFAC9E90001C9F812
:1013600008200AB0BDE8F087004D000010B5044623
:10137000AFF300802046BDE81040FEF754BF0000E8
:1013800000487047100000204FF0013C50F8042B3B
:1013900051F8043B9A4221D1A2EB0C03934313EA88
:1013A000CC1317D150F8042B51F8043B9A4215D1B5
:1013B000A2EB0C03934313EACC130BD150F8042B8C
:1013C00051F8043B9A4209D1A2EB0C03934313EA70
:1013D000CC13DBD04FF00000704700BFD01A01BA29
:1013E000B1FA81F101F0180122FA01F0CB40DBB231
:1013F000C0B2C01AC1F120012CFA01F3D11A9143F5
:1014000011EAC311E6D1704701491820ABBEFEE7CF
:101410002600020070470000FFE7FEE780B540F2BB
:101420007800C2F2000000F07FF880BD80B540F285
:10143000BC00C2F2000000F077F880BD84B00390D9
:101440000291019200930398C16B026C01209040BD
:10145000486000980399096848600398406810281C
:1014600009D1FFE7019803990968886002980399F8
:101470000968C86008E002980399096888600198C3
:1014800003990968C860FFE704B0704780B584B06D
:1014900041F20000C4F2010001904FF4805102912A
:1014A000002200F00DFC4FF4F07000F01DF80198E0
:1014B0000299012200F004FC462000F015F8019882
:1014C000029900F0E5FB012804D1FFE701208DF827
:1014D0000F0003E000208DF80F00FFE79DF80F00DC
:1014E00004B080BD7047000081B0009040F2A010B1
:1014F000C2F20000016800204862FFE740F2A0103D
:10150000C2F200000068406A0099884201D2FFE7F9
:10151000F4E701B07047000081B0EFF3108072B6BD
:101520000090FFE7FEE7000080B58EB00D900D98AB
:10153000C06B00680C900D98006800680B900C98C8
:101540000D99096CC8404007002875D5FFE79DF844
:101550002C00400700286FD5FFE70D980068006851
:101560008006002807D4FFE70D980168086820F07E
:1015700004000860FFE70D9800680821C4F202012A
:10158000884203D1FFE704200A9047E00D980068E5
:101590001C21C4F20201884203D1FFE740200990D8
:1015A00039E00D9800683021C4F20201884204D16C
:1015B000FFE74FF4806008902AE00D98006844210E
:1015C000C4F20201884204D1FFE74FF48040079043
:1015D0001BE00D9800685821C4F20201884204D132
:1015E000FFE74FF4802006900CE00D9801686C2214
:1015F000C4F202024FF08060914208BF4FF48000B5
:101600000690FFE706980790FFE707980890FFE726
:1016100008980990FFE709980A90FFE70A980421C3
:10162000C4F2020108600D98C06A20B1FFE70D986E
:10163000C16A8847FFE7B8E00C980D99096CC8406B
:101640008007002840F18080FFE79DF82C0080078C
:10165000002879D5FFE70D9800680068800600280B
:101660000BD4FFE70D980168086820F00A000860B5
:101670000D99012081F82100FFE70D9800680821ED
:10168000C4F20201884203D1FFE70220059047E03F
:101690000D9800681C21C4F20201884203D1FFE7C3
:1016A0002020049039E00D9800683021C4F2020136
:1016B000884204D1FFE74FF4007003902AE00D98B0
:1016C00000684421C4F20201884204D1FFE74FF4CC
:1016D000005002901BE00D9800685821C4F20201EE
:1016E000884204D1FFE74FF4003001900CE00D98E0
:1016F00001686C22C4F202024FF00070914208BFF0
:101700004FF400100190FFE701980290FFE7029864
:101710000390FFE703980490FFE704980590FFE724
:1017200005980421C4F202010860FFE70D9900202A
:1017300081F82000FFE70D98806A20B1FFE70D983F
:10174000816A8847FFE72FE00C980D99096CC84023
:101750000007002827D5FFE79DF82C000007002888
:1017600021D5FFE70D980168086820F00E00086099
:101770000D98C26B016C012000FA01F151600D99C6
:1017800088630D9981F82100FFE70D99002081F809
:101790002000FFE70D98006B20B1FFE70D98016B6B
:1017A0008847FFE7FFE7FFE7FFE70EB080BD0000D7
:1017B00083B0019000200090019820B9FFE701203C
:1017C0008DF80B0047E0019908684FF6F872CBF6E8
:1017D000FD7210444CF6CD42CCF6CC42A0FB020286
:1017E0006FF0030000EA9200086401990020C4F23F
:1017F0000200C8630199022081F821000198006865
:1018000000680090009843F6F071884300900199B9
:101810004868D1F808C0CB680A6940EA0C00184350
:1018200010434A6910438A691043C969014300980B
:101830000843009000980199096808600199002008
:101840008863019A012182F82110019981F8200012
:101850008DF80B00FFE79DF80B0003B07047000008
:1018600080B586B0049003910292019300208DF818
:101870000300FFE7049890F82000012804D1FFE757
:1018800002208DF817004CE00499012081F8200017
:10189000FFE7FFE7049890F82100012832D1FFE725
:1018A0000499022081F8210004990020886304989B
:1018B0000168086820F00100086004980399029A02
:1018C000019BFFF7BBFD0498C06A38B1FFE704989D
:1018D0000168086840F00E0008600CE00498016898
:1018E000086820F00400086004980168086840F067
:1018F0000A000860FFE704980168086840F00100EA
:10190000086009E0FFE70499002081F82000FFE764
:1019100002208DF80300FFE79DF803008DF8170003
:10192000FFE79DF8170006B080BD000080B584B0C9
:10193000039000F0DDF902900398019001980130C6
:1019400048B1FFE740F20400C2F2000001780198BC
:1019500008440190FFE7FFE700F0CAF90299401A36
:101960000199884201D2FFE7F6E704B080BD00008C
:1019700090B00F900E9100200D900990FFE70E9807
:1019800000680D99C840002800F07F81FFE70D999D
:10199000012088400C900E9800680C9908400B902C
:1019A0000B980C99884240F06C81FFE70E984068D4
:1019B0000590002851D0FFE7059801283AD0FFE7AD
:1019C000059802283FD0FFE7059803285FD0FFE77E
:1019D0000598112832D0FFE70598122838D0FFE784
:1019E00005980021C1F21101884236D0FFE7059821
:1019F0000021C1F2120188422FD0FFE70598002193
:101A0000C1F22101884228D0FFE705980021C1F2E8
:101A10002201884221D0FFE705980021C1F231015F
:101A200088421AD0FFE705980021C1F232018842AE
:101A300013D02FE00E98C06809902CE00E98C06873
:101A40000430099027E00E98C0680830099022E021
:101A50000E98C0680C3009901DE00E98806818B987
:101A6000FFE70420099011E00E988068012806D154
:101A7000FFE7082009900C980F99086105E00820FD
:101A800009900C980F994861FFE7FFE703E00020F9
:101A9000099000E0FFE70B98FF2803D8FFE70F98B5
:101AA000049003E00F9804300490FFE70498089036
:101AB0000B98FF2804D8FFE70D988000039006E0FC
:101AC0000D996FF01F0000EB81000390FFE7039872
:101AD000079008980068079A0F2191408843099958
:101AE00091400843089908600E98C079C006002804
:101AF00040F1C680FFE7FFE741F21800C4F20200A0
:101B0000016841F001010160006800F001000690E9
:101B10000698FFE70D9820F003000821C4F20101A8
:101B200040580A900D9800F0030081000F2000FA41
:101B300001F10A9888430A900F9840F60001C4F218
:101B40000101884203D1FFE70020029026E00F98B0
:101B500040F60041C4F20101884203D1FFE70120B1
:101B6000019018E00F9841F20001C4F2010188428F
:101B700003D1FFE7022000900AE00F9941F20042F2
:101B8000C4F201020420914208BF03200090FFE745
:101B900000980190FFE701980290FFE702980D99E5
:101BA00001F00301890000FA01F10A9808430A9044
:101BB0000A980D9921F003010822C4F2010288500D
:101BC0000E988079C006002809D5FFE70B9A40F2ED
:101BD0000841C4F2010108681043086008E00B9A4C
:101BE00040F20841C4F20101086890430860FFE731
:101BF0000E9880798006002809D5FFE70B9A40F2FD
:101C00000C41C4F2010108681043086008E00B9A17
:101C100040F20C41C4F20101086890430860FFE7FC
:101C20000E9880798007002809D5FFE70B9A40F2CB
:101C30000441C4F2010108681043086008E00B9AEF
:101C400040F20441C4F20101086890430860FFE7D4
:101C50000E988079C00748B1FFE70B9A40F2004127
:101C6000C4F2010108681043086008E00B9A40F2D2
:101C70000041C4F20101086890430860FFE7FFE7F4
:101C8000FFE70D9801300D9079E610B07047000025
:101C900082B00190ADF8021001988068BDF8021082
:101CA000084204D0FFE701208DF8010003E0002086
:101CB0008DF80100FFE79DF8010002B070470000B9
:101CC00082B00190ADF802108DF801209DF801005E
:101CD00028B1FFE7BDF802000199086105E0BDF8F1
:101CE0000200000401990861FFE702B0704700009C
:101CF00040F20070C2F200000068704780B582B008
:101D00000090009820B9FFE701208DF8070040E01F
:101D1000009890F8410040B9FFE70099002081F851
:101D20004000009801F030FFFFE70099242081F87F
:101D3000410000980168C86820F40050C86000980D
:101D400003F08AF800980168086920F4904008615F
:101D500000980168486920F02200486100980168F5
:101D6000486940F00800486100980168C86840F47C
:101D70000050C860009900204864009A202182F831
:101D80004110009A82F84210009948638DF80700CC
:101D9000FFE79DF8070002B080BD000040F204009C
:101DA000C2F20000027840F20071C2F2000108683D
:101DB000104408607047000080B542F20001C4F290
:101DC0000201086840F010000860032000F096F857
:101DD0000F2000F005F800F03BF8002080BD000067
:101DE00080B582B0009040F20000C2F200000068AE
:101DF00040F20401C2F200010A784FF47A71B1FB9B
:101E0000F2F1B0FBF1F001F091FA20B1FFE701200F
:101E10008DF8070018E000980F280DD8FFE700990B
:101E20004FF0FF30002200F04FF8009840F2080118
:101E3000C2F20001086003E001208DF8070003E012
:101E400000208DF80700FFE79DF8070002B080BD75
:101E500083B0FFE741F21800C4F20200016841F0CC
:101E600001010160006800F0010002900298FFE7A4
:101E7000FFE741F21C00C4F20200016841F080510A
:101E80000160006800F0805001900198FFE7FFE7D3
:101E90000421C4F2010108680090009820F0E0607D
:101EA0000090009840F00070009000980860FFE7F4
:101EB00003B0704780B582B08DF807009DF9070028
:101EC00003F01AF902B080BD80B586B08DF8170016
:101ED000049103920020029003F026F902909DF9EC
:101EE0001700019002980499039A02F05FFB0146E3
:101EF000019803F021F906B080BD000080B582B0E2
:101F00000190019803F03AF902B080BD80B584B029
:101F100002900191029820B9FFE701208DF80F008F
:101F20001BE1019842F20001C4F20201096801F0CC
:101F30000701884216D9FFE742F20000C4F202000E
:101F4000016821F00701019A11430160006800F067
:101F500007000199884204D0FFE701208DF80F00A7
:101F6000FBE0FFE702980078800700282AD5FFE70A
:101F7000029800784007002809D5FFE741F20401E4
:101F8000C4F20201086840F4E0600860FFE70298CC
:101F900000780007002809D5FFE741F20401C4F2E8
:101FA0000201086840F460500860FFE741F2040154
:101FB000C4F20201086820F0F000029A926810430F
:101FC0000860FFE702980078C007002860D0FFE7AC
:101FD0000298406801280ED1FFE741F20000C4F2E8
:101FE000020000688003002804D4FFE701208DF878
:101FF0000F00B2E021E00298406802280ED1FFE70E
:1020000041F20000C4F2020000688001002804D4FC
:10201000FFE701208DF80F009FE00DE041F2000086
:10202000C4F2020000688007002804D4FFE7012002
:102030008DF80F0091E0FFE7FFE741F20401C4F2E1
:102040000201086820F00300029A526810430860F9
:10205000FFF74EFE0090FFE741F20400C4F20200D9
:10206000006800F00C0002994968B0EB810F0ED0B7
:10207000FFE7FFF73DFE0099401A41F2893188429F
:1020800004D3FFE703208DF80F0066E0E4E7FFE7E5
:10209000019842F20001C4F20201096801F007014F
:1020A000884216D2FFE742F20000C4F20200016843
:1020B00021F00701019A11430160006800F0070058
:1020C0000199884204D0FFE701208DF80F0044E019
:1020D000FFE702980078400700280CD5FFE741F29F
:1020E0000401C4F20201086820F4E060029AD26898
:1020F00010430860FFE702980078000700280DD51C
:10210000FFE741F20401C4F20201086820F46050C4
:10211000029A126940EAC2000860FFE700F04CF83A
:1021200041F20401C4F202010968C9B20A0945F684
:10213000B071C0F60001895CC84040F20001C2F2F3
:102140000001086040F20800C2F200000068FFF7DA
:1021500047FE00208DF80F00FFE79DF80F0004B048
:1021600080BD000040F20000C2F20000006870472D
:1021700080B5FFF7F7FF41F20401C4F202010968DC
:10218000C1F3022245F6C071C0F60001895CC84067
:1021900080BD000080B5FFF7E5FF41F20401C4F205
:1021A00002010968C1F3C22245F6C071C0F6000100
:1021B000895CC84080BD000086B000200590049076
:1021C00003900290019041F20400C4F20200006802
:1021D0000590059800F00C000146009100283FD0C2
:1021E000FFE70098042804D0FFE70098082806D0ED
:1021F00037E041F20020C0F27A00019037E0059804
:10220000C0F3834145F6C870C0F60000405C029000
:102210009DF81600C007C0B1FFE741F20400C4F208
:1022200002000068C0F3404145F6D870C0F60000D7
:10223000405C0490029841F20021C0F27A014843C8
:102240000499B0FBF1F0039007E0029840F600110A
:10225000C0F23D0148430390FFE70398019006E078
:10226000FFE741F20020C0F27A000190FFE70198F9
:1022700006B0704780B586B00490049820B9FFE797
:1022800001208DF817002EE304980078C00700287D
:1022900000F0AE80FFE741F20400C4F202000068E3
:1022A00000F00C00042813D0FFE741F20400C4F250
:1022B0000200006800F00C0008281BD1FFE741F283
:1022C0000400C4F202000068C003002812D5FFE732
:1022D00041F20000C4F2020000688003002808D523
:1022E000FFE70498406820B9FFE701208DF8170048
:1022F000F9E27CE0FFE704984068B0F5803F09D13F
:10230000FFE741F20001C4F20201086840F48030A6
:10231000086032E00498406868B9FFE741F20001C4
:10232000C4F20201086820F480300860086820F4D4
:102330008020086020E004984068B0F5A02F0DD1FF
:10234000FFE741F20001C4F20201086840F4802076
:102350000860086840F4803008600CE041F2000139
:10236000C4F20201086820F480300860086820F494
:1023700080200860FFE7FFE7FFE7FFE70498406879
:10238000D0B1FFE7FFF7B4FC0390FFE741F2000094
:10239000C4F202000068800300280CD4FFE7FFF7B6
:1023A000A7FC0399401A652804D3FFE703208DF8A2
:1023B000170098E2EAE719E0FFF79AFC0390FFE7BD
:1023C00041F20000C4F202000068800300280CD52E
:1023D000FFE7FFF78DFC0399401A652804D3FFE758
:1023E00003208DF817007EE2EAE7FFE7FFE7FFE74B
:1023F000049800788007002840F18D80FFE741F2C3
:102400000400C4F20200006810F00C0F13D0FFE7C4
:1024100041F20400C4F20200006800F00C00082839
:1024200029D1FFE741F20400C4F202000068C003B2
:10243000002820D4FFE741F20000C4F20200006847
:102440008007002809D5FFE704980069012804D017
:10245000FFE701208DF8170045E241F20001C4F2C8
:102460000201086820F0F800049A526940EAC200AC
:102470000860FFE74EE00498006958B3FFE70021C9
:10248000C4F2422101200860FFF732FC0390FFE70D
:1024900041F20000C4F202000068800700280CD45A
:1024A000FFE7FFF725FC0399401A032804D3FFE751
:1024B00003208DF8170016E2EAE741F20001C4F2AA
:1024C0000201086820F0F800049A526940EAC2004C
:1024D00008601EE00021C4F2422100200860FFF7DE
:1024E00007FC0390FFE741F20000C4F2020000681D
:1024F000800700280CD5FFE7FFF7FAFB0399401A85
:10250000032804D3FFE703208DF81700EBE1EAE787
:10251000FFE7FFE7FFE7049800780007002848D5A9
:10252000FFE70498806918B3FFE740F28041C4F2E6
:10253000422101200860FFF7DBFB0390FFE741F237
:102540002400C4F202000068800700280CD4FFE7D2
:10255000FFF7CEFB0399401A032804D3FFE70320BB
:102560008DF81700BFE1EAE7012002F057F81FE0FD
:1025700040F28041C4F2422100200860FFF7B8FB1E
:102580000390FFE741F22400C4F2020000688007D4
:1025900000280CD5FFE7FFF7ABFB0399401A03288F
:1025A00004D3FFE703208DF817009CE1EAE7FFE77B
:1025B000FFE7049800784007002840F1D880FFE743
:1025C00000208DF8070041F21C00C4F202000068F0
:1025D000C000002813D4FFE7FFE741F21C00C4F25B
:1025E0000200016841F080510160006800F08050F5
:1025F00000900098FFE701208DF80700FFE747F201
:102600000000C4F200000068C005002822D4FFE7E3
:1026100047F20001C4F20001086840F480700860CD
:10262000FFF766FB0390FFE747F20000C4F20000EB
:102630000068C00500280CD4FFE7FFF759FB039999
:10264000401A652804D3FFE703208DF817004AE1FC
:10265000EAE7FFE7FFE70498C068012809D1FFE730
:1026600041F22001C4F20201086840F00100086054
:1026700031E00498C06868B9FFE741F22001C4F274
:102680000201086820F001000860086820F00400DA
:1026900008601FE00498C06805280DD1FFE741F2EB
:1026A0002001C4F20201086840F0040008600868D4
:1026B00040F0010008600CE041F22001C4F2020188
:1026C000086820F001000860086820F00400086035
:1026D000FFE7FFE7FFE7FFE70498C068E0B1FFE727
:1026E000FFF706FB0390FFE741F22000C4F202006F
:1026F0000068800700280ED4FFE7FFF7F9FA039976
:10270000401A41F28931884204D3FFE703208DF853
:102710001700E8E0E8E71BE0FFF7EAFA0390FFE7BD
:1027200041F22000C4F202000068800700280ED5A4
:10273000FFE7FFF7DDFA0399401A41F28931884239
:1027400004D3FFE703208DF81700CCE0E8E7FFE7AC
:102750009DF80700012809D1FFE741F21C01C4F2EE
:102760000201086820F080500860FFE7FFE7049846
:10277000C069002800F0B380FFE741F20400C4F212
:102780000200006800F00C00082800F08280FFE7DB
:102790000498C06902285CD1FFE76021C4F242219D
:1027A00000200860FFF7A4FA0390FFE741F2000061
:1027B000C4F202000068800100280CD5FFE7FFF793
:1027C00097FA0399401A032804D3FFE703208DF8F2
:1027D000170088E0EAE70498006AB0F5803F0CD162
:1027E000FFE741F20401C4F20201086820F400305E
:1027F000049A926810430860FFE741F20401C4F2B2
:102800000201086820F47410049B1A6A5B6A1A4378
:10281000104308606021C4F2422101200860FFF7E4
:1028200067FA0390FFE741F20000C4F2020000687B
:10283000800100280CD4FFE7FFF75AFA0399401AE9
:10284000032804D3FFE703208DF817004BE0EAE7E5
:102850001EE06021C4F2422100200860FFF748FA20
:102860000390FFE741F20000C4F20200006880011B
:1028700000280CD5FFE7FFF73BFA0399401A03281D
:1028800004D3FFE703208DF817002CE0EAE7FFE709
:1028900024E00498C069012804D1FFE701208DF8E5
:1028A000170020E041F20400C4F202000068029028
:1028B000029800F480300499096A884208D1FFE741
:1028C000029800F470100499496A884204D0FFE726
:1028D00001208DF8170006E0FFE7FFE7FFE7002083
:1028E0008DF81700FFE79DF8170006B080BD0000C7
:1028F00080B584B00290029820B9FFE701208DF8DE
:102900000F006DE00298406A60B9FFE702984068E6
:10291000B0F5827F01D1FFE703E002990020C86192
:10292000FFE705E002990020086102994861FFE78E
:10293000029900208862029890F8510040B9FFE7A0
:102940000299002081F85000029800F04DF8FFE74E
:102950000299022081F8510002980168086820F06D
:1029600040000860029A019211685068D2F808C0CD
:10297000D36800F482700CF4044C604403F40063E8
:102980001844136903F002031844536903F0010368
:102990001844936903F400731844D36903F03803AF
:1029A0001844136A03F080031843926A02F4005239
:1029B000104308600299488B00F0040009684860E1
:1029C00002980168C86920F40060C861029900207B
:1029D0004865029A012182F851108DF80F00FFE737
:1029E0009DF80F0004B080BD80B58CB00B90002026
:1029F0000A900990089007900B98006843F2000134
:102A0000C4F2010188425CD1FFE7FFE741F2180000
:102A1000C4F20200016841F480510160006800F4D2
:102A2000805006900698FFE7FFE741F21800C4F2D5
:102A30000200016841F004010160006800F0040038
:102A400005900598FFE7A02007900220089003203A
:102A50000A9040F60000C4F20100019007A902911B
:102A6000FEF786FF01980299402207920022039206
:102A700008920992FEF77CFF039940F27800C2F2B7
:102A8000000004901C22C4F20202026041608160D6
:102A90008022C2600161416120228261C161FEF732
:102AA00087FE18B1FFE7FEF737FDFFE7FFE70B985A
:102AB00040F27801C2F20001C1640B984862FFE75E
:102AC000FFE70CB080BD000080B588B0069005918E
:102AD000ADF81220039300208DF80700069890F8B7
:102AE0005100012804D0FFE702208DF80700FDE027
:102AF00006984068B0F5827F16D1FFE70698806897
:102B000090B9FFE70699042081F851000698059ACC
:102B1000BDF812300399EC46CCF80010114600F0D5
:102B200041FA8DF81F00ECE0FFE7069890F850009E
:102B3000012804D1FFE702208DF81F00E1E006998B
:102B4000012081F85000FFE7FFE7FFF7D1F802907E
:102B5000059820B1FFE7BDF8120020B9FFE701207A
:102B60008DF80700C2E00699042081F8510006990B
:102B7000002048650599069A9163BDF81210069ADF
:102B80009187BDF81210069AD187069908630699B5
:102B900088860699C8860699086406994864069846
:102BA0008068B0F5004F0DD1FFE70698016808680E
:102BB00020F04000086006980168086820F4804012
:102BC0000860FFE706980068006800F040004028B1
:102BD00007D0FFE706980168086840F040000860E9
:102BE000FFE70698C068A0BBFFE7FFE70698C08F25
:102BF00070B3FFE7069800688068C00778B1FFE708
:102C000006980068007B0699896B08700699886BA6
:102C1000013088630699C88F0138C88717E0FFF72D
:102C200067F80299401A0399884204D3FFE7039892
:102C3000013018B9FFE7039840B9FFE703208DF88A
:102C400007000699012081F851004FE0FFE7CDE72A
:102C500033E0FFE70698C08F70B3FFE7069800687F
:102C60008068C00778B1FFE706980068C0680699D9
:102C7000896B08800699886B023088630699C88F33
:102C80000138C88717E0FFF733F80299401A039913
:102C9000884204D3FFE70398013018B9FFE703988F
:102CA00040B9FFE703208DF807000699012081F85D
:102CB00051001BE0FFE7CDE7FFE706980399029A72
:102CC00001F0CAFC20B1FFE7069920204865FFE724
:102CD0000698406D20B1FFE701208DF8070004E061
:102CE0000699012081F85100FFE7FFE7FFE7069909
:102CF000002081F85000FFE79DF807008DF81F00C5
:102D0000FFE79DF81F0008B080BD000080B588B0C7
:102D100006900591ADF81220039300208DF807006E
:102D2000FFE7069890F85000012804D1FFE7022041
:102D30008DF81F0031E10699012081F85000FFE76E
:102D4000FFE7FEF7D5FF0290BDF81200ADF80400D2
:102D5000069890F85100012804D0FFE702208DF872
:102D600007000FE1059820B1FFE7BDF8120020B978
:102D7000FFE701208DF8070004E10699032081F8A0
:102D800051000699002048650599069A1163BDF81F
:102D90001210069A9186BDF81210069AD1860699ED
:102DA0008863069988870699C887069948640699B2
:102DB000086406988068B0F5004F0DD1FFE70698CB
:102DC0000168086820F040000860069801680868FB
:102DD00040F480400860FFE706980068006800F053
:102DE0004000402807D0FFE706980168086840F0D7
:102DF00040000860FFE70698C068B0F5006F4BD14F
:102E0000FFE70698406828B1FFE7BDF804000128F5
:102E10000ED1FFE706980168006B0088C86006992C
:102E2000086B023008630699C88E0138C886FFE730
:102E3000FFE70698C08E70B3FFE7069800688068C9
:102E4000800700280ED5FFE706980168006B008810
:102E5000C8600699086B023008630699C88E01386D
:102E6000C88617E0FEF744FF0299401A039988428A
:102E700004D3FFE70398013018B9FFE7039840B97E
:102E8000FFE703208DF807000699012081F8510023
:102E900078E0FFE7CDE74AE00698406828B1FFE711
:102EA000BDF8040001280ED1FFE706980168006B09
:102EB000007808730699086B013008630699C88E7C
:102EC0000138C886FFE7FFE70698C08E70B3FFE7BA
:102ED000069800688068800700280ED5FFE70698EE
:102EE0000168006B007808730699086B013008636D
:102EF0000699C88E0138C88617E0FEF7F9FE0299D8
:102F0000401A0399884204D3FFE70398013018B9A7
:102F1000FFE7039840B9FFE703208DF80700069903
:102F2000012081F851002DE0FFE7CDE7FFE706988B
:102F30000399029A01F0ECFB20B1FFE706992020EB
:102F40004865FFE70698806870B9FFE7FFE7002053
:102F5000009006980068C068009006980068806835
:102F600000900098FFE7FFE70698406D20B1FFE76B
:102F700001208DF8070004E00699012081F8510036
:102F8000FFE7FFE7FFE70699002081F85000FFE721
:102F90009DF807008DF81F00FFE79DF81F0008B09F
:102FA00080BD000080B58EB0DDF840C00C900B9164
:102FB0000A92ADF826300120059000208DF813000C
:102FC000FFE70C9890F85000012804D1FFE7022099
:102FD0008DF83700A6E10C99012081F85000FFE739
:102FE000FFE7FEF785FE06900C9890F851008DF8EB
:102FF0001F000C9840680890BDF82600ADF824002A
:103000009DF81F00012812D0FFE70898B0F5827FD5
:1030100009D1FFE70C98806828B9FFE79DF81F00E9
:10302000042804D0FFE702208DF813006FE10B980D
:1030300038B1FFE70A9820B1FFE7BDF8260020B9B4
:10304000FFE701208DF8130061E10C9890F8510022
:10305000042805D0FFE70C99052081F85100FFE70F
:103060000C99002048650A990C9A9163BDF82610C6
:103070000C9AD187BDF826100C9A91870B990C9A5F
:103080001163BDF826100C9AD186BDF826100C9A53
:1030900091860C9908640C9948640C980068006843
:1030A00000F04000402807D0FFE70C98016808684E
:1030B00040F040000860FFE70C98C068B0F5006F72
:1030C0007AD1FFE70C98406828B1FFE7BDF82400EB
:1030D00001280ED1FFE70C980168006B0088C860DA
:1030E0000C99086B023008630C99C88E0138C886A9
:1030F000FFE7FFE70C98C18E0120029039B9FFE786
:103100000C98C08F002818BF01200290FFE702989A
:10311000C00700284FD0FFE70C9800688068800740
:10312000002818D5FFE70C98C08EA0B1FFE70598DE
:10313000012810D1FFE70C980168006B0088C86077
:103140000C99086B023008630C99C88E0138C88648
:1031500000200590FFE70C9800688068C007A8B1C0
:10316000FFE70C98C08F88B1FFE70C980068C06833
:103170000C99896B08800C99886B023088630C99D4
:10318000C88F0138C88701200590FFE7FEF7B0FD22
:103190000699401A109988420CD3FFE71098013025
:1031A00040B1FFE703208DF813000C99012081F84E
:1031B0005100ACE09EE77CE00C98406828B1FFE746
:1031C000BDF8240001280ED1FFE70C980168006BC0
:1031D000007808730C99086B013008630C99C88E4D
:1031E0000138C886FFE7FFE70C98C18E01200190E7
:1031F00039B9FFE70C98C08F002818BF0120019053
:10320000FFE70198C007002852D0FFE70C9800683C
:1032100080688007002818D5FFE70C98C08EA0B101
:10322000FFE70598012810D1FFE70C980168006BB3
:10323000007808730C99086B013008630C99C88EEC
:103240000138C88600200590FFE70C980068806868
:10325000C007A8B1FFE70C98C08F88B1FFE70C98B2
:103260000068C0680C99896B08700C99886B0130F4
:1032700088630C99C88F0138C88701200590FFE743
:10328000FEF736FD0699401A1099884204D3FFE7ED
:103290001098013018B9FFE7109840B9FFE70320F4
:1032A0008DF813000C99012081F851002FE09BE765
:1032B000FFE70C981099069A01F02AFA38B1FFE757
:1032C00001208DF813000C99202048651FE00C9810
:1032D000806870B9FFE7FFE7002003900C98006852
:1032E000C06803900C980068806803900398FFE71B
:1032F000FFE70C98406D20B1FFE701208DF8130027
:1033000004E00C99012081F85100FFE7FFE7FFE797
:103310000C99002081F85000FFE79DF813008DF80C
:103320003700FFE79DF837000EB080BD80B582B052
:103330000190019801F0F0FA02B080BD81B00090D8
:1033400001B0704781B0009001B0704785B0039024
:103350000291FFE7039890F83C00012804D1FFE7B1
:1033600002208DF813005BE00399012081F83C00F6
:10337000FFE7FFE70399022081F83D00039800680A
:10338000406801900398006880680090019820F0E0
:10339000700001900298016801980843019001981B
:1033A0000399096848600398006842F60041C4F236
:1033B0000101884218D0FFE703980068B0F1804F00
:1033C00012D0FFE70398006840F20041C4F2000108
:1033D000884209D0FFE70398006840F60001C4F274
:1033E000000188420ED1FFE7009820F08000009095
:1033F0000298416800980843009000980399096872
:103400008860FFE70399012081F83D00FFE70399F9
:10341000002081F83C00FFE700208DF81300FFE753
:103420009DF8130005B0704780B582B000900098F9
:1034300020B9FFE701208DF807003FE0009890F8E1
:103440003D0040B9FFE70099002081F83C0000985A
:1034500000F038F8FFE70099022081F83D0000995C
:1034600051F8040B01F0C6FA0099012081F84600DA
:10347000FFE70099012081F83E00009981F83F00A4
:10348000009981F84000009981F84100FFE7FFE7CB
:103490000099012081F84200009981F843000099C9
:1034A00081F84400009981F84500FFE70099012068
:1034B00081F83D0000208DF80700FFE79DF8070028
:1034C00002B080BD80B584B003900398006842F6D6
:1034D0000041C4F20101884219D1FFE7FFE741F240
:1034E0001800C4F20200016841F400610160006844
:1034F00000F4006002900298FFE71920009000227B
:103500001146FEF7E1FC0098FEF7D4FC16E00398A4
:103510000068B0F1804F10D1FFE7FFE741F21C00D7
:10352000C4F20200016841F001010160006800F08E
:10353000010001900198FFE7FFE7FFE704B080BDBD
:1035400083B00190019890F83D00012804D0FFE776
:1035500001208DF80B0047E00199022081F83D0021
:1035600001980168C86840F00100C86001980068CF
:1035700042F60041C4F20101884218D0FFE70198E9
:103580000068B0F1804F12D0FFE70198006840F268
:103590000041C4F20001884209D0FFE701980068A9
:1035A00040F60001C4F20001884212D1FFE7019801
:1035B0000068806800F0070000900098062807D097
:1035C000FFE701980168086840F001000860FFE724
:1035D00006E001980168086840F001000860FFE714
:1035E00000208DF80B00FFE79DF80B0003B070473B
:1035F00080B586B00490039100208DF80B00FFE7A2
:10360000049890F83C00012804D1FFE702208DF8CF
:103610001700ABE00499012081F83C00FFE7FFE7C9
:103620000499022081F83D000498006880680190A8
:10363000019820F077000190019820F47F400190DC
:103640000198049909688860039800680090002830
:1036500072D0FFE7009810286ED0FFE7009820286E
:103660006AD0FFE70098302866D0FFE7009840282E
:1036700055D0FFE70098502837D0FFE70098602822
:1036800040D0FFE7009870280BD0FFE70098B0F516
:10369000805F05D0FFE70098B0F5005F16D052E0DC
:1036A00055E004980068039B5A689968DB6801F04C
:1036B00019FA0498006880680190019840F077003A
:1036C0000190019804990968886040E004980068B6
:1036D000039B5A689968DB6801F004FA0498016852
:1036E000886840F48040886031E004980068039A5C
:1036F0005168D26801F026FA04980068502101F060
:103700000BFA24E004980068039A5168D26801F02B
:1037100041FA04980068602101F0FEF917E004986E
:103720000068039A5168D26801F00CFA04980068A6
:10373000402101F0F1F90AE0049800680399096852
:1037400001F0EAF903E001208DF80B00FFE704998E
:10375000012081F83D00FFE70499002081F83C003A
:10376000FFE79DF80B008DF81700FFE79DF81700A5
:1037700006B080BD81B0009001B0704780B582B0C6
:10378000019001980068006900F002010020B0EB90
:10379000510F28D0FFE701980068C06800F00201CF
:1037A0000020B0EB510F1DD0FFE7019801686FF0CA
:1037B000020008610199012008770198006880697A
:1037C000800720B1FFE70198FFF7D4FF06E00198DA
:1037D00000F012F9019800F013F9FFE701990020B9
:1037E0000877FFE7FFE701980068006900F004012F
:1037F0000020B0EB910F29D0FFE701980068C06866
:1038000000F004010020B0EB910F1ED0FFE70198FB
:1038100001686FF00400086101990220087701989F
:103820000068806910F4407F04D0FFE70198FFF73B
:10383000A1FF06E0019800F0DFF8019800F0E0F841
:10384000FFE7019900200877FFE7FFE7019800688C
:10385000006900F008010020B0EBD10F28D0FFE78D
:1038600001980068C06800F008010020B0EBD10F9B
:103870001DD0FFE7019801686FF008000861019909
:103880000420087701980068C069800720B1FFE72D
:103890000198FFF76FFF06E0019800F0ADF801987E
:1038A00000F0AEF8FFE7019900200877FFE7FFE797
:1038B00001980068006900F010010020B0EB111FB2
:1038C00029D0FFE701980068C06800F010010020CF
:1038D000B0EB111F1ED0FFE7019801686FF01000D8
:1038E000086101990820087701980068C06910F400
:1038F000407F04D0FFE70198FFF73CFF06E0019806
:1039000000F07AF8019800F07BF8FFE701990020B9
:103910000877FFE7FFE7019800680069C00780B1FA
:10392000FFE701980068C068C00748B1FFE7019849
:1039300001686FF001000861019800F065F8FFE789
:10394000FFE7019800680069C1B20020B0EBD11F09
:1039500013D0FFE701980068C068C1B20020B0EB47
:10396000D11F09D0FFE7019801686FF0800008615E
:103970000198FFF7E3FCFFE7FFE7019800680069A3
:1039800000F040010020B0EB911F14D0FFE7019838
:103990000068C06800F040010020B0EB911F09D022
:1039A000FFE7019801686FF040000861019800F09E
:1039B0008DF8FFE7FFE701980068006900F020013B
:1039C0000020B0EB511F14D0FFE701980068C068D9
:1039D00000F020010020B0EB511F09D0FFE7019853
:1039E00001686FF0200008610198FFF7ABFCFFE76A
:1039F000FFE702B080BD000081B0009001B07047C9
:103A000081B0009001B0704780B584B003900398F6
:103A1000006842F60041C4F20101884253D1FFE739
:103A200000F0BCFA8DF80B009DF80B2040F2183026
:103A3000C2F2000045F6DA71C0F60001FCF71AFC8C
:103A400000208DF80A00FFE79DF90A000D2821DC0F
:103A5000FFE79DF90A1040F27820C2F2000030F82A
:103A6000112040F2B420C2F20000019045F6E2714C
:103A7000C0F60001FCF7FEFB019940F21830C2F2DB
:103A80000000FCF72CFCFFE79DF80A0001308DF8E0
:103A90000A00D9E740F21830C2F20000009046F266
:103AA0006401C0F60001FCF71AFC0098FCF7F8FB73
:103AB000009982B240F2E810C2F200004FF0FF33EA
:103AC00000F0DAF9FFE704B080BD000081B000909B
:103AD00001B0704782B00190ADF8021002B070479B
:103AE00081B0009001B0704780B582B0009000981E
:103AF00020B9FFE701208DF8070040E000988069B9
:103B000008B1FFE700E0FFE7009890F8410040B9F6
:103B1000FFE70099002081F84000009800F034F899
:103B2000FFE70099242081F8410000980168C868E7
:103B300020F40050C860009801F08EF900980168E8
:103B4000086920F49040086100980168486920F0F5
:103B50002A00486100980168C86840F40050C860B5
:103B6000009900204864009A202182F84110009AB0
:103B700082F84210009948638DF80700FFE79DF82E
:103B8000070002B080BD000080B58CB00B90002013
:103B90000A900990089007900B98006843F600017E
:103BA000C4F20101884239D1FFE7FFE741F2180072
:103BB000C4F20200016841F480410160006800F431
:103BC000804006900698FFE7FFE741F21800C4F234
:103BD0000200016841F004010160006800F0040087
:103BE00005900598FFE74FF40070079002200890B9
:103BF00003200A9040F60000C4F20100019007A9DA
:103C00000291FDF7B5FE019802994FF48062079288
:103C1000002208920992FDF7ABFE5BE00B9800686A
:103C200044F20041C4F20001884252D1FFE7FFE7AD
:103C300041F21C00C4F20200016841F4003101604D
:103C4000006800F4003004900498FFE7FFE741F2B9
:103C50001800C4F20200016841F00401016000682C
:103C600000F0040003900398FFE70420079012205F
:103C7000089003200A9040F60000C4F2010007A952
:103C8000FDF776FE40F2BC00C2F2000000906C210D
:103C9000C4F2020101600021416081608022C260A3
:103CA00001614161202181614FF44051C161FDF703
:103CB0007FFD18B1FFE7FDF72FFCFFE7FFE70B984B
:103CC00040F2BC01C2F20001C1630B984862FFE7F9
:103CD000FFE7FFE70CB080BD80B58AB00890079180
:103CE000ADF81A20059300200290089890F8420041
:103CF000202840F08480FFE7079820B1FFE7BDF857
:103D00001A0020B9FFE701208DF827007BE0089911
:103D100000204864089A222182F84210089908631A
:103D2000FDF7E6FF0290BDF81A0008998885BDF8F6
:103D30001A000899C88508988068B0F5805F09D195
:103D4000FFE70898006928B9FFE70020049007986A
:103D5000039004E00798049000200390FFE7FFE73A
:103D60000898C08D002842D0FFE70898029B05996B
:103D70006A4611602021002201F052F920B1FFE7CC
:103D800003208DF827003EE0049858B9FFE7089813
:103D9000006840686FF35F20039908800398023041
:103DA00003901FE008988068B0F5805F08D0FFE7B7
:103DB0000898806850B9FFE70898006930B9FFE7B4
:103DC0000898006840680499087007E0089800683F
:103DD000406800F07F0004990870FFE70498013004
:103DE0000490FFE70899C88D0138C885B8E708999D
:103DF000202081F8420000208DF8270003E00220F7
:103E00008DF82700FFE79DF827000AB080BD00006D
:103E100080B584B002900191ADF80220029890F82C
:103E20004200202817D1FFE7019820B1FFE7BDF835
:103E3000020020B9FFE701208DF80F000FE0029982
:103E40000020086302980199BDF8022001F062F891
:103E50008DF80F0003E002208DF80F00FFE79DF8BA
:103E60000F0004B080BD000081B0009001B0704729
:103E700081B0009001B0704780B58AB0089007917A
:103E8000ADF81A20059300200290089890F84100A0
:103E9000202878D1FFE7079820B1FFE7BDF81A0086
:103EA00020B9FFE701208DF8270070E00899002075
:103EB00048640899212081F84100FDF719FF02901C
:103EC000BDF81A0008998884BDF81A000899C884BA
:103ED00008988068B0F5805F09D1FFE7089800690D
:103EE00028B9FFE7002004900798039004E00798A2
:103EF000049000200390FFE7FFE70898C08C58B3B8
:103F0000FFE70898029B05996A461160802100220C
:103F100001F086F820B1FFE703208DF8270036E096
:103F2000049858B9FFE7039800886FF35F20089959
:103F30000968486003980230039008E0049800780C
:103F4000089909684860049801300490FFE70899CF
:103F5000C88C0138C884D0E70898029B05996A4646
:103F600011604021002201F05BF820B1FFE703203F
:103F70008DF827000BE00899202081F841000020EF
:103F80008DF8270003E002208DF82700FFE79DF859
:103F900027000AB080BD0000FFE7FEE783B040F2D3
:103FA0009420C2F200000078202808D1FFE740F2F8
:103FB0009420C2F200004078402804D0FFE702209D
:103FC0008DF80B0063E00020ADF808008DF80700C5
:103FD000FFE79DF907001D2813DCFFE79DF9071097
:103FE00040F29420C2F20000415CBDF80800084491
:103FF000ADF80800FFE79DF8070001308DF80700D5
:10400000E7E740F29421C2F20001887FC97F40EACD
:104010000120ADF80400BDF808004FF6FF714840DC
:10402000BDF80410884204D0FFE703208DF80B0090
:104030002DE000208DF803008DF80200FFE79DF9C8
:1040400003000D281FDCFFE79DF9020040F29421D8
:10405000C2F2000101448878C97840EA01209DF944
:10406000032040F27821C2F2000121F81200FFE79C
:104070009DF8030001308DF803009DF80200023026
:104080008DF80200DBE700208DF80B00FFE79DF8BC
:104090000B0003B07047000080B584B00290002090
:1040A000ADF80600FFE79DF80610002020290090DB
:1040B00008D1FFE79DF807004038B0FA80F04009CA
:1040C0000090FFE70098C00740B9FFE702980DF1A4
:1040D000060102220423FFF7FFFDE4E70420FDF7B9
:1040E00025FC029840F29421C2F200012022FFF741
:1040F0008FFE20B1FFE701208DF80F0003E00020C4
:104100008DF80F00FFE79DF80F0004B080BD0000A0
:1041100080B588B006908DF817108DF816208DF8B0
:1041200015300022ADF8102003928DF80B2040F6D8
:104130000000C4F201001021FDF7C2FDFFE79DF869
:104140000C00712813D0FFE70698752103AA0123FC
:1041500000F04CF89DF80B00411C8DF80B10652801
:1041600004DBFFE701208DF81F003BE0E7E740F6A6
:104170000000C4F20100102101220092FDF7A0FD11
:1041800000989DF81510884001F020FE02460B466D
:10419000002001900021C4F2D00101F0BDFC01F02B
:1041A00089FC0146009840F27002C2F200021160E0
:1041B0009DF81610884001F009FE024601980B4652
:1041C00046F20001C4F2600101F0A6FC01F072FCAD
:1041D0000146019840F27402C2F2000211608DF8AB
:1041E0001F00FFE79DF81F0008B080BD80B586B0B6
:1041F00005908DF8131003928DF80B309DF8130085
:1042000040F080008DF80A0005980DF10A010122A6
:104210004FF0FF330193FEF779FD019B0598039959
:104220009DF90B2092B2FEF74FFC06B080BD000056
:1042300080B584B0FFE741F21400C4F202000168C7
:1042400041F001010160006800F001000390039853
:10425000FFE70C200090002201921146FDF734FE8A
:104260000098FDF727FE019A102002901146FDF7F5
:104270002BFE0298FDF71EFE04B080BD80B590B005
:1042800000200F900E900D900C90FFE741F2180067
:10429000C4F20200016841F010010160006800F002
:1042A00010000B900B98FFE7FFE741F21800C4F2F3
:1042B0000200016841F020010160006800F0200068
:1042C0000A900A98FFE7FFE741F21800C4F20200E3
:1042D000016841F004010160006800F004000990E9
:1042E0000998FFE7FFE741F21800C4F202000168F5
:1042F00041F008010160006800F00800089008988B
:10430000FFE740F60000C4F2010002901021019185
:1043100000220492FDF7D4FC049A41F20000C4F29A
:10432000010005904FF480510391FDF7C9FC0598F9
:1043300042F6FF710C91032106910D910CA9079192
:10434000FDF716FB0298069A079949F60B130C9392
:104350000D92FDF70DFBDDF804C00298049B069A50
:104360000799CDF830C04FF0010CCDF834C00E9352
:104370000F92FDF7FDFA069807994FF6FF720C921F
:104380000D9040F60040C4F20100FDF7F1FADDF8AF
:104390000CC0049B0598069A0799CDF830C04FF0E1
:1043A000110CCDF834C00E930F92FDF7E1FA069888
:1043B000079904220C920D9041F20040C4F20100D2
:1043C000FDF7D6FA10B080BD80B582B040F2001083
:1043D000C2F20000019043F20001C4F20101016049
:1043E0004FF48271416000218160C16001614161CF
:1043F0004FF4007282613022C261016241628162C7
:104400000A21C162FEF774FA18B1FFE7FDF784F8DC
:10441000FFE702B080BD000080B588B000210091A8
:1044200007910691059104910391029140F2581071
:10443000C2F20000019042F60042C4F201020260A2
:1044400041F61F424260816042F20F72C260016118
:1044500041618161FEF7E8FF18B1FFE7FDF75CF805
:10446000FFE74FF48050049040F25810C2F2000071
:1044700004A9FFF7BDF818B1FFE7FDF74DF8FFE716
:1044800000200290039040F25810C2F2000002A9EE
:10449000FEF75CFF18B1FFE7FDF73EF8FFE708B055
:1044A00080BD000080B588B0002101910791069180
:1044B000059104910391029140F2A010C2F2000014
:1044C0004FF0804202604722426081604FF6FF72E7
:1044D000C26001618161FEF7A7FF18B1FFE7FDF738
:1044E0001BF8FFE74FF48050049040F2A010C2F296
:1044F000000004A9FFF77CF818B1FFE7FDF70CF8FE
:10450000FFE700200290039040F2A010C2F20000EA
:1045100002A9FEF71BFF18B1FFE7FCF7FDFFFFE75D
:1045200008B080BD80B582B040F2E810C2F2000051
:10453000019043F60001C4F2010101604FF4E13142
:10454000416000218160C16001610C224261816192
:10455000C161FFF7C9FA18B1FFE7FCF7DDFFFFE71C
:1045600002B080BD80B582B040F23020C2F20000BF
:10457000019044F20041C4F2000101604FF4E131C6
:10458000416000218160C16001610C224261816152
:10459000C161FDF7B3FB18B1FFE7FCF7BDFFFFE713
:1045A00002B080BDFFE7FEE7FFE7FEE788B00790B7
:1045B00006910592079800F0070004900498C0F156
:1045C0000700052803D3FFE70420019004E00498C6
:1045D000C0F107000190FFE70198039004980430B0
:1045E000062803D8FFE70020009003E00498033872
:1045F0000090FFE70098029006980399012202FAC2
:1046000001F101390840029B984005999A40013A0E
:104610001140084308B070477047000082B0019015
:10462000019840F20001C2F200010968C90844F68D
:10463000D352C1F26202A1FB0221890948430090D2
:10464000FFE700BFFFE70098411E00910028F8D166
:10465000FFE702B07047000080B586B00490039178
:10466000029204984068B0F5827F13D1FFE7049866
:104670008068B0F5004F06D0FFE704988068B0F579
:10468000806F07D1FFE704980168086820F04000B8
:104690000860FFE704984068B0F5827F1BD1FFE710
:1046A00004988068B0F5806F15D1FFE70498039BEC
:1046B00002996A4611600121002200F04BF848B1CE
:1046C000FFE70499486D40F02000486503208DF80D
:1046D000170019E014E00498039B02996A461160E0
:1046E0008021002200F036F848B1FFE70499486DB8
:1046F00040F02000486503208DF8170004E0FFE734
:1047000000208DF81700FFE79DF8170006B080BD68
:1047100080B586B00490039102920498039B02999D
:104720006A4611608021002200F014F848B1FFE7CA
:104730000499486D40F02000486503208DF817006B
:1047400003E000208DF81700FFE79DF8170006B082
:1047500080BD000080B58AB0DDF830C008900791B8
:104760008DF81B20059305980190FDF7C1FA0246CC
:1047700001980C99891A08440390FDF7B9FA029040
:10478000039840F20001C2F200010968C1F3CB3185
:1047900048430490FFE7089800688068079908403C
:1047A000401AB0FA80F040099DF81B1088425ED094
:1047B000FFE705980130002858D0FFE7FDF798FA89
:1047C0000299401A0399884204D2FFE7039800280F
:1047D00042D1FFE708980168486820F0E00048608F
:1047E00008984068B0F5827F13D1FFE70898806889
:1047F000B0F5004F06D0FFE708988068B0F5806FED
:1048000007D1FFE708980168086820F040000860B9
:10481000FFE70898806AB0F5005F0FD1FFE7FFE778
:1048200008980168086820F400500860089801683A
:10483000086840F400500860FFE7FFE7089901208E
:1048400081F85100FFE70899002081F85000FFE748
:1048500003208DF827000EE0049818B9FFE7002028
:104860000390FFE7049801380490FFE793E70020E6
:104870008DF82700FFE79DF827000AB080BD0000F3
:104880007047000080B59EB08DF873008DF87210EF
:104890009DF873000146029140B1FFE7029801289C
:1048A0000FD0FFE70298022816D020E09DF9722071
:1048B00045F6E671C0F600010DF10E00FBF7DAFCDB
:1048C00015E09DF9722046F20101C0F600010DF1DC
:1048D0000E00FBF7CFFC0AE09DF9722046F21B01A7
:1048E000C0F600010DF10E00FBF7C4FCFFE70DF16F
:1048F0000E000190FBF7D4FC019982B240F2E8105F
:10490000C2F200004FF0FF33FFF7B6FAEFF310806A
:1049100072B61D90FFE7FEE780B582B00090009868
:104920000138B0F1807F03D3FFE70120019019E047
:10493000009801384EF21401CEF2000108604FF0E9
:10494000FF300F2100F0F8FB4EF21801CEF200010B
:10495000002008604EF21002CEF200020721116022
:104960000190FFE7019802B080BD000080B5FDF71F
:1049700015FA80BD80B590B006A800902821FBF7FD
:10498000BAFC0098002305930493039302930193C8
:10499000012206924FF48031079108930A92022275
:1049A0000D920E914FF4E0110F91FDF763FC18B1D9
:1049B000FFE7FCF7B1FDFFE70F2001900221029114
:1049C000002003904FF480620492059001A8FDF747
:1049D0009DFA18B1FFE7FCF79FFDFFE710B080BD1F
:1049E0007047000080B540F25810C2F20000FEF798
:1049F000C5FE80BD83B002900191029800680090CE
:104A0000029842F60041C4F20101884215D0FFE746
:104A10000298B0F1804F10D0FFE7029840F20041B9
:104A2000C4F20001884208D0FFE7029840F6000176
:104A3000C4F2000188420AD1FFE7009820F070001C
:104A4000009001984168009808430090FFE70298A1
:104A500042F60041C4F20101884215D0FFE70298F6
:104A6000B0F1804F10D0FFE7029840F20041C4F24D
:104A70000001884208D0FFE7029840F60001C4F226
:104A8000000188420AD1FFE7009820F440700090AE
:104A90000198C168009808430090FFE7009820F053
:104AA00080000199496908430090009802990860C4
:104AB000019880680299C86201980068029988622A
:104AC000029842F60041C4F20101884205D1FFE795
:104AD0000198006902990863FFE702990120486183
:104AE00003B0704785B0049003910292019304983B
:104AF00080680090009820F47F400090039802990D
:104B0000019A41EA0221014300980843009000986D
:104B10000499886005B0704783B0029001910298B3
:104B200080680090009820F0700000900198009933
:104B3000084340F00700009000980299886003B095
:104B40007047000085B00490039102920498006AB7
:104B500000900499086A20F00100086204988069B6
:104B60000190019820F0F00001900299019840EA2C
:104B700001100190009820F00A000090039900981D
:104B8000084300900198049988610098049908628C
:104B900005B0704785B00490039102920498006AB2
:104BA00000900499086A20F0100008620498806957
:104BB0000190019820F4704001900299019840EA18
:104BC00001300190009820F0A00000900399009817
:104BD00040EA0110009001980499886100980499B6
:104BE000086205B07047000080B584B003900020D3
:104BF00002900398406A0190019800684069C0B231
:104C0000C0090290019890F8410021280AD1FFE7DD
:104C1000029838B1FFE701990020C884019800F09C
:104C2000FFF8FFE7019800684069C0F38010029028
:104C3000019890F8420022280AD1FFE7029838B183
:104C4000FFE701990020C885019800F09FF8FFE771
:104C50000199486C40F0100048640198FEF740FF4D
:104C600004B080BD80B586B005900598406A049078
:104C7000059800680068800600285AD4FFE7049968
:104C80000020C885FFE7FFE70498006850E8030F9D
:104C900020F480700390FFE703990498026842E8CB
:104CA00003100028F0D1FFE7FFE7FFE7FFE70498D4
:104CB000006850E8050F20F001000290FFE702991C
:104CC0000498026842E805100028F0D1FFE7FFE7EA
:104CD000FFE7FFE70498006850E8050F20F0400068
:104CE0000190FFE701990498026842E80510002846
:104CF000F0D1FFE7FFE70499202081F842000498F3
:104D0000006B012814D1FFE7FFE7FFE70498006874
:104D100050E8030F20F010000090FFE7009904987E
:104D2000026842E803100028F0D1FFE7FFE7FFE741
:104D3000FFE70499002048630498006B012805D11F
:104D4000FFE70498818DFEF7C5FE03E00498FFF7A6
:104D50008BF8FFE706B080BD80B582B00190019866
:104D6000406A00900099012048630098006B012878
:104D700006D1FFE70098818D4908FEF7ABFE03E0FE
:104D80000098FFF775F8FFE702B080BD84B003908C
:104D9000FFE7FFE70398006850E8030F20F49070E6
:104DA0000290FFE702990398026842E80310002886
:104DB000F0D1FFE7FFE7FFE7FFE70398006850E85F
:104DC000050F20F001000190FFE7019903980268A8
:104DD00042E805100028F0D1FFE7FFE70398006BD9
:104DE000012814D1FFE7FFE7FFE70398006850E8C8
:104DF000030F20F010000090FFE70099039802686D
:104E000042E803100028F0D1FFE7FFE7FFE703992E
:104E1000202081F8420003990020086304B0704705
:104E200082B00190FFE7FFE70198006850E8030FA8
:104E300020F0C0000090FFE700990198026842E866
:104E400003100028F0D1FFE7FFE70199202081F847
:104E5000410002B07047000080B584B00390039811
:104E60000068006920F44050039A1168D26810432A
:104E70000861039988680A694969104308430290E8
:104E800003980068C06841F20C61884302990843A6
:104E900003990968C86003980068406920F440706D
:104EA000039A11689269104348610398006843F6B9
:104EB0000001C4F20101884204D1FFE7FDF76AF95D
:104EC000019003E0FDF754F90190FFE701981921E3
:104ED0004843039A116852689200B0FBF2FC48F212
:104EE0001F52C5F2EB12ACFB02304309642003FBF6
:104EF00010CC322000EB0C10A0FB0202F02000EAE4
:104F0000521000EB0310C2F343121044886004B047
:104F100080BD000080B588B007900691ADF81620DE
:104F2000069807998862BDF8160007998885079941
:104F300000204864079A222182F842100799CA6B20
:104F400044F66541C0F6000191620799CA6B44F6C8
:104F50005951C0F60001D1620799CA6B44F6E93194
:104F6000C0F6000111630799C96B486306A8049055
:104F700007980168C06B0431049A1268BDF81630B6
:104F8000FCF76EFCFFE700200390079800680068BC
:104F9000039007980068406803900398FFE707981C
:104FA0000069A0B1FFE7FFE7FFE70798006850E856
:104FB000030F40F480700290FFE70299079802689F
:104FC00042E803100028F0D1FFE7FFE7FFE7FFE723
:104FD000FFE70798006850E8050F40F001000190D6
:104FE000FFE701990798026842E805100028F0D110
:104FF000FFE7FFE7FFE7FFE70798006850E8050FC6
:1050000040F040000090FFE700990798026842E8EE
:1050100005100028F0D1FFE7FFE7002008B080BDB1
:1050200080B588B0DDF828C0069005918DF8132072
:105030000393FFE706980068006805990840401A46
:10504000B0FA80F040099DF81310884249D1FFE77B
:105050000A980130002843D0FFE70A9840B1FFE7E3
:10506000FCF746FE0399401A0A99884237D9FFE7B0
:10507000FFE7FFE70698006850E8030F20F4D070C0
:105080000290FFE702990698026842E803100028A0
:10509000F0D1FFE7FFE7FFE7FFE70698006850E879
:1050A000050F20F001000190FFE7019906980268C2
:1050B00042E805100028F0D1FFE7FFE7069920201D
:1050C00081F84100069981F84200FFE70699002027
:1050D00081F84000FFE703208DF81F0005E0FFE79F
:1050E000A8E700208DF81F00FFE79DF81F0008B01B
:1050F00080BD0000FFE7FEE781B08DF803009DF959
:10510000030000280ED4FFE79DF9031001F01F02F1
:10511000012090404A094EF20011CEF2000141F800
:105120002200FFE701B070474EF60C50CEF20000AF
:105130000068C0F30220704782B08DF8070000912C
:105140009DF9070000280AD4FFE7009800019DF9A7
:1051500007104EF20042CEF2000288540BE0009895
:1051600000019DF8071001F00F014EF61452CEF227
:1051700000028854FFE702B07047000083B002903D
:10518000029800F0070000904EF60C51CEF200019C
:105190000868019001984FF6FF02104001900198B5
:1051A000009A40EA02200022C0F2FA521043019015
:1051B0000198086003B0704780B584B0002001906A
:1051C0000390FCF7F9FDFFF7D5FBFFF757F8FFF762
:1051D0002FF8FFF7F9F8FFF71FF9FFF763F9FFF76B
:1051E000A1F9FFF7BFF9019B40F20010C2F20000E5
:1051F00001210322FEF78CFF8DF80B009DF90B00B7
:1052000030B1FFE79DF90B100020FFF73BFBFFE7F4
:1052100040F2E810C2F2000046F23301C0F600018D
:1052200022224FF0FF33FEF727FEFCF72FF98DF80F
:105230000B009DF90B0030B1FFE79DF90B10012029
:10524000FFF720FBFFE740F2E810C2F2000046F251
:105250005501C0F6000112224FF0FF33FEF70CFE9D
:1052600040F23020C2F20000FEF716FF8DF80B006E
:105270009DF90B0030B1FFE79DF90B100220FFF7FD
:1052800001FBFFE740F25810C2F20000FEF758F9A8
:10529000FFE7FEE75FEA400C08BF91F0000F4FEA1E
:1052A0008C234FEAC12243EA51514FEA1C5018BFE8
:1052B00000F5F0404FEA300018BF41F000415FEACE
:1052C0006C5C00F02980BCF1FF3F08BF40F08040DB
:1052D0007047130C06BF12044FF0100C4FF0000C77
:1052E000130E04BF12020CF1080C130F04BF1201BD
:1052F0000CF1040C930F04BF92000CF1020CD30FBD
:1053000004BF52000CF1010C11464FF00002A0F155
:105310001F00A0EB0C00704711F0004F08BF704752
:1053200031F000413FF4D5AF0B0C06BF09044FF03C
:10533000100C4FF0000C0B0E04BF09020CF1080C0E
:105340000B0F04BF09010CF1040C8B0F04BF890083
:105350000CF1020CCB0F04BF49000CF1010CCCF195
:10536000200322FA03F341EA030102FA0CF2A0EB54
:105370000C0000F10100704723F07F4720F07F4CC4
:1053800080EA030000F00040ACEB070303F57C5318
:1053900003F1FF032DE9804909B44FEA144324EADD
:1053A00003484FEA154B25EA0B4E0FF2042606EB95
:1053B00013273E7803FB0667C7F5000707FB06F6D1
:1053C0004FEAD64606F102064FEA543707FB066C51
:1053D000CCF1005C4FEA1C472CEA074C0CFB06F5AD
:1053E00007FB06F404EB15464FEA961649085FEAF8
:1053F000320234BF00204FF000404FEAD13706FBA5
:1054000007FC4FEA1C4C0CFB0BF7D21B03FB0CF701
:1054100061EB07010CFB0EF7B0EB074072EB174294
:105420000CFB08F734BFA2EB0742B2EB074261EB7B
:1054300017414FEA0C444FEA910706FB07FC4FEA7D
:105440001C4C0CFB0BF7B0EBC74072EB573203FB65
:105450000CF734BFA2EBC742B2EBC74261EB573146
:105460000CFB0EF7B0EBC70072EB57720CFB08F7A2
:1054700034BFA2EBC702B2EBC70261EB57714FEA30
:10548000816141EA92114FEA826242EA90124FEA48
:10549000806004EBCC04039F4FEAD13706FB07FC86
:1054A0004FEA1C4C0CFB0BF7D21B03FB0CF761EB18
:1054B00007010CFB0EF7B0EB074072EB17420CFB39
:1054C00008F734BFA2EB0742B2EB074261EB17418A
:1054D0004FEA8C5504EB9C244FEA910706FB07FC2E
:1054E0004FEA1C4C0CFB0BF7B0EBC74072EB57328A
:1054F00003FB0CF734BFA2EBC742B2EBC74261EB30
:1055000057310CFB0EF7B0EBC70072EB57720CFB78
:1055100008F734BFA2EBC702B2EBC70261EB5771C9
:105520004FEA816141EA92114FEA826242EA9012A7
:105530004FEA806015EB4C2544F100044FEAD13767
:1055400006FB07FC4FEA1C4C0CFB0BF7D21B03FBC2
:105550000CF761EB07010CFB0EF7B0EB074072EBA9
:1055600017420CFB08F734BFA2EB0742B2EB07422D
:1055700061EB17414FEA813141EA92414FEA8232B1
:1055800042EA90424FEA80304FEA0C7615EB1C1548
:1055900044F1000448EA03434EEA0B484FF0000E82
:1055A000B2EB080C71EB030724BF624639464EEBA1
:1055B0000E0E4FF0000B0018524149414BEB0B0B04
:1055C000B2EB080C71EB03077BF1000B24BF6246C2
:1055D00039464EEB0E0E4FF0000B00185241494178
:1055E0004BEB0B0BB2EB080C71EB03077BF1000BE1
:1055F00024BF624639464EEB0E0E51EA020718BF31
:1056000046F0010616EB0E7655F1000254F100014A
:1056100003D5BDE88901BDE80088BDE88901BDE882
:105620000048B619524141EB0101A3F10103704753
:1056300080807F7E7D7C7B7A7978777676757473CF
:10564000727171706F6E6E6D6C6C6B6A6A6968688E
:10565000676666656464636362616160605F5F5E24
:105660005E5D5D5C5C5B5B5A5A595958585757569A
:1056700056555555545453535252525151505050FF
:105680004F4F4F4E4E4D4D4D4C4C4C4B4B4B4A4A51
:105690004A49494948484847474747464646454595
:1056A00045444444444343434342424242414141CE
:1056B0009C46002B30D477002BD04FEA37071CB51F
:1056C00003B44FF010004FF01001BAF1000F06D0F4
:1056D000BCF1000FDCBF40F0080040F008014FF0C3
:1056E00000000FBCBDE810400BF1010BBBF1010F36
:1056F00008BF5FEA170722BF12F1010211F1010191
:105700004FF0004143F1000300F0004043EA000085
:105710007047F9D35708D0E746EA06464FEA1646DF
:1057200013F1400F1FDD13F1200FDFBF16430A46B0
:10573000002120335B42BED0C3F1200746EA064673
:105740004FEA164602FA07F746EA070622FA03F27C
:10575000C3F1200701FA07F742EA070221FA03F131
:105760004FF00003A7E746EA020646EA06464FEA7C
:10577000164646EA0106BCBF46EA0646360C4FF01E
:1057800000034FF000024FF0000194E72DE9804C38
:1057900070B49A46934691E8380007C831EA400C45
:1057A00048BF34EA430C03D5FFF7E6FDFFF780FF5F
:1057B000F0BCBDE8008C2DE9804C70B49A4693464D
:1057C00091E8380007C810F0804F08BF13F0804FF1
:1057D00003D100F005F8FFF76BFFF0BCBDE8008CCB
:1057E00020F07F4723F07F4C80EA030000F0004068
:1057F00007EB0C03A3F57C53A3F1FE0392F0000F1B
:1058000000F0B38095F0000F00F077802DE901499A
:105810004FEA114021EA00484FEA144624EA0647BD
:1058200000FB06FC08FB06F607FB08F818EB064829
:105830004CEB164C00FB07F718EB07484CEB1740F6
:105840004FEA124B22EA0B4E4FEA154625EA06476D
:105850000BFB06FC0EFB06F607FB0EFE1EEB064ED0
:105860004CEB164C0BFB07F71EEB074E4CEB174BA4
:1058700018EB0B0840F1000018EB0E0B58EB00087A
:1058800040F100008F1A4FF000014FF000063CBFBE
:10589000C943661B14BFB5EB040C00213CBFC943D0
:1058A000F61B4FEA174427EA04454FEA1C472CEA47
:1058B000074C04FB076205FB07F70CFB05F616EB2C
:1058C000074642EB174204FB0CFC16EB0C4642EB7E
:1058D0001C421BEB060658EB020241414EEA8E0EBB
:1058E00046EA9E0601D5BDE80189B619524141EB51
:1058F0000101A3F10103BDE801894FEA144524EA3F
:1059000005464FEA114721EA074C05FB07F406FB61
:1059100007F70CFB06F111EB074144EB174405FBBD
:105920000CFC11EB0C4144EB1C444FEA124722EAF9
:10593000074C05FB07F206FB07F70CFB06F616EB18
:10594000074642EB174205FB0CFC16EB0C4642EBFC
:105950001C456A1854F1000148BF7047B6195241FE
:1059600041EB0101A3F10103704795F0000F37D01F
:105970004FEA114221EA02464FEA144724EA074C53
:1059800002FB07F106FB07F70CFB06F414EB0744D8
:1059900041EB174102FB0CFC14EB0C4441EB1C41A6
:1059A0004FEA154725EA074C02FB07F506FB07F708
:1059B0000CFB06F616EB074645EB174502FB0CFC05
:1059C00016EB0C4645EB1C42121951F1000148BF81
:1059D0007047B619524141EB0101A3F10103704731
:1059E0004FEA144524EA05464FEA114721EA074CDD
:1059F00005FB07F106FB07F70CFB06F212EB07426B
:105A000041EB174105FB0CFC12EB0C4251EB1C4126
:105A10004FF0000648BF7047921841EB0101A3F117
:105A200001037047490050EAC12018BF04204A0D05
:105A300018BF40F0010040F2FF72B2EB515F08BFA7
:105A400040F00200012808BF0520704730380A28BE
:105A500001D20120704700207047000010B50029D6
:105A60000AD00878002807D005487844FBF78CFC5A
:105A7000002801D0002010BD0248784410BD00006D
:105A80001E0600001606000010B500290AD008788E
:105A9000002807D005487844FBF776FC002801D0A1
:105AA000002010BD0248784410BD00000E06000022
:105AB0000606000021F0004201F00043A2F160520E
:105AC000B2F5801F28BFD2F17F6C0BD95FEA001CB2
:105AD00043EAC20242EB507018BF704728BF20F063
