:020000040800F2
:10000000E807002089010008D52E0008D12B000840
:10001000D12E0008910200084136000800000000BF
:10002000000000000000000000000000DD310008BA
:10003000B502000800000000452F00083532000816
:10004000A3010008A3010008A3010008A301000800
:10005000A3010008A3010008A3010008A3010008F0
:10006000A3010008A3010008A3010008A3010008E0
:1000700095020008A5020008A3010008A3010008DA
:10008000A3010008A3010008A3010008A3010008C0
:10009000A3010008A3010008A3010008A3010008B0
:1000A000A3010008AD320008A3010008A301000865
:1000B000A3010008A3010008A3010008A301000890
:1000C000A3010008A3010008A3010008852F000870
:1000D000A3010008A3010008A3010008A301000870
:1000E000A3010008A3010008A301000800F002F822
:1000F00000F03AF80AA090E8000C82448344AAF188
:100100000107DA4501D100F02FF8AFF2090EBAE885
:100110000F0013F0010F18BFFB1A43F0010318473B
:100120007836000098360000103A24BF78C878C1AD
:10013000FAD8520724BF30C830C144BF04680C60ED
:10014000704700000023002400250026103A28BF35
:1001500078C1FBD8520728BF30C148BF0B60704739
:100160001FB51FBD10B510BD00F058F81146FFF7C0
:10017000F7FF03F0C7FA00F076F803B4FFF7F2FFD9
:1001800003BC00F07DF8000009488047094800479B
:10019000FEE7FEE7FEE7FEE7FEE7FEE7FEE7FEE737
:1001A000FEE7FEE704480549054A064B7047000094
:1001B000A9320008ED000008E8010020E80700204F
:1001C000E8030020E80300204FF0000200B51346CA
:1001D00094469646203922BFA0E80C50A0E80C5067
:1001E000B1F12001BFF4F7AF090728BFA0E80C5018
:1001F00048BF0CC05DF804EB890028BF40F8042B11
:1002000008BF704748BF20F8022B11F0804F18BF7D
:1002100000F8012B7047704770477047754600F033
:100220002BF8AE4605006946534620F00700854688
:1002300018B020B5FFF7B6FFBDE820404FF000062C
:100240004FF000074FF000084FF0000BAC46ACE851
:10025000C009ACE8C009ACE8C009ACE8C00921F0AD
:1002600007018D46704710B50446AFF30080204665
:10027000BDE81040FFF781BF004870471000002024
:1002800001491820ABBEFEE72600020070470000BF
:10029000FFE7FEE780B540F27000C2F2000000F018
:1002A000A1F880BD80B540F2B400C2F2000000F0B9
:1002B00099F880BD7047000081B0EFF3108072B6EE
:1002C0000090FFE7FEE7000080B588B007900020AF
:1002D0008DF81B00079890F82100022807D0FFE74F
:1002E00007990420886301208DF81B0076E00798A9
:1002F0000168086820F00E00086007980168086827
:1003000020F001000860079800680821C4F202018B
:10031000884203D1FFE70120059047E00798006875
:100320001C21C4F20201884203D1FFE7102004908F
:1003300039E0079800683021C4F20201884204D1F4
:10034000FFE74FF4807003902AE00798006844218B
:10035000C4F20201884204D1FFE74FF480500290BA
:100360001BE0079800685821C4F20201884204D1BA
:10037000FFE74FF4803001900CE0079801686C2291
:10038000C4F202024FF08070914208BF4FF4801017
:100390000190FFE701980290FFE702980390FFE7C2
:1003A00003980490FFE704980590FFE7059804215F
:1003B000C4F2020108600799012081F82100FFE7DB
:1003C0000799002081F82000FFE70798406B20B1D3
:1003D000FFE70798416B8847FFE7FFE79DF81B00A1
:1003E00008B080BD80B58EB00D900D98C06B0068D0
:1003F0000C900D98006800680B900C980D99096C92
:10040000C8404007002875D5FFE79DF82C0040073D
:1004100000286FD5FFE70D98006800688006002867
:1004200007D4FFE70D980168086820F00400086011
:10043000FFE70D9800680821C4F20201884203D149
:10044000FFE704200A9047E00D9800681C21C4F2E1
:100450000201884203D1FFE74020099039E00D985E
:1004600000683021C4F20201884204D1FFE74FF452
:10047000806008902AE00D9800684421C4F20201CF
:10048000884204D1FFE74FF4804007901BE00D98AD
:1004900000685821C4F20201884204D1FFE74FF4FA
:1004A000802006900CE00D9801686C22C4F20202D4
:1004B0004FF08060914208BF4FF480000690FFE744
:1004C00006980790FFE707980890FFE708980990BB
:1004D000FFE709980A90FFE70A980421C4F2020195
:1004E00008600D98C06A20B1FFE70D98C16A88477F
:1004F000FFE7B8E00C980D99096CC8408007002808
:1005000040F18080FFE79DF82C008007002879D516
:10051000FFE70D9800680068800600280BD4FFE70D
:100520000D980168086820F00A0008600D99012004
:1005300081F82100FFE70D9800680821C4F202014C
:10054000884203D1FFE70220059047E00D9800683C
:100550001C21C4F20201884203D1FFE7202004904D
:1005600039E00D9800683021C4F20201884204D1BC
:10057000FFE74FF4007003902AE00D9800684421D3
:10058000C4F20201884204D1FFE74FF40050029008
:100590001BE00D9800685821C4F20201884204D182
:1005A000FFE74FF4003001900CE00D9801686C22D9
:1005B000C4F202024FF00070914208BF4FF40010E5
:1005C0000190FFE701980290FFE702980390FFE790
:1005D00003980490FFE704980590FFE7059804212D
:1005E000C4F202010860FFE70D99002081F82000A5
:1005F000FFE70D98806A20B1FFE70D98816A884770
:10060000FFE72FE00C980D99096CC84000070028FF
:1006100027D5FFE79DF82C000007002821D5FFE72C
:100620000D980168086820F00E0008600D98C26BF4
:10063000016C012000FA01F151600D9988630D9958
:1006400081F82100FFE70D99002081F82000FFE7E5
:100650000D98006B20B1FFE70D98016B8847FFE70D
:10066000FFE7FFE7FFE70EB080BD000083B0019019
:1006700000200090019820B9FFE701208DF80B00C1
:1006800047E0019908684FF6F872CBF6FD72104406
:100690004CF6CD42CCF6CC42A0FB02026FF0030038
:1006A00000EA9200086401990020C4F20200C863C5
:1006B0000199022081F821000198006800680090EB
:1006C000009843F6F0718843009001994868D1F88A
:1006D00008C0CB680A6940EA0C00184310434A6915
:1006E00010438A691043C969014300980843009088
:1006F0000098019909680860019900208863019AAF
:10070000012182F82110019981F820008DF80B0059
:10071000FFE79DF80B0003B07047000090B00F900A
:100720000E9100200D900990FFE70E9800680D993A
:10073000C840002800F07F81FFE70D990120884024
:100740000C900E9800680C9908400B900B980C992F
:10075000884240F06C81FFE70E98406805900028C1
:1007600051D0FFE7059801283AD0FFE70598022805
:100770003FD0FFE7059803285FD0FFE705981128D1
:1007800032D0FFE70598122838D0FFE705980021FE
:10079000C1F21101884236D0FFE705980021C1F26D
:1007A000120188422FD0FFE705980021C1F22101F4
:1007B000884228D0FFE705980021C1F22201884233
:1007C00021D0FFE705980021C1F2310188421AD0FB
:1007D000FFE705980021C1F23201884213D02FE0D3
:1007E0000E98C06809902CE00E98C06804300990FB
:1007F00027E00E98C0680830099022E00E98C06883
:100800000C3009901DE00E98806818B9FFE70420AD
:10081000099011E00E988068012806D1FFE70820B2
:1008200009900C980F99086105E0082009900C9830
:100830000F994861FFE7FFE703E00020099000E01F
:10084000FFE70B98FF2803D8FFE70F98049003E019
:100850000F9804300490FFE7049808900B98FF2845
:1008600004D8FFE70D988000039006E00D996FF023
:100870001F0000EB81000390FFE7039807900898A2
:100880000068079A0F2191408843099991400843D5
:10089000089908600E98C079C006002840F1C6800B
:1008A000FFE7FFE741F21800C4F20200016841F0DF
:1008B00001010160006800F0010006900698FFE762
:1008C0000D9820F003000821C4F2010140580A905D
:1008D0000D9800F0030081000F2000FA01F10A9842
:1008E00088430A900F9840F60001C4F20101884243
:1008F00003D1FFE70020029026E00F9840F6004168
:10090000C4F20101884203D1FFE70120019018E001
:100910000F9841F20001C4F20101884203D1FFE7C0
:10092000022000900AE00F9941F20042C4F2010255
:100930000420914208BF03200090FFE70098019037
:10094000FFE701980290FFE702980D9901F003017B
:10095000890000FA01F10A9808430A900A980D9953
:1009600021F003010822C4F2010288500E98807918
:10097000C006002809D5FFE70B9A40F20841C4F2EF
:10098000010108681043086008E00B9A40F2084132
:10099000C4F20101086890430860FFE70E9880796F
:1009A0008006002809D5FFE70B9A40F20C41C4F2FB
:1009B000010108681043086008E00B9A40F20C41FE
:1009C000C4F20101086890430860FFE70E9880793F
:1009D0008007002809D5FFE70B9A40F20441C4F2D2
:1009E000010108681043086008E00B9A40F20441D6
:1009F000C4F20101086890430860FFE70E9880790F
:100A0000C00748B1FFE70B9A40F20041C4F2010170
:100A100008681043086008E00B9A40F20041C4F2F5
:100A20000101086890430860FFE7FFE7FFE70D98C2
:100A300001300D9079E610B07047000082B001904F
:100A4000ADF802108DF801209DF8010028B1FFE7F4
:100A5000BDF802000199086105E0BDF8020000043C
:100A600001990861FFE702B07047000040F2E01012
:100A7000C2F200000068704740F20400C2F20000B9
:100A8000027840F2E011C2F20001086810440860E8
:100A90007047000080B542F20001C4F2020108680C
:100AA00040F010000860032000F096F80F2000F0DE
:100AB00005F800F03BF8002080BD000080B582B052
:100AC000009040F20000C2F20000006840F2040111
:100AD000C2F200010A784FF47A71B1FBF2F1B0FB77
:100AE000F1F001F0C3FB20B1FFE701208DF8070012
:100AF00018E000980F280DD8FFE700994FF0FF305D
:100B0000002200F04FF8009840F20801C2F2000104
:100B1000086003E001208DF8070003E000208DF855
:100B20000700FFE79DF8070002B080BD83B0FFE734
:100B300041F21800C4F20200016841F001010160B5
:100B4000006800F0010002900298FFE7FFE741F221
:100B50001C00C4F20200016841F08051016000688D
:100B600000F0805001900198FFE7FFE70421C4F2F4
:100B7000010108680090009820F0E0600090009863
:100B800040F00070009000980860FFE703B07047E5
:100B900080B582B08DF807009DF9070002F052FD84
:100BA00002B080BD80B586B08DF817000491039225
:100BB0000020029002F05EFD02909DF91700019066
:100BC00002980499039A02F087F90146019802F00D
:100BD00059FD06B080BD000080B582B0019001983B
:100BE00002F072FD02B080BD80B584B00290019128
:100BF000029820B9FFE701208DF80F001BE1019852
:100C000042F20001C4F20201096801F007018842C2
:100C100016D9FFE742F20000C4F20200016821F099
:100C20000701019A11430160006800F00700019973
:100C3000884204D0FFE701208DF80F00FBE0FFE7BA
:100C400002980078800700282AD5FFE702980078EC
:100C50004007002809D5FFE741F20401C4F2020170
:100C6000086840F4E0600860FFE702980078000739
:100C7000002809D5FFE741F20401C4F20201086827
:100C800040F460500860FFE741F20401C4F2020141
:100C9000086820F0F000029A926810430860FFE7AD
:100CA00002980078C007002860D0FFE702984068EB
:100CB00001280ED1FFE741F20000C4F202000068F3
:100CC0008003002804D4FFE701208DF80F00B2E074
:100CD00021E00298406802280ED1FFE741F20000AF
:100CE000C4F2020000688001002804D4FFE701205C
:100CF0008DF80F009FE00DE041F20000C4F2020009
:100D000000688007002804D4FFE701208DF80F0059
:100D100091E0FFE7FFE741F20401C4F20201086835
:100D200020F00300029A526810430860FFF79EFE0D
:100D30000090FFE741F20400C4F20200006800F0F6
:100D40000C0002994968B0EB810F0ED0FFE7FFF766
:100D50008DFE0099401A41F28931884204D3FFE7A1
:100D600003208DF80F0066E0E4E7FFE7019842F208
:100D70000001C4F20201096801F00701884216D29D
:100D8000FFE742F20000C4F20200016821F007010F
:100D9000019A11430160006800F007000199884240
:100DA00004D0FFE701208DF80F0044E0FFE7029830
:100DB0000078400700280CD5FFE741F20401C4F297
:100DC0000201086820F4E060029AD26810430860CB
:100DD000FFE702980078000700280DD5FFE741F2F1
:100DE0000401C4F20201086820F46050029A1269FA
:100DF00040EAC2000860FFE700F04CF841F204014D
:100E0000C4F202010968C9B20A0943F24471C0F68A
:100E10000001895CC84040F20001C2F20001086094
:100E200040F20800C2F200000068FFF747FE002011
:100E30008DF80F00FFE79DF80F0004B080BD0000A3
:100E400040F20000C2F200000068704780B5FFF772
:100E5000F7FF41F20401C4F202010968C1F3022262
:100E600043F25471C0F60001895CC84080BD0000A7
:100E700080B5FFF7E5FF41F20401C4F20201096801
:100E8000C1F3C22243F25471C0F60001895CC8402C
:100E900080BD000086B00020059004900390029071
:100EA000019041F20400C4F2020000680590059828
:100EB00000F00C000146009100283FD0FFE70098A9
:100EC000042804D0FFE70098082806D037E041F254
:100ED0000020C0F27A00019037E00598C0F383410A
:100EE00043F25C70C0F60000405C02909DF8160072
:100EF000C007C0B1FFE741F20400C4F2020000687D
:100F0000C0F3404143F26C70C0F60000405C0490B6
:100F1000029841F20021C0F27A0148430499B0FBE3
:100F2000F1F0039007E0029840F60011C0F23D0195
:100F300048430390FFE70398019006E0FFE741F282
:100F40000020C0F27A000190FFE7019806B07047D8
:100F500080B586B00490049820B9FFE701208DF891
:100F600017002EE304980078C007002800F0AE8038
:100F7000FFE741F20400C4F20200006800F00C0038
:100F8000042813D0FFE741F20400C4F20200006815
:100F900000F00C0008281BD1FFE741F20400C4F266
:100FA00002000068C003002812D5FFE741F20000EC
:100FB000C4F2020000688003002808D5FFE7049807
:100FC000406820B9FFE701208DF81700F9E27CE0C6
:100FD000FFE704984068B0F5803F09D1FFE741F290
:100FE0000001C4F20201086840F48030086032E079
:100FF0000498406868B9FFE741F20001C4F20201B9
:10100000086820F480300860086820F480200860B8
:1010100020E004984068B0F5A02F0DD1FFE741F221
:101020000001C4F20201086840F4802008600868EA
:1010300040F4803008600CE041F20001C4F202018B
:10104000086820F480300860086820F48020086078
:10105000FFE7FFE7FFE7FFE704984068D0B1FFE74D
:10106000FFF704FD0390FFE741F20000C4F2020025
:101070000068800300280CD4FFE7FFF7F7FC039912
:10108000401A652804D3FFE703208DF8170098E283
:10109000EAE719E0FFF7EAFC0390FFE741F20000FE
:1010A000C4F202000068800300280CD5FFE7FFF7B8
:1010B000DDFC0399401A652804D3FFE703208DF86F
:1010C00017007EE2EAE7FFE7FFE7FFE70498007812
:1010D0008007002840F18D80FFE741F20400C4F250
:1010E0000200006810F00C0F13D0FFE741F204007B
:1010F000C4F20200006800F00C00082829D1FFE7C4
:1011000041F20400C4F202000068C003002820D4A9
:10111000FFE741F20000C4F20200006880070028E7
:1011200009D5FFE704980069012804D0FFE70120F2
:101130008DF8170045E241F20001C4F2020108688F
:1011400020F0F800049A526940EAC2000860FFE704
:101150004EE00498006958B3FFE70021C4F2422131
:1011600001200860FFF782FC0390FFE741F20000D6
:10117000C4F202000068800700280CD4FFE7FFF7E4
:1011800075FC0399401A032804D3FFE703208DF868
:10119000170016E2EAE741F20001C4F20201086812
:1011A00020F0F800049A526940EAC20008601EE08C
:1011B0000021C4F2422100200860FFF757FC039091
:1011C000FFE741F20000C4F2020000688007002837
:1011D0000CD5FFE7FFF74AFC0399401A032804D314
:1011E000FFE703208DF81700EBE1EAE7FFE7FFE7F1
:1011F000FFE7049800780007002848D5FFE7049827
:10120000806918B3FFE740F28041C4F24221012017
:101210000860FFF72BFC0390FFE741F22400C4F2C3
:1012200002000068800700280CD4FFE7FFF71EFCCF
:101230000399401A032804D3FFE703208DF8170011
:10124000BFE1EAE7012001F07FFE1FE040F28041AC
:10125000C4F2422100200860FFF708FC0390FFE77A
:1012600041F22400C4F202000068800700280CD577
:10127000FFE7FFF7FBFB0399401A032804D3FFE7BE
:1012800003208DF817009CE1EAE7FFE7FFE70498E9
:1012900000784007002840F1D880FFE700208DF853
:1012A000070041F21C00C4F202000068C0000028E0
:1012B00013D4FFE7FFE741F21C00C4F2020001680B
:1012C00041F080510160006800F08050009000986B
:1012D000FFE701208DF80700FFE747F20000C4F2A6
:1012E00000000068C005002822D4FFE747F2000193
:1012F000C4F20001086840F480700860FFF7B6FB94
:101300000390FFE747F20000C4F200000068C00548
:1013100000280CD4FFE7FFF7A9FB0399401A6528C2
:1013200004D3FFE703208DF817004AE1EAE7FFE75F
:10133000FFE70498C068012809D1FFE741F22001C6
:10134000C4F20201086840F00100086031E004982E
:10135000C06868B9FFE741F22001C4F202010868E1
:1013600020F001000860086820F0040008601FE019
:101370000498C06805280DD1FFE741F22001C4F2AE
:101380000201086840F004000860086840F00100AD
:1013900008600CE041F22001C4F20201086820F06C
:1013A00001000860086820F004000860FFE7FFE71C
:1013B000FFE7FFE70498C068E0B1FFE7FFF756FBDF
:1013C0000390FFE741F22000C4F2020000688007AA
:1013D00000280ED4FFE7FFF749FB0399401A41F2BA
:1013E0008931884204D3FFE703208DF81700E8E035
:1013F000E8E71BE0FFF73AFB0390FFE741F220002C
:10140000C4F202000068800700280ED5FFE7FFF74E
:101410002DFB0399401A41F28931884204D3FFE73A
:1014200003208DF81700CCE0E8E7FFE79DF8070000
:10143000012809D1FFE741F21C01C4F2020108684A
:1014400020F080500860FFE7FFE70498C06900289B
:1014500000F0B380FFE741F20400C4F2020000682C
:1014600000F00C00082800F08280FFE70498C069B3
:1014700002285CD1FFE76021C4F24221002008600D
:10148000FFF7F4FA0390FFE741F20000C4F2020014
:101490000068800100280CD5FFE7FFF7E7FA039901
:1014A000401A032804D3FFE703208DF8170088E0D3
:1014B000EAE70498006AB0F5803F0CD1FFE741F2FB
:1014C0000401C4F20201086820F40030049A926812
:1014D00010430860FFE741F20401C4F2020108680A
:1014E00020F47410049B1A6A5B6A1A431043086064
:1014F0006021C4F2422101200860FFF7B7FA03908F
:10150000FFE741F20000C4F20200006880010028F9
:101510000CD4FFE7FFF7AAFA0399401A032804D373
:10152000FFE703208DF817004BE0EAE71EE060219B
:10153000C4F2422100200860FFF798FA0390FFE709
:1015400041F20000C4F202000068800100280CD5BE
:10155000FFE7FFF78BFA0399401A032804D3FFE74C
:1015600003208DF817002CE0EAE7FFE724E0049859
:10157000C069012804D1FFE701208DF8170020E0A1
:1015800041F20400C4F2020000680290029800F4E4
:1015900080300499096A884208D1FFE7029800F474
:1015A00070100499496A884204D0FFE701208DF841
:1015B000170006E0FFE7FFE7FFE700208DF81700C0
:1015C000FFE79DF8170006B080BD000081B00090D5
:1015D00001B0704780B586B00590059800684068F6
:1015E000049005980068806803909DF80C0000F056
:1015F00040010020B0EB911F11D1FFE70398C00715
:1016000068B1FFE79DF8100000F040010020B0EB4A
:10161000911F04D0FFE70598016C8847D6E09DF83C
:101620000C0000F002010020B0EB510F0BD0FFE7DF
:101630009DF810100020B0EBD11F04D0FFE70598F3
:10164000416C8847C2E09DF80C0000F020010020AA
:10165000B0EB511F0AD1FFE79DF80C0000F04001EC
:101660000020B0EB911F00F0B180FFE79DF8100063
:1016700000F020010020B0EB511F00F0A780FFE731
:101680009DF80C0000F040010020B0EB911F28D025
:10169000FFE7059890F85100032813D0FFE705995C
:1016A000486D40F004004865FFE70020029005986F
:1016B0000068C068029005980068806802900298EF
:1016C000FFE70DE0FFE70020019005980068C06883
:1016D000019005980068806801900198FFE775E027
:1016E000FFE79DF80C0000F020010020B0EB511F37
:1016F00015D0FFE70599486D40F001004865FFE708
:1017000000200090059800688068009005980168A6
:10171000086820F0400008600098FFE7FFE70598A0
:10172000406D002851D0FFE705980168486820F017
:10173000E00048600599012081F851009DF81000F3
:101740008007002805D4FFE79DF81000C007B8B354
:10175000FFE705980168486820F003004860059895
:10176000C06CA0B1FFE70598C16C42F69570C0F659
:10177000000048630598C06CFEF7A6FD30B1FFE796
:101780000599486D40F040004865FFE7FFE7059880
:10179000806CA0B1FFE70598816C42F69570C0F6A9
:1017A000000048630598806CFEF78EFD30B1FFE7BE
:1017B0000599486D40F040004865FFE7FFE703E00A
:1017C0000598FFF703FFFFE7FFE7FFE706B080BDDF
:1017D00080B584B00290029820B9FFE701208DF80F
:1017E0000F006DE00298406A60B9FFE70298406818
:1017F000B0F5827F01D1FFE703E002990020C861C4
:10180000FFE705E002990020086102994861FFE7BF
:10181000029900208862029890F8510040B9FFE7D1
:101820000299002081F85000029800F04DF8FFE77F
:101830000299022081F8510002980168086820F09E
:1018400040000860029A019211685068D2F808C0FE
:10185000D36800F482700CF4044C604403F4006319
:101860001844136903F002031844536903F0010399
:101870001844936903F400731844D36903F03803E0
:101880001844136A03F080031843926A02F400526A
:10189000104308600299488B00F004000968486012
:1018A00002980168C86920F40060C86102990020AC
:1018B0004865029A012182F851108DF80F00FFE768
:1018C0009DF80F0004B080BD80B58EB00D90002053
:1018D0000C900B900A9009900D98006843F200015B
:1018E000C4F20101884240F08D80FFE7FFE741F23A
:1018F0001800C4F20200016841F4805101600068E0
:1019000000F4805008900898FFE7FFE741F21800C4
:10191000C4F20200016841F004010160006800F0B7
:10192000040007900798FFE7A020099002200A9082
:1019300003200C9040F60000C4F20100039009A9B6
:101940000491FEF7EBFE03980499402209920022CD
:1019500005920A920B92FEF7E1FE059940F27000A3
:10196000C2F2000006901C22C4F202020260416032
:1019700081608022C2600161416181614FF4405108
:10198000C161FEF773FE18B1FFE7FEF795FCFFE7B4
:10199000FFE70D9840F27001C2F20001C1640D989A
:1019A0004862FFE740F2B400C2F20000029030212A
:1019B000C4F2020101601021416000218160802297
:1019C000C2600161416181614FF44051C161FEF724
:1019D0004DFE18B1FFE7FEF76FFCFFE7FFE70D983C
:1019E00040F2B401C2F2000181640D984862FFE741
:1019F0002320019001210022FFF7D4F80198FFF77E
:101A0000C7F8FFE70EB080BD80B588B0069005919D
:101A1000ADF81220039300208DF80700069890F887
:101A20005100012804D0FFE702208DF80700FDE0F7
:101A300006984068B0F5827F16D1FFE70698806867
:101A400090B9FFE70699042081F851000698059A9D
:101A5000BDF812300399EC46CCF80010114600F0A6
:101A600041FA8DF81F00ECE0FFE7069890F850006F
:101A7000012804D1FFE702208DF81F00E1E006995C
:101A8000012081F85000FFE7FFE7FEF7EFFF02902B
:101A9000059820B1FFE7BDF8120020B9FFE701204B
:101AA0008DF80700C2E00699042081F851000699DC
:101AB000002048650599069A9163BDF81210069AB0
:101AC0009187BDF81210069AD18706990863069986
:101AD00088860699C8860699086406994864069817
:101AE0008068B0F5004F0DD1FFE7069801680868DF
:101AF00020F04000086006980168086820F48040E3
:101B00000860FFE706980068006800F04000402881
:101B100007D0FFE706980168086840F040000860B9
:101B2000FFE70698C068A0BBFFE7FFE70698C08FF5
:101B300070B3FFE7069800688068C00778B1FFE7D8
:101B400006980068007B0699896B08700699886B77
:101B5000013088630699C88F0138C88717E0FEF7FF
:101B600085FF0299401A0399884204D3FFE703983E
:101B7000013018B9FFE7039840B9FFE703208DF85B
:101B800007000699012081F851004FE0FFE7CDE7FB
:101B900033E0FFE70698C08F70B3FFE70698006850
:101BA0008068C00778B1FFE706980068C0680699AA
:101BB000896B08800699886B023088630699C88F04
:101BC0000138C88717E0FEF751FF0299401A0399C0
:101BD000884204D3FFE70398013018B9FFE7039860
:101BE00040B9FFE703208DF807000699012081F82E
:101BF00051001BE0FFE7CDE7FFE706980399029A43
:101C000001F0D8F920B1FFE7069920204865FFE7E9
:101C10000698406D20B1FFE701208DF8070004E031
:101C20000699012081F85100FFE7FFE7FFE70699D9
:101C3000002081F85000FFE79DF807008DF81F0095
:101C4000FFE79DF81F0008B080BD000080B588B098
:101C500006900591ADF81220039300208DF807003F
:101C6000FFE7069890F85000012804D1FFE7022012
:101C70008DF81F0031E10699012081F85000FFE73F
:101C8000FFE7FEF7F3FE0290BDF81200ADF8040086
:101C9000069890F85100012804D0FFE702208DF843
:101CA00007000FE1059820B1FFE7BDF8120020B949
:101CB000FFE701208DF8070004E10699032081F871
:101CC00051000699002048650599069A1163BDF8F0
:101CD0001210069A9186BDF81210069AD1860699BE
:101CE0008863069988870699C88706994864069983
:101CF000086406988068B0F5004F0DD1FFE706989C
:101D00000168086820F040000860069801680868CB
:101D100040F480400860FFE706980068006800F023
:101D20004000402807D0FFE706980168086840F0A7
:101D300040000860FFE70698C068B0F5006F4BD11F
:101D4000FFE70698406828B1FFE7BDF804000128C6
:101D50000ED1FFE706980168006B0088C8600699FD
:101D6000086B023008630699C88E0138C886FFE701
:101D7000FFE70698C08E70B3FFE70698006880689A
:101D8000800700280ED5FFE706980168006B0088E1
:101D9000C8600699086B023008630699C88E01383E
:101DA000C88617E0FEF762FE0299401A039988423E
:101DB00004D3FFE70398013018B9FFE7039840B94F
:101DC000FFE703208DF807000699012081F85100F4
:101DD00078E0FFE7CDE74AE00698406828B1FFE7E2
:101DE000BDF8040001280ED1FFE706980168006BDA
:101DF000007808730699086B013008630699C88E4D
:101E00000138C886FFE7FFE70698C08E70B3FFE78A
:101E1000069800688068800700280ED5FFE70698BE
:101E20000168006B007808730699086B013008633D
:101E30000699C88E0138C88617E0FEF717FE02998A
:101E4000401A0399884204D3FFE70398013018B978
:101E5000FFE7039840B9FFE703208DF807000699D4
:101E6000012081F851002DE0FFE7CDE7FFE706985C
:101E70000399029A01F0FAF820B1FFE706992020B1
:101E80004865FFE70698806870B9FFE7FFE7002024
:101E9000009006980068C068009006980068806806
:101EA00000900098FFE7FFE70698406D20B1FFE73C
:101EB00001208DF8070004E00699012081F8510007
:101EC000FFE7FFE7FFE70699002081F85000FFE7F2
:101ED0009DF807008DF81F00FFE79DF81F0008B070
:101EE00080BD000080B58EB0DDF840C00C900B9135
:101EF0000A92ADF826300120059000208DF81300DD
:101F0000FFE70C9890F85000012804D1FFE7022069
:101F10008DF83700A6E10C99012081F85000FFE709
:101F2000FFE7FEF7A3FD06900C9890F851008DF89E
:101F30001F000C9840680890BDF82600ADF82400FA
:101F40009DF81F00012812D0FFE70898B0F5827FA6
:101F500009D1FFE70C98806828B9FFE79DF81F00BA
:101F6000042804D0FFE702208DF813006FE10B98DE
:101F700038B1FFE70A9820B1FFE7BDF8260020B985
:101F8000FFE701208DF8130061E10C9890F85100F3
:101F9000042805D0FFE70C99052081F85100FFE7E0
:101FA0000C99002048650A990C9A9163BDF8261097
:101FB0000C9AD187BDF826100C9A91870B990C9A30
:101FC0001163BDF826100C9AD186BDF826100C9A24
:101FD00091860C9908640C9948640C980068006814
:101FE00000F04000402807D0FFE70C98016808681F
:101FF00040F040000860FFE70C98C068B0F5006F43
:102000007AD1FFE70C98406828B1FFE7BDF82400BB
:1020100001280ED1FFE70C980168006B0088C860AA
:102020000C99086B023008630C99C88E0138C88679
:10203000FFE7FFE70C98C18E0120029039B9FFE756
:102040000C98C08F002818BF01200290FFE702986B
:10205000C00700284FD0FFE70C9800688068800711
:10206000002818D5FFE70C98C08EA0B1FFE70598AF
:10207000012810D1FFE70C980168006B0088C86048
:102080000C99086B023008630C99C88E0138C88619
:1020900000200590FFE70C9800688068C007A8B191
:1020A000FFE70C98C08F88B1FFE70C980068C06804
:1020B0000C99896B08800C99886B023088630C99A5
:1020C000C88F0138C88701200590FFE7FEF7CEFCD6
:1020D0000699401A109988420CD3FFE710980130F6
:1020E00040B1FFE703208DF813000C99012081F81F
:1020F0005100ACE09EE77CE00C98406828B1FFE717
:10210000BDF8240001280ED1FFE70C980168006B90
:10211000007808730C99086B013008630C99C88E1D
:102120000138C886FFE7FFE70C98C18E01200190B7
:1021300039B9FFE70C98C08F002818BF0120019023
:10214000FFE70198C007002852D0FFE70C9800680D
:1021500080688007002818D5FFE70C98C08EA0B1D2
:10216000FFE70598012810D1FFE70C980168006B84
:10217000007808730C99086B013008630C99C88EBD
:102180000138C88600200590FFE70C980068806839
:10219000C007A8B1FFE70C98C08F88B1FFE70C9883
:1021A0000068C0680C99896B08700C99886B0130C5
:1021B00088630C99C88F0138C88701200590FFE714
:1021C000FEF754FC0699401A1099884204D3FFE7A1
:1021D0001098013018B9FFE7109840B9FFE70320C5
:1021E0008DF813000C99012081F851002FE09BE736
:1021F000FFE70C981099069A00F038FF38B1FFE716
:1022000001208DF813000C99202048651FE00C98E0
:10221000806870B9FFE7FFE7002003900C98006822
:10222000C06803900C980068806803900398FFE7EB
:10223000FFE70C98406D20B1FFE701208DF81300F7
:1022400004E00C99012081F85100FFE7FFE7FFE768
:102250000C99002081F85000FFE79DF813008DF8DD
:102260003700FFE79DF837000EB080BD80B582B023
:102270000190019800F0B4FF02B080BD81B00090E1
:1022800001B0704781B0009001B0704785B00390F5
:102290000291FFE7039890F83C00012804D1FFE782
:1022A00002208DF813005BE00399012081F83C00C7
:1022B000FFE7FFE70399022081F83D0003980068DB
:1022C000406801900398006880680090019820F0B1
:1022D00070000190029801680198084301900198EC
:1022E0000399096848600398006842F60041C4F207
:1022F0000101884218D0FFE703980068B0F1804FD1
:1023000012D0FFE70398006840F20041C4F20001D8
:10231000884209D0FFE70398006840F60001C4F244
:10232000000188420ED1FFE7009820F08000009065
:102330000298416800980843009000980399096842
:102340008860FFE70399012081F83D00FFE70399CA
:10235000002081F83C00FFE700208DF81300FFE724
:102360009DF8130005B0704780B582B000900098CA
:1023700020B9FFE701208DF807003FE0009890F8B2
:102380003D0040B9FFE70099002081F83C0000982B
:1023900000F038F8FFE70099022081F83D0000992D
:1023A00051F8040B00F08AFF0099012081F84600E3
:1023B000FFE70099012081F83E00009981F83F0075
:1023C000009981F84000009981F84100FFE7FFE79C
:1023D0000099012081F84200009981F8430000999A
:1023E00081F84400009981F84500FFE70099012039
:1023F00081F83D0000208DF80700FFE79DF80700F9
:1024000002B080BD80B584B003900398006842F6A6
:102410000041C4F20101884219D1FFE7FFE741F210
:102420001800C4F20200016841F400610160006814
:1024300000F4006002900298FFE71920019000224A
:102440001146FEF7AFFB0198FEF7A2FBFFE704B0D1
:1024500080BD000083B00190019890F83D000128F4
:1024600004D0FFE701208DF80B0047E0019902201E
:1024700081F83D0001980168C86840F00100C8601B
:102480000198006842F60041C4F20101884218D068
:10249000FFE701980068B0F1804F12D0FFE7019884
:1024A000006840F20041C4F20001884209D0FFE711
:1024B0000198006840F60001C4F20001884212D180
:1024C000FFE701980068806800F00700009000981E
:1024D000062807D0FFE701980168086840F001006E
:1024E0000860FFE706E001980168086840F0010015
:1024F0000860FFE700208DF80B00FFE79DF80B0058
:1025000003B0704780B586B00490039100208DF829
:102510000B00FFE7049890F83C00012804D1FFE786
:1025200002208DF81700ABE00499012081F83C00EF
:10253000FFE7FFE70499022081F83D000498006856
:1025400080680190019820F077000190019820F4B4
:102550007F40019001980499096888600398006899
:102560000090002872D0FFE7009810286ED0FFE797
:10257000009820286AD0FFE70098302866D0FFE74F
:102580000098402855D0FFE70098502837D0FFE743
:102590000098602840D0FFE7009870280BD0FFE734
:1025A0000098B0F5805F05D0FFE70098B0F5005FB8
:1025B00016D052E055E004980068039B5A68996869
:1025C000DB6800F0F3FE04980068806801900198D1
:1025D00040F077000190019804990968886040E014
:1025E00004980068039B5A689968DB6800F0DEFE77
:1025F00004980168886840F48040886031E004985D
:102600000068039A5168D26800F000FF04980068DF
:10261000502100F0E5FE24E004980068039A516818
:10262000D26800F01BFF04980068602100F0D8FE1B
:1026300017E004980068039A5168D26800F0E6FE3B
:1026400004980068402100F0CBFE0AE0049800687E
:102650000399096800F0C4FE03E001208DF80B0027
:10266000FFE70499012081F83D00FFE7049900206D
:1026700081F83C00FFE79DF80B008DF81700FFE79D
:102680009DF8170006B080BD81B0009001B0704782
:1026900080B582B0019001980068006900F00201E5
:1026A0000020B0EB510F28D0FFE701980068C06808
:1026B00000F002010020B0EB510F1DD0FFE70198A0
:1026C00001686FF002000861019901200877019804
:1026D00000688069800720B1FFE70198FFF7D4FF09
:1026E00006E0019800F012F9019800F013F9FFE7F5
:1026F000019900200877FFE7FFE70198006800696B
:1027000000F004010020B0EB910F29D0FFE7019801
:102710000068C06800F004010020B0EB910F1ED0EB
:10272000FFE7019801686FF0040008610199022039
:10273000087701980068806910F4407F04D0FFE7B3
:102740000198FFF7A1FF06E0019800F0DFF801987B
:1027500000F0E0F8FFE7019900200877FFE7FFE7C6
:1027600001980068006900F008010020B0EBD10F6B
:1027700028D0FFE701980068C06800F00801002039
:10278000B0EBD10F1DD0FFE7019801686FF0080092
:10279000086101990420087701980068C0698007E2
:1027A00020B1FFE70198FFF76FFF06E0019800F006
:1027B000ADF8019800F0AEF8FFE701990020087726
:1027C000FFE7FFE701980068006900F010010020B2
:1027D000B0EB111F29D0FFE701980068C06800F036
:1027E00010010020B0EB111F1ED0FFE70198016817
:1027F0006FF01000086101990820087701980068BF
:10280000C06910F4407F04D0FFE70198FFF73CFF58
:1028100006E0019800F07AF8019800F07BF8FFE7F5
:10282000019900200877FFE7FFE701980068006939
:10283000C00780B1FFE701980068C068C00748B1D1
:10284000FFE7019801686FF001000861019800F04E
:1028500065F8FFE7FFE7019800680069C1B2002052
:10286000B0EBD11F13D0FFE701980068C068C1B278
:102870000020B0EBD11F09D0FFE7019801686FF08D
:10288000800008610198FFF7F9FCFFE7FFE7019876
:102890000068006900F040010020B0EB911F14D0E7
:1028A000FFE701980068C06800F040010020B0EB2D
:1028B000911F09D0FFE7019801686FF0400008619F
:1028C000019800F055F8FFE7FFE7019800680069FC
:1028D00000F020010020B0EB511F14D0FFE7019859
:1028E0000068C06800F020010020B0EB511F09D043
:1028F000FFE7019801686FF0200008610198FFF779
:10290000C1FCFFE7FFE702B080BD000081B000908E
:1029100001B0704781B0009001B0704780B582B0BF
:10292000019040F2F800C2F2000000F091F9012895
:102930000ED1FFE740F29810C2F2000043F26E7130
:10294000C0F6000113224FF0FF3300F0B1F80DE0A4
:1029500040F29810C2F2000043F28171C0F600010B
:1029600017224FF0FF3300F0A3F8FFE702B080BD5D
:1029700081B0009001B0704780B582B0009000989F
:1029800020B9FFE701208DF8070040E0009880693A
:1029900008B1FFE700E0FFE7009890F8410040B978
:1029A000FFE70099002081F84000009800F034F81B
:1029B000FFE70099242081F8410000980168C86869
:1029C00020F40050C860009800F072FD0098016883
:1029D000086920F49040086100980168486920F077
:1029E0002A00486100980168C86840F40050C86037
:1029F000009900204864009A202182F84110009A32
:102A000082F84210009948638DF80700FFE79DF8AF
:102A1000070002B080BD000080B58AB00990002098
:102A200008900790069005900998006843F6000109
:102A3000C4F20101884239D1FFE7FFE741F21800F3
:102A4000C4F20200016841F480410160006800F4B2
:102A5000804004900498FFE7FFE741F21800C4F2B9
:102A60000200016841F004010160006800F0040008
:102A700003900398FFE74FF4007005900220069042
:102A80000320089040F60000C4F20100019005A95F
:102A90000291FDF743FE019802994FF4806205927E
:102AA000002206920792FDF739FEFFE70AB080BDCB
:102AB00080B58AB008900791ADF81A2005930020E0
:102AC0000290089890F84100202878D1FFE70798F5
:102AD00020B1FFE7BDF81A0020B9FFE701208DF80B
:102AE000270070E00899002048640899212081F8A7
:102AF0004100FDF7BBFF0290BDF81A0008998884D9
:102B0000BDF81A000899C88408988068B0F5805FFD
:102B100009D1FFE70898006928B9FFE70020049071
:102B20000798039004E00798049000200390FFE7C3
:102B3000FFE70898C08C58B3FFE70898029B0599F7
:102B40006A4611608021002200F010FD20B1FFE7ED
:102B500003208DF8270036E0049858B9FFE7039862
:102B600000886FF35F200899096848600398023075
:102B7000039008E004980078089909684860049870
:102B800001300490FFE70899C88C0138C884D0E769
:102B90000898029B05996A4611604021002200F0C6
:102BA000E5FC20B1FFE703208DF827000BE0089932
:102BB000202081F8410000208DF8270003E002204A
:102BC0008DF82700FFE79DF827000AB080BD0000C0
:102BD000FFE7FEE781B0009001B0704780B588B094
:102BE00007908DF81B1005928DF813309DF81B008F
:102BF00040F080008DF8120041F20000C4F20100A4
:102C00004FF4805101220292FDF718FF40F60000B8
:102C1000C4F201000390102101910022FDF70EFF84
:102C2000029A07980DF112014FF0FF330093FFF75E
:102C30000DF8009B079805999DF81320FEF7E4FE18
:102C40000199029A0398FDF7F9FE08B080BD0000D3
:102C500080B584B00290029875210DF1070201231E
:102C6000FFF7BCFF9DF80700712804D1FFE70120A2
:102C70008DF80F0003E000208DF80F00FFE79DF8AE
:102C80000F0004B080BD000080B586B0FFE741F2C0
:102C90001400C4F20200016841F001010160006803
:102CA00000F0010005900598FFE70C20019001213C
:102CB000029100220392FDF775FF0198FDF768FF6E
:102CC0000299039A0D200490FDF76CFF0498FDF71C
:102CD0005FFF06B080BD000080B590B000200F906F
:102CE0000E900D900C90FFE741F21800C4F2020024
:102CF000016841F010010160006800F010000B90C5
:102D00000B98FFE7FFE741F21800C4F202000168E8
:102D100041F020010160006800F020000A900A984C
:102D2000FFE7FFE741F21800C4F20200016841F03A
:102D300004010160006800F0040009900998FFE7B1
:102D400040F60000C4F2010002901021019101221E
:102D50000392FDF773FE039A41F20000C4F20100F2
:102D600006904FF480510891FDF768FE019A029891
:102D700003990C920D91002104910E91032105916C
:102D80000F910CA90791FDF7C9FCDDF80CC0049B5D
:102D9000059A06980799DDF820E0CDF830E0CDF8E7
:102DA00034C00E930F92FDF7B9FC10B080BD000047
:102DB00080B582B040F2F800C2F20000019043F208
:102DC0000001C4F2010101604FF4827141600021F1
:102DD0008160C16002220261012242614FF40072EF
:102DE00082613022C2610162416281620A21C16254
:102DF000FEF7EEFC18B1FFE7FDF75EFAFFE702B061
:102E000080BD000080B588B0002100910791069137
:102E1000059104910391029140F25010C2F200001A
:102E2000019042F60042C4F2010202604FF4E15206
:102E30004260816042F21072C26001614161816151
:102E4000FFF792FA18B1FFE7FDF736FAFFE74FF404
:102E50008050049040F25010C2F2000004A9FFF725
:102E600051FB18B1FFE7FDF727FAFFE700200290BA
:102E7000039040F25010C2F2000002A9FFF706FAD8
:102E800018B1FFE7FDF718FAFFE708B080BD0000B2
:102E900080B582B040F29810C2F20000019043F673
:102EA0000001C4F2010101604FF4E13141600021F1
:102EB0008160C16001610C2242618161C161FFF7E3
:102EC0005BFD18B1FFE7FDF7F7F9FFE702B080BD42
:102ED000FFE7FEE7FFE7FEE788B00790069105925F
:102EE000079800F0070004900498C0F10700052837
:102EF00003D3FFE70420019004E00498C0F1070029
:102F00000190FFE70198039004980430062803D845
:102F1000FFE70020009003E0049803380090FFE7EB
:102F20000098029006980399012202FA01F10139F2
:102F30000840029B984005999A40013A1140084385
:102F400008B070477047000082B00190019840F2CD
:102F50000001C2F200010968C90844F6D352C1F267
:102F60006202A1FB0221890948430090FFE700BFEC
:102F7000FFE70098411E00910028F8D1FFE702B05A
:102F80007047000080B540F2F800C2F20000FEF782
:102F900021FB80BD80B582B001900198406A00900D
:102FA00000990020C8870099C8860098FEF70EFB9C
:102FB00002B080BD80B586B004900391029204985F
:102FC0004068B0F5827F13D1FFE704988068B0F5C0
:102FD000004F06D0FFE704988068B0F5806F07D1F6
:102FE000FFE704980168086820F040000860FFE7E8
:102FF00004984068B0F5827F1BD1FFE70498806891
:10300000B0F5806F15D1FFE70498039B02996A46DB
:1030100011600121002200F04BF848B1FFE704994C
:10302000486D40F02000486503208DF8170019E036
:1030300014E00498039B02996A46116080210022E3
:1030400000F036F848B1FFE70499486D40F02000E1
:10305000486503208DF8170004E0FFE700208DF895
:103060001700FFE79DF8170006B080BD80B586B059
:103070000490039102920498039B02996A4611609E
:103080008021002200F014F848B1FFE70499486D50
:1030900040F02000486503208DF8170003E0002071
:1030A0008DF81700FFE79DF8170006B080BD0000FF
:1030B00080B58AB0DDF830C0089007918DF81B20EC
:1030C000059305980190FDF7D1FC024601980C99F3
:1030D000891A08440390FDF7C9FC0290039840F256
:1030E0000001C2F200010968C1F3CB3148430490EA
:1030F000FFE708980068806807990840401AB0FA0E
:1031000080F040099DF81B1088425ED0FFE70598CB
:103110000130002858D0FFE7FDF7A8FC0299401ABB
:103120000399884204D2FFE70398002842D1FFE7C1
:1031300008980168486820F0E000486008984068F6
:10314000B0F5827F13D1FFE708988068B0F5004F93
:1031500006D0FFE708988068B0F5806F07D1FFE7D9
:1031600008980168086820F040000860FFE70898A8
:10317000806AB0F5005F0FD1FFE7FFE708980168AC
:10318000086820F40050086008980168086840F456
:1031900000500860FFE7FFE70899012081F851001F
:1031A000FFE70899002081F85000FFE703208DF821
:1031B00027000EE0049818B9FFE700200390FFE70E
:1031C000049801380490FFE793E700208DF827006A
:1031D000FFE79DF827000AB080BD0000704700009F
:1031E00080B582B0009000980138B0F1807F03D3A1
:1031F000FFE70120019019E0009801384EF2140118
:10320000CEF2000108604FF0FF300F2100F03AFAD3
:103210004EF21801CEF20001002008604EF21002BA
:10322000CEF20002072111600190FFE7019802B081
:1032300080BD000080B5FDF71FFC80BD80B590B05B
:1032400006A800902821FCF7BFFF009800230593F3
:103250000493039302930193012206924FF4803169
:10326000079108930A9202220D920E914FF4E011F9
:103270000F91FDF76DFE18B1FFE7FDF71DF8FFE7B1
:103280000F20019002210291002003904FF48062F0
:103290000492059001A8FDF7A7FC18B1FFE7FDF720
:1032A0000BF8FFE710B080BD7047000080B540F21A
:1032B0005010C2F20000FFF7EBF980BD83B002901E
:1032C0000191029800680090029842F60041C4F211
:1032D0000101884215D0FFE70298B0F1804F10D06D
:1032E000FFE7029840F20041C4F20001884208D092
:1032F000FFE7029840F60001C4F2000188420AD1BB
:10330000FFE7009820F07000009001984168009855
:1033100008430090FFE7029842F60041C4F2010121
:10332000884215D0FFE70298B0F1804F10D0FFE738
:10333000029840F20041C4F20001884208D0FFE741
:10334000029840F60001C4F2000188420AD1FFE76A
:10335000009820F4407000900198C16800980843DC
:103360000090FFE7009820F0800001994969084328
:103370000090009802990860019880680299C862DC
:103380000198006802998862029842F60041C4F2EE
:103390000101884205D1FFE701980069029908639D
:1033A000FFE702990120486103B0704785B004909F
:1033B000039102920193049880680090009820F491
:1033C0007F40009003980299019A41EA022101434B
:1033D00000980843009000980499886005B07047F1
:1033E00083B002900191029880680090009820F0CC
:1033F0007000009001980099084340F00700009089
:1034000000980299886003B07047000085B004906E
:10341000039102920498006A00900499086A20F0CF
:1034200001000862049880690190019820F0F00082
:1034300001900299019840EA01100190009820F053
:103440000A0000900399009808430090019804999D
:10345000886100980499086205B0704785B00490AF
:10346000039102920498006A00900499086A20F07F
:1034700010000862049880690190019820F470405F
:1034800001900299019840EA01300190009820F0E3
:10349000A00000900399009840EA01100090019864
:1034A0000499886100980499086205B0704700008B
:1034B00080B584B0039003980068006920F4405000
:1034C000039A1168D26810430861039988680A69F1
:1034D000496910430843029003980068C06841F2AC
:1034E0000C6188430299084303990968C8600398EE
:1034F0000068406920F44070039A11689269104393
:1035000048610398006843F60001C4F20101884253
:1035100004D1FFE7FDF7ACFC019003E0FDF796FC5A
:103520000190FFE7019819214843039A11685268F6
:103530009200B0FBF2FC48F21F52C5F2EB12ACFB5A
:1035400002304309642003FB10CC322000EB0C1046
:10355000A0FB0202F02000EA521000EB0310C2F3BD
:1035600043121044886004B080BD000080B588B06C
:10357000DDF828C0069005918DF813200393FFE72E
:1035800006980068006805990840401AB0FA80F073
:1035900040099DF81310884249D1FFE70A9801308D
:1035A000002843D0FFE70A9840B1FFE7FDF75EFA35
:1035B0000399401A0A99884237D9FFE7FFE7FFE7E6
:1035C0000698006850E8030F20F4D0700290FFE7DF
:1035D00002990698026842E803100028F0D1FFE73C
:1035E000FFE7FFE7FFE70698006850E8050F20F0C7
:1035F00001000190FFE701990698026842E8051072
:103600000028F0D1FFE7FFE70699202081F841006C
:10361000069981F84200FFE70699002081F84000F2
:10362000FFE703208DF81F0005E0FFE7A8E7002073
:103630008DF81F00FFE79DF81F0008B080BD000057
:10364000FFE7FEE781B08DF803009DF90300002835
:103650000ED4FFE79DF9031001F01F0201209040F6
:103660004A094EF20011CEF2000141F82200FFE7B4
:1036700001B070474EF60C50CEF200000068C0F367
:103680000220704782B08DF8070000919DF9070075
:1036900000280AD4FFE7009800019DF907104EF2B8
:1036A0000042CEF2000288540BE0009800019DF821
:1036B000071001F00F014EF61452CEF200028854AA
:1036C000FFE702B07047000083B00290029800F05C
:1036D000070000904EF60C51CEF2000108680190F0
:1036E00001984FF6FF02104001900198009A40EABD
:1036F00002200022C0F2FA521043019001980860A3
:1037000003B0704780B582B000200190FDF7C2F988
:10371000FFF794FDFFF7E0FAFFF7B6FAFFF748FB73
:10372000FFF770FBFFF7B4FB40F2F800C2F20000B5
:10373000FFF750FA40F25010C2F20000FEF78AFE86
:10374000FFE7FEE7000000000000000001020304A4
:103750000607080900000000010203040203040533
:10376000060708090A0B0C0D0E0F1010010257482E
:103770004F20414D204920636F72726563740A0DBA
:103780000057484F20414D2049206E6F7420636FD1
:1037900072726563740A0D00B837000800000020DB
:1037A0001000000028010008C837000810000020A1
:1037B000D8070000440100080024F40001000000C4
:0837C0001000000000000000F1
:04000005080000ED02
:00000001FF
